:020000040800F2
:1000000020A5002019020008C50A00083D020008CA
:10001000C10A0008930A0008851B000800000000C0
:10002000000000000000000000000000490100087E
:10003000970A000800000000A50100080D1A00083A
:1000400033020008330200083302000833020008BC
:100050003302000833020008990A0008330200083E
:10006000330200083302000833020008330200089C
:10007000330200083302000833020008330200088C
:10008000330200083302000833020008330200087C
:10009000330200083302000833020008330200086C
:1000A000330200083302000833020008330200085C
:1000B000330200083302000833020008330200084C
:1000C000330200083302000833020008330200083C
:1000D00033020008F11A0008330200083302000856
:1000E000AB0A00083302000833020008330200089C
:1000F000330200083302000833020008330200080C
:1001000033020008330200083302000833020008FB
:1001100033020008330200083302000833020008EB
:1001200033020008330200083302000833020008DB
:10013000DFF810D000F070FC0048004715A100085F
:10014000AFF3008020A500202C4B19680868B0E8A8
:10015000F04F80F30988BFF36F8F4FF0000080F3FA
:10016000118870470000000008480068006880F3AC
:1001700008884FF0000080F3148862B661B6BFF3C0
:100180004F8FBFF36F8F00DF00BF00BF08ED00E0AF
:10019000DFF80C00016841F470010160704700BF96
:1001A00088ED00E0EFF30980BFF36F8F134B1A68FF
:1001B0001EF0100F08BF20ED108A20E9F04F1060EC
:1001C00009B44FF0200080F31188BFF34F8FBFF3C5
:1001D0006F8F11F065F84FF0000080F3118809BCB3
:1001E00019680868B0E8F04F1EF0100F08BFB0ECB7
:1001F000108A80F30988BFF36F8F704704000020D6
:10020000EFF3058070470000EFF308807047EFF3CD
:10021000098070476846704706488047064800478F
:10022000FEE7FEE7FEE7FEE7FEE7FEE7FEE7FEE7A6
:10023000FEE7FEE7491A00083101000870466946EA
:1002400007F02CF8FFF7FEFF2DE9F0410024061B14
:10025000254671F1000605DA01240027D0EB0700DE
:1002600067EB0101161E73F1000605DA0027D2EBD9
:100270000702012567EB030300F0E6FA86460E4607
:1002800017469C46AC4204D00025D0EB050E65EB2A
:10029000010624B10020D2EB000760EB030C70468E
:1002A00031463A466346BDE8F0812DE9FE43994662
:1002B00015468846074601AC022942D3002D40D09E
:1002C00000200290A8F101004FF0FF36009022E0DC
:1002D00000FB057201FB057011464A469047002855
:1002E00005DC54F82600304444F8260013E060682A
:1002F0002A4600FB057154F8040C00FB057007E06A
:100300000B7890F800C001F801CB00F8013B521EB9
:10031000002AF5D1764254F8040C61688842D7DC93
:100320004B462A463846FFF7C0FF54F8040C4B46AC
:10033000A8EB0001401C00FB05702A46491EFFF790
:10034000B4FFBDE8FE8310B5431A934209D2831867
:10035000881803E010F8011D03F8011D521EF9D2A0
:1003600010BD40EA01039B0703D009E008C9121F32
:1003700008C0042AFAD203E011F8013B00F8013B5F
:10038000521EF9D210BDD2B201E000F8012B491E75
:10039000FBD270470022F6E710B513460A46044622
:1003A0001946FFF7F0FF204610BD30B505462A4636
:1003B0000B4612F8010B13F8014B08B1A042F8D01C
:1003C0001CB1002802D06D1CF1E7284630BD10B5E5
:1003D000044604E00B7800F8013B03B1491C521EAF
:1003E000F8D2204610BD421C10F8011B0029FBD199
:1003F000801A704710B5002200E0521C835C8C5CB0
:10040000A34201D1002BF8D1D8B2E1B2401A10BDFD
:1004100030B504460020034600E05B1C934203D243
:10042000E05CCD5C401BF8D030BD30B50546002007
:10043000034600E05B1C934205D2EC5CC85C201ACA
:1004400001D1002CF6D130BD2DE9FE4F804681EA66
:100450000300C00F0C46009021F0004123F000453E
:10046000B8EB0200A94105D24046214690461C4601
:100470000B46024623F00040104347D0270DC7F338
:100480000A00C3F30A510290401A019040286BDA27
:10049000C3F3130040F4801B0098924620B1002360
:1004A000D2EB030A63EB0B0B01985946C0F14002F3
:1004B000504600F0FAF906460D4650465946019A54
:1004C00000F012FA10EB08006141002487EA115293
:1004D00084EAE7731A4340D0009A62B3019A012A72
:1004E0004FEA075215DC001B61EB02014FF000429E
:1004F00002EA0752CDE90042001C41F58011324664
:100500002B4600F012FA03B0BDE8F08F40462146BA
:10051000F9E7001B61EB0201001C41F58013001894
:100520005B412018A2F5001747EB030140EAD570A4
:10053000B6196D4111E06D084FEA360645EAC075FF
:100540004FEA0752001B61EB0201001C41F58011CC
:1005500049084FEA30000019514132462B4603B09A
:10056000BDE8F04F00F0D2B900980122400000230E
:10057000D0EB020263EBE073009821464FEAE0748F
:10058000B8EB000061EB0401E9E783F000435BE7AF
:1005900081F0004158E72DE9FE4F81EA030404F0A1
:1005A000004421F0004100944FF0000B23F0004381
:1005B00050EA01045ED052EA03045BD0C3F30A544C
:1005C000C1F30A552C44A4F2F3340194A0FB025465
:1005D000C1F3130141F48011C3F3130343F48013F7
:1005E00001FB024400FB034E840A970A44EA81544B
:1005F00047EA8357A4FB076802958D0A05FB078528
:100600004FEA932C04FB0C542705029D4FEA065831
:1006100047EA1637B5EB08056EEB070C870E920E0E
:1006200047EA811742EA8312A7FB0201B6EB0B01EE
:1006300064EB00042B0D43EA0C335E1844EB1C50B2
:10064000DA465146E7FB0201C5F313044FEA0B33C8
:1006500043EA14534FEA0432019C43EA0603A4F12F
:100660000C040294009CCDE900B400F05EF903B0E4
:10067000BDE8F08F00200146F9E72DE9F04D81EA51
:10068000030404F0004B21F0004514464FF0000A2B
:1006900023F0004150EA050220D054EA01021DD0A7
:1006A000C5F30A570246C5F31303C1F31300C1F3A0
:1006B0000A5640F4801543F48013A7EB0608101B7C
:1006C000D64608F2FD3873EB050002D308F10108A5
:1006D00001E092185B41B8F1000F03DA00200146F7
:1006E000BDE8F08D00204FF48011064684460EE0F0
:1006F000171B73EB050705D3121B63EB05030643BA
:100700004CEA010C49084FEA300092185B4150EA6C
:100710000107EDD152EA030012D082EA040083EA15
:100720000501084305D0101BAB4106D2012200236E
:1007300006E000224FF0004302E06FF00102531088
:100740001AEB06004CEB085110EB0A0041EB0B01D1
:10075000BDE8F04D00F0DAB870B5C1F30A5201F00F
:1007600000450024C1F3130140F2FF3341F480112E
:100770009A4201DA002070BD40F233439A42A2F25D
:10078000334203DC524200F09FF800E090402C43DB
:10079000F1D0404270BD00F0004230F000400AD07D
:1007A000C10D01F56071C0F3160042EA0151C208A3
:1007B00040071143704700200146704730B5041EC2
:1007C00071F1000404DB4FF00044404264EB01018E
:1007D000141E73F1000405DB1C464FF00043524227
:1007E00063EB04038B4208BF824230BD30B5041E68
:1007F00071F1000404DB4FF00044404264EB01015E
:10080000141E73F1000405DB1C464FF000435242F6
:1008100063EB0403994208BF904230BD30B50B46EC
:10082000014600202022012409E021FA02F59D4220
:1008300005D303FA02F5491B04FA02F52844151EF4
:10084000A2F10102F1DC30BD2DE9F05F0546002088
:1008500092469B4688460646814640241BE0284631
:1008600041464746224600F02FF853465A46C01AE2
:10087000914110D311461846224600F016F82D1A61
:1008800067EB01084F4622460120002100F00DF8D9
:1008900017EB00094E41201EA4F10104DFDC48469D
:1008A00031462A464346BDE8F09F202A04DB203A21
:1008B00000FA02F1002070479140C2F1200320FAB3
:1008C00003F3194390407047202A04DB203A21FAB1
:1008D00002F00021704721FA02F3D040C2F1200259
:1008E0009140084319467047202A06DBCB17203A6F
:1008F00041FA02F043EAE07306E041FA02F3D04025
:10090000C2F12002914008431946704710B5141EE9
:1009100073F1000408DA401C41F1000192185B41B8
:100920001A4301D120F0010010BD2DE9F04D92468F
:100930009B4611B1B1FA81F202E0B0FA80F22032A6
:100940009046FFF7B2FF04460F4640EA0A0041EA2C
:100950000B0153465A46084313D0114653EA01008F
:1009600019D0C8F140025046FFF7AEFF05460E46CB
:10097000504659464246FFF798FF084305D00120EC
:1009800004E020463946BDE8F08D0020054346EAE4
:10099000E0762C4337430A986305E40AA0EB08008D
:1009A0000022FD0A44EA47540A3002D500200146DD
:1009B000E9E7010510196941DDE9084500196941B8
:1009C000BDE8F04DA2E70EB5C10F80EAE070084423
:1009D000CA07002140F233438DE80E000A460B4659
:1009E000FFF7A3FF03B000BDC1F30A52C1F3130127
:1009F00040F2FF3341F480119A4202DA00200146AE
:100A0000704740F233439A42A2F2334202DC524230
:100A1000FFF75ABFFFF749BF064C074D06E0E068F5
:100A200040F0010394E8070098471034AC42F6D335
:100A3000FFF782FBB8790108D879010870B58C18E6
:100A400010F8015B15F0070301D110F8013B2A11E2
:100A500006D110F8012B03E010F8016B01F8016BCF
:100A60005B1EF9D12B0705D40023521E0DD401F8CB
:100A7000013BFAE710F8013BCB1A921C03E013F894
:100A8000015B01F8015B521EF9D5A142D8D30020C9
:100A900070BD00BFFEE7704710B5012008F06AFA8C
:100AA00010B1012008F060FA10BD10B54FF40050ED
:100AB00008F060FA18B14FF4005008F055FA10BD74
:100AC00000BFFEE7704700002DE9F04706460F46DD
:100AD0009046994600BFDFF8B4A09AF8000053286A
:100AE00001D001F051F800BFEFF311810846202139
:100AF00081F3118800BF00BF244D002400BF04EB28
:100B0000440205F1180101EBC201496801B903E093
:100B1000641C2969A142F2DC00BF2969A1422ADDD7
:100B200004EB440205F1180141F8326004EB440281
:100B300001EBC2014F6004EB440205F1180101EB27
:100B4000C201C1F80880002204EB440305F118013A
:100B500001EBC3010A6104EB440305F1180101EB49
:100B6000C301CA6004EB440205F1180101EBC201A4
:100B7000C1F8149001E04FF0FF34C1B281F3118845
:100B800000BF00BF2046BDE8F08700005889002064
:100B90002DE9F05F05460F469046994600BFDFF805
:100BA00064B09BF80000532801D000F0EDFF00BFB7
:100BB000DFF850A0032D1FD2EFF31181084620214A
:100BC00081F3118800BF00BF05EB45020AF1600107
:100BD00001EBC2043DB12760C4F80480C4F808905A
:100BE00000212161E1600A996161C1B281F311883C
:100BF00000BF00BF002601E04FF0FF363046BDE8E1
:100C0000F09F00005889002010B500F0BDFF10BD16
:100C10002DE9F74F82B08346174600BF2648009063
:100C200000980078532801D000F0AEFF00BF0BEB16
:100C30004B012148603000EBC106DDF80C903569AE
:100C4000D6F80CA04FF00008554517D9B068441BE2
:100C5000BC4201D2204600E0384604467068284471
:100C60000190224648460199FFF76DFBA044A1443C
:100C70003F1B2544B068A84200D10025AAEB05041B
:100C8000BC4201D2204600E0384604465CB17068A0
:100C900028440190224648460199FFF754FBA0449E
:100CA000A1443F1B2544B8F1000F00D035614046F8
:100CB00005B0BDE8F08F0000588900202DE9F74FFE
:100CC00082B082461446DDF80CB00AEB4A01224895
:100CD00000EBC105D5F81090EE68686830440190CB
:100CE000B14528D8A868801B471EA7420AD32246D0
:100CF00059460198FFF727FB3019E860012005B03D
:100D0000BDE8F08F4F44A74223D3A868A0EB0608A4
:100D1000424659460198FFF716FBA4EB08043CB184
:100D2000686801900BEB080122460198FFF70BFB66
:100D3000EC600120E3E7A9EB0600471EA74208D3B9
:100D4000224659460198FFF7FEFA3019E860012063
:100D5000D5E70020D3E700007089002010B5064BCE
:100D6000064A07480168006800F06AF84FF08050B2
:100D700000F036FC10BD0000A5250008486F0108F2
:100D80000000002070B5EFF311800646202080F3AC
:100D9000118800BF00BF284800F098FF05462C4688
:100DA0002046264A516805E0CAB242F0800200F8A7
:100DB000012BC9097F29F7D800F8011B04462046FA
:100DC0001E4A916805E0CAB242F0800200F8012B89
:100DD000C9097F29F7D800F8011B04462046174AA5
:100DE000116905E0CAB242F0800200F8012BC9097E
:100DF0007F29F7D800F8011B04462046002105E0B2
:100E0000CAB242F0800200F8012BC9097F29F7D845
:100E100000F8011B044618222146284600F05AFF1C
:100E2000F0B280F3118800BF00BF0448406A10B1DF
:100E30000249486A804770BD389200201092002015
:100E4000F8B504460D4616461F4600234FF480624F
:100E50000F4910A0FFF738FE104948700846407847
:100E6000087600200090087E08230D4A09A1FFF7AC
:100E70008FFE0020094908610A484068C86008469A
:100E8000066244608560476200200870F8BD00007B
:100E9000108E0020537973566965770010920020F8
:100EA000F4000020001000E070B5EFF3118004465C
:100EB000202080F3118800BF00BF074800F006FF24
:100EC000054611222946284600F004FFE0B280F3CF
:100ED000118800BF00BF70BD389200202DE9F0419D
:100EE0000446EFF311800746202080F3118800BFED
:100EF00000BF114800F0EAFE05462E460F48006983
:100F0000241A3046214605E0CAB242F0800200F8B9
:100F1000012BC9097F29F7D800F8011B06460822D2
:100F20003146284600F0D6FEF8B280F3118800BFA3
:100F300000BFBDE8F0810000389200201092002030
:100F40002DE9F0410446EFF311800746202080F39D
:100F5000118800BF00BF114800F0B8FE05462E46BC
:100F60000F480069241A3046214605E0CAB242F013
:100F7000800200F8012BC9097F29F7D800F8011B6E
:100F8000064604223146284600F0A4FEF8B280F35B
:100F9000118800BF00BFBDE8F0810000389200203A
:100FA000109200202DE9F0410446EFF3118007462E
:100FB000202080F3118800BF00BF114800F086FE9A
:100FC00005462E460F480069241A3046214605E0A2
:100FD000CAB242F0800200F8012BC9097F29F7D874
:100FE00000F8011B064606223146284600F072FE34
:100FF000F8B280F3118800BF00BFBDE8F0810000A7
:1010000038920020109200202DE9F041EFF311807A
:101010000746202080F3118800BF00BF114800F070
:1010200055FE0446254610480088C0F308062846A9
:10103000314605E0CAB242F0800200F8012BC9092E
:101040007F29F7D800F8011B0546022229462046D1
:1010500000F040FEF8B280F3118800BF00BFBDE889
:10106000F08100003892002004ED00E070B5EFF34D
:1010700011800446202080F3118800BF00BF07487C
:1010800000F024FE054603222946284600F022FEF1
:10109000E0B280F3118800BF00BF70BD389200201D
:1010A00070B50C48006A78B10A48006A006858B107
:1010B0000849096A0868804704460D462A462146C1
:1010C0000D2000F039F804E0034841680C2000F0DE
:1010D00005F870BD10920020001000E02DE9F041ED
:1010E00005460E46EFF311808046202080F31188DC
:1010F00000BF00BF0F4800F0E9FD04462746384610
:10110000314605E0CAB242F0800200F8012BC9095D
:101110007F29F7D800F8011B07462A4639462046A2
:1011200000F0D8FD08F0FF0080F3118800BF00BF79
:10113000BDE8F081389200202DE9F04706460F46C1
:101140009046EFF311808146202080F3118800BF84
:1011500000BF174800F0BAFD05462C462046394628
:1011600005E0CAB242F0800200F8012BC9097F29CC
:10117000F7D800F8011B04462046414605E0CAB2F4
:1011800042F0800200F8012BC9097F29F7D800F846
:10119000011B044632462146284600F09BFD09F01B
:1011A000FF0080F3118800BF00BFBDE8F08700009A
:1011B000389200202DE9F04706460F4690469946A2
:1011C000EFF311808246202080F3118800BF00BF1A
:1011D0001D4800F07BFD05462C462046394605E0BB
:1011E000CAB242F0800200F8012BC9097F29F7D862
:1011F00000F8011B04462046414605E0CAB242F011
:10120000800200F8012BC9097F29F7D800F8011BDB
:1012100004462046494605E0CAB242F0800200F882
:10122000012BC9097F29F7D800F8011B0446324673
:101230002146284600F04EFD0AF0FF0080F3118899
:1012400000BF00BFBDE8F087389200202DE9F05FB5
:1012500006460F4690469946DDF828A0EFF3118028
:101260008346202080F3118800BF00BF244800F08F
:101270002DFD05462C462046394605E0CAB242F00F
:10128000800200F8012BC9097F29F7D800F8011B5B
:1012900004462046414605E0CAB242F0800200F80A
:1012A000012BC9097F29F7D800F8011B0446204605
:1012B000494605E0CAB242F0800200F8012BC90994
:1012C0007F29F7D800F8011B04462046514605E067
:1012D000CAB242F0800200F8012BC9097F29F7D871
:1012E00000F8011B044632462146284600F0F2FC75
:1012F0000BF0FF0080F3118800BF00BFBDE8F09F36
:101300003892002070B50446EFF311800546202086
:1013100080F3118800BF00BF074800F0D7FC0646E5
:1013200022463146304600F0D5FCE8B280F3118801
:1013300000BF00BF70BD0000389200202DE9F047CB
:1013400006462948006800284CD027480468002732
:1013500003E0246904B902E07F1CB742F9D300BF5F
:10136000002C3AD0EFF311808146202080F31188C1
:1013700000BF00BF1D4800F0A9FC80464546284636
:10138000314605E0CAB242F0800200F8012BC909DB
:101390007F29F7D800F8011B05462846A16805E01B
:1013A000CAB242F0800200F8012BC9097F29F7D8A0
:1013B00000F8011B054680222846216800F01CFC2D
:1013C000054616222946404600F084FC09F0FF003D
:1013D00080F3118800BF00BF00BF1CB1E06808B1F6
:1013E000E0688047BDE8F087FC00002038920020CC
:1013F00010B50748006848B10548046800BFE068B8
:1014000008B1E06880472469002CF8D110BD0000C5
:10141000FC00002070B5EFF311800646202080F319
:10142000118800BF00BF0F4800F050FC044625465D
:1014300028460D4A117805E0CAB242F0800200F851
:10144000012BC9097F29F7D800F8011B05461B228B
:101450002946204600F03EFCF0B280F3118800BF20
:1014600000BF70BD38920020000100202DE9F0413E
:101470000446EFF311800546202080F3118800BF59
:1014800000BF0B4800F022FC074680222146384668
:1014900000F0B2FB06460E223146384600F01AFC38
:1014A000E8B280F3118800BF00BFBDE8F081000002
:1014B000389200202DE9F0410546EFF311800746F0
:1014C000202080F3118800BF00BF3B4800F0FEFBE6
:1014D000064634462046394B2A681B69D11A05E076
:1014E000CAB242F0800200F8012BC9097F29F7D85F
:1014F00000F8011B04462046A96805E0CAB242F084
:10150000800200F8012BC9097F29F7D800F8011BD8
:10151000044620222046696800F06EFB044609223A
:101520002146304600F0D6FB34462046234B2A683D
:101530001B69D11A05E0CAB242F0800200F8012B03
:10154000C9097F29F7D800F8011B04462046E9683D
:1015500005E0CAB242F0800200F8012BC9097F29D8
:10156000F7D800F8011B04462046296905E0CAB2F5
:1015700042F0800200F8012BC9097F29F7D800F852
:10158000011B04462046002105E0CAB242F0800259
:1015900000F8012BC9097F29F7D800F8011B044680
:1015A00015222146304600F095FBF8B280F31188F1
:1015B00000BF00BFBDE8F0813892002010920020EB
:1015C00010B50648006A38B10448006A406818B18E
:1015D0000249096A4868804710BD00001092002047
:1015E000014908617047000010920020014602483E
:1015F0000069081A704700001092002070B50120A1
:101600003A490870EFF311800446202080F31188D6
:1016100000BF00BF48780A223549FFF74FFBE0B210
:1016200080F3118800BF00BF0A20FFF76BFEEFF3C5
:1016300011800646202080F3118800BF00BF2D488E
:1016400000F044FB05462C462046284A516805E038
:10165000CAB242F0800200F8012BC9097F29F7D8ED
:1016600000F8011B04462046204A916805E0CAB2F2
:1016700042F0800200F8012BC9097F29F7D800F851
:10168000011B04462046194A116905E0CAB242F01E
:10169000800200F8012BC9097F29F7D800F8011B47
:1016A00004462046002105E0CAB242F0800200F85C
:1016B000012BC9097F29F7D800F8011B044618221D
:1016C0002146284600F006FBF0B280F3118800BFE7
:1016D00000BF0648406A10B10449486A8047FFF7D6
:1016E000DFFCFFF76DFFFFF795FE70BD1092002045
:1016F0002D6F01083892002070B5EFF31180054678
:10170000202080F3118800BF00BF0A4800F0DEFAF5
:1017100004460948007838B10B222146204600F0E3
:10172000D9FA002004490870E8B280F3118800BF9C
:1017300000BF70BD38920020109200202DE9F041CA
:101740000546EFF311800646202080F3118800BF84
:1017500000BF194800F0BAFA0746802229463846E9
:1017600000F04AFA04462046012105E0CAB242F0E0
:10177000800200F8012BC9097F29F7D800F8011B66
:1017800004462046002105E0CAB242F0800200F87B
:10179000012BC9097F29F7D800F8011B04461A223A
:1017A0002146384600F096FAF0B280F3118800BF67
:1017B00000BFBDE8F0810000389200202DE9F84319
:1017C00005460C4616461F46DDF82080052221A15D
:1017D0002046FEF71DFE08B9BDE8F8831F480068E3
:1017E000142803D31E48FFF7A9FFF5E71B4800683C
:1017F00000EB80001B4941F820501848006800EBBE
:10180000800001EB800044601448006800EB800019
:1018100001EB800086601148006800EB800001EB5E
:101820008000C7600D48006800EB800001EB80007D
:10183000C0F8108009480068401C084908603B4611
:10184000324621462846CDF8008000F095F800BFCA
:10185000C2E7000049444C4500000000040100209C
:10186000147901081C93002070B5054640480068B3
:1018700000B970BD002408E004EB84003D4951F834
:101880002000A84200D104E0641C3948006884426A
:10189000F2D300BF36480068401EA0420DD104EBD1
:1018A0008401344A02EB81001421FEF773FD3048B5
:1018B0000068401E2E49086057E02D4800688442A9
:1018C00053D22B480068401E00EB8000294951F894
:1018D000200004EB8401274A42F8210024480068D4
:1018E000401E00EB8000114601EB8000406804EBD5
:1018F000840102EB810148601D480068401E00EB36
:101900008000114601EB8000806804EB840102EB4B
:101910008101886016480068401E00EB8000114677
:1019200001EB8000C06804EB840102EB8101C86018
:101930000F480068401E00EB8000114601EB80005C
:10194000006904EB840102EB810108610849096820
:10195000491E01EB810102EB81001421FEF71AFD03
:1019600003480068401E0249086000BF81E700008C
:10197000040100201C9300202DE9F04186B00446AC
:101980000D4616461F46DDF83080142101A8FEF7EB
:1019900001FD0194029503960497CDF8148001A8E7
:1019A000FFF788FD06B0BDE8F0810000164800682A
:1019B00020F008000830144908600846006820F04C
:1019C0000200801C08600846006820F00100401CEE
:1019D00008600846006820F0400040300860084673
:1019E000006820F4004008600846006820F4804049
:1019F00008600846006820F020000860084600687B
:101A000020F08000086070473401002010B5FFF717
:101A1000FBFA00BF202080F31188BFF34F8FBFF384
:101A20006F8F00BF13F06AFF20B14FF0805005495F
:101A3000086001E0FFF71AFB00BF002080F3118867
:101A400000BF10BD04ED00E008B52648006840F472
:101A50007000244908602448006840F001002249D1
:101A6000086000BF2048006800F002000028F9D09C
:101A700000BF1D48406840F080001B4948600020BE
:101A8000009002E00098401C009000985028F9D384
:101A90001548406840F090001349486000200090CD
:101AA00002E00098401C009000985028F9D300BF35
:101AB0000D48406820F003000B4948600846006864
:101AC0000A490840084908604FF41F00886008462A
:101AD000006820F48020086000204860C8620AF096
:101AE00077FA08BD88ED00E000100240FFFFF6FE27
:101AF00010B51D491D480CF09AFF70B11A491B48DA
:101B00000CF08CFF1A48006838B101221749091DF2
:101B100017480068163008F090FA164913480CF080
:101B200086FF00B3134911480CF078FF1248008873
:101B30001249098888420CDA11480F490988405C2B
:101B40000A49091D08600C480088401C0A490880A1
:101B500009E040F2073105480CF046FF0020064935
:101B600008800649088010BD0503050000380140C3
:101B700050010020070307005E0100205C010020E7
:101B80006098002000BFFEE770B5144CA8212046E5
:101B9000FEF700FC03202061606111A0A0611349E1
:101BA000E1614FF4806121620021A1626162E16222
:101BB0000BA020660E4961661021A16600212167F5
:101BC000E1666167002505E0C5F10F000949085C81
:101BD00060556D1C102DF7D370BD00005889002092
:101BE0005465726D696E616C00000000008A00200F
:101BF000008E00201C6F010870B50C460346401C87
:101C0000802A00D9802203E011F8015B00F8015B13
:101C1000151EA2F1010202D00D78002DF4D10D1B8A
:101C20001D7070BD38B52849087E01226946FEF74F
:101C3000EFFF0446002C45D09DF8000005281ED07B
:101C400008DC01280FD0022810D0032811D0042866
:101C50002CD111E0062815D0072816D07F2824D0D3
:101C6000802823D114E0FFF7C9FC2AE0FFF744FDE8
:101C700027E0FFF715FA24E0FFF7A2FC21E0FFF7C9
:101C800081F81EE0FFF7C6FB1BE0FFF7B1FB18E091
:101C90000D49087E01226946FEF7BAFF04461CB1D1
:101CA0009DF80000FFF74AFB0BE00AE09DF80000FA
:101CB000802805DB0449087E01226946FEF7A8FF5B
:101CC00000BF00BF38BD0000109200200146C81DB3
:101CD000704700002DE9F04705460F46144672484C
:101CE0000078012800D10FE06F48007800B9BCE00F
:101CF0006D480078022806D100F0DCF86A480078C8
:101D0000012800D0B1E000BF202C06D26648C0698F
:101D10000121A140084000B1A7E0182C03D2681EA1
:101D20000546047078E07E1B7F2E0BD9C6F3C711E1
:101D3000681E05460170F0B240F08001681E05463D
:101D4000017002E0681E054606707F2C03D2681EF3
:101D50000546047060E0B4F5804F0BD2C4F3C711A0
:101D6000681E05460170E0B240F08001681E05461D
:101D7000017051E0B4F5001F12D2C4F38731681E20
:101D800005460170802040EAD410C1B2681E0546A5
:101D90000170E0B240F08001681E054601703BE032
:101DA000B4F1805F19D2C4F34751681E0546017033
:101DB000802040EA9430C1B2681E05460170802040
:101DC00040EAD410C1B2681E05460170E0B240F08E
:101DD0008001681E054601701EE0210F681E054641
:101DE0000170802040EA5450C1B2681E054601705F
:101DF000802040EA9430C1B2681E05460170802000
:101E000040EAD410C1B2681E05460170E0B240F04D
:101E10008001681E054601702448D0F804802248DD
:101E2000C068A8EB000A3846514605E0CAB242F045
:101E3000800200F8012BC9097F29F7D800F8011B9F
:101E400007467A1B184948782946FEF737FF81462E
:101E5000B9F1000F03D01448C0F80C8004E0124818
:101E60000078401C1049087000BF0F48007E00EB4E
:101E700040010F4800EBC100C1680B48007E00EB39
:101E800040020B4800EBC2000069081A0AD006485D
:101E9000807838B9012004498870FFF7C3FE00201C
:101EA00001498870BDE8F08710920020001000E022
:101EB000B8890020FEB501208DF800000DF1010663
:101EC00030461C4A516905E0CAB242F0800200F86F
:101ED000012BC9097F29F7D800F8011B06461648CF
:101EE00044681448C068271A3046394605E0CAB22B
:101EF00042F0800200F8012BC9097F29F7D800F8C9
:101F0000011B06466946721A0A4948786946FEF777
:101F1000D5FE054635B10748C4600078401E054926
:101F2000087004E003484069401C024948612846A3
:101F3000FEBD000010920020001000E00FB4054B21
:101F400010B503A9044A029800F042FC10BC5DF8E9
:101F500014FB000009970008600100200FB47CB555
:101F60000C0009AD01D0611E00E00021CDE90001A7
:101F7000064B6A462946089800F02AFC002C02D03D
:101F8000009A002111707CBC5DF814FBD72E00086C
:101F90000FB4084B10B504A902AA039800F018FC6E
:101FA000044602A9002000F0A1FF204610BC5DF805
:101FB00014FB0000ED2E00087CB50C001D461646F3
:101FC000014601D0601E00E00020CDE90010064B64
:101FD0006A462946304600F0FBFB002C02D0009AEE
:101FE000002111707CBD0000D72E000837B51446C3
:101FF0000846064B6A46214600F0EAFB044669465D
:10200000002000F073FF20463EBD0000ED2E0008CA
:1020100070B5D94B00242DED020B2DED108BDDE9B1
:102020001010984205DA20F000429A4201D809D1F6
:1020300041B19DED100BBDEC108B02B0BDE87040BE
:1020400000F05EBAB0F5801F26DA11430BD00028ED
:1020500013DA012000F080FABDEC108B02B0BDE86D
:10206000704000F059BA022000F076FA00F030FA21
:1020700051EC100B81F000419EE06FF035049FEDB4
:10208000C00B53EC102B9DED100B51EC100BFEF719
:1020900082FACDE91001084604EB2051C0F3130485
:1020A000B948A1F2FF31204400F4801080F07F6233
:1020B00082F04052224301EB20559FEDB50B119267
:1020C00053EC102B9DED100B51EC100BFEF75DFA4D
:1020D00041EC180BA01CC0F313009FEDAFDB9FED8C
:1020E000B0EBB14E7E4403286CD296ED000B51EC60
:1020F000180B53EC102BFEF761FB1DD1002D01BF17
:1021000096ED000BBDEC108B02B070BD2846FEF7BB
:102110005AFC41EC180B53EC1D2BFEF73CFA41EC3A
:10212000190B53EC1E2B51EC180BFEF734FA53EC41
:10213000192BFEF789F93FE09FED9D0B51EC180B31
:1021400053EC102BFEF727FA9FED9B1B53EC112B42
:10215000FEF71EFA41EC190B53EC182B51EC180B3F
:10216000FEF719FA53EC192BFEF715FA41EC190B8F
:10217000002D04BF53EC192B51EC180B1AD0284634
:10218000FEF721FC41EC1A0B53EC1D2BFEF703FA72
:1021900053EC192BFEF7FCF953EC182BFEF7F5F96D
:1021A00041EC180B53EC1E2B51EC1A0BFEF7F3F914
:1021B00053EC182BFEF7E9F9BDEC108B02B041ECA3
:1021C000100B70BD9FED7E0B51EC180B53EC102BD8
:1021D000FEF73AF941EC100B51EC180B53EC102BB5
:1021E000FEF74BFA41EC190B2846FEF7ECFB41ECED
:1021F0001B0B53EC192B51EC190BFEF7CCF941ECEE
:102200001A0B714853EC1A2B261851EC1A0BFEF7D7
:10221000C2F941EC1F0B6D48C4F1510404F5D724F9
:10222000B0EE4F0AF0EE6F0A0321784400F0D2F8C6
:1022300053EC1F2B51EC100BFEF7ADF941EC1C0BCE
:102240006348B0EE4F0AF0EE6F0A0421784400F0C4
:10225000C1F853EC1A2B51EC100BFEF79CF93443E8
:1022600053EC1C2BFEF7F0F841EC1C0B002C4CDD62
:102270009FED510B51EC180B53EC102BFEF78BF923
:1022800053EC182BFEF787F941EC1A0B55B353ECBE
:102290001D2B51EC1B0BFEF77EF941EC1D0B53EC93
:1022A0001C2B51EC1A0BFEF7CFF853EC192BFEF751
:1022B00072F953EC1D2BFEF7C7F853EC1A2BFEF7FF
:1022C00067F953EC182BFEF760F941EC180B53EC4F
:1022D0001E2B51EC1B0BFEF75EF953EC182BFEF78F
:1022E00054F969E753EC1C2B51EC1A0BFEF7ACF8D0
:1022F00053EC192BFEF74FF953EC1A2BFEF748F964
:1023000053EC182BFEF744F956E735B353EC1D2B6D
:1023100051EC1B0BFEF73FF941EC1A0B53EC1C2B55
:1023200051EC180BFEF731F953EC192BFEF733F98A
:1023300053EC1A2BFEF729F953EC182BFEF725F96D
:1023400041EC180B53EC1E2B51EC1B0BFEF723F941
:1023500053EC182BFEF719F92EE753EC1C2B51EC1C
:10236000180BFEF712F953EC192BFEF714F953EC86
:10237000182BFEF70DF91FE70000F07F00000000AA
:102380000000000000005043645F090000000000EE
:10239000000000000000F03F763C7935EF39EA3D5F
:1023A0000000E0FE422EE63F005101000000000068
:1023B000555555555555D53F000000000000E03FEC
:1023C000000000000000004086EBF9FF824F010092
:1023D000784F010070B504462DED028B4D1E00EBC9
:1023E000C500B0EE408AF0EE608A90ED000B35F04B
:1023F000060017D053EC182B51EC100BFEF7CBF85E
:1024000041EC100B6D1E04EBC50090ED001B51EC70
:10241000100B53EC112BFEF717F841EC100B35F0B5
:102420000600E7D1022D36D0042D1CD0062D1CBF8E
:10243000BDEC028B70BD53EC182B51EC100BFEF76A
:10244000AAF894ED0A1B53EC112BFDF7FDFF53EC9A
:10245000182BFEF7A0F894ED081B53EC112BFDF799
:10246000F3FF41EC100B53EC182B51EC100BFEF763
:1024700092F894ED061B53EC112BFDF7E5FF53EC9E
:10248000182BFEF788F894ED040B53EC102BFDF796
:10249000DBFF41EC100B53EC182B51EC100BFEF74B
:1024A0007AF894ED021B53EC112BFDF7CDFF53ECA2
:1024B000182BFEF770F894ED001B53EC112BFDF771
:1024C000C3FFBDEC028B41EC100B70BD000000009F
:1024D0009FED070B10B553EC102B9FED070B51EC44
:1024E000100BFEF7CAF841EC100B10BD0000000005
:1024F0000000000000000000000000000000F03FAD
:1025000010B553EC102B51EC100BFDF79DFF41EC77
:10251000100B10BD000000009FED050B10B553EC33
:10252000102B51EC100BFEF7A8F841EC100B10BD6E
:10253000000000000000000002E008C8121F08C1EF
:10254000002AFAD170477047002001E001C1121F34
:10255000002AFBD170470000014908607047000065
:10256000F40200202DE9F04113F0BEF900250446E5
:10257000012100202246A2FB016705FB017104FB3B
:10258000001534464FF47A7200212046A0FB026702
:1025900005FB027204FB0125344620462946BDE8AE
:1025A000F081000010B503A0FEF760FF0EA0FEF75B
:1025B0005DFF10BD4E3D4672656552544F53204439
:1025C000656D6F204170706C69636174696F6E2C0A
:1025D000443D436F727465782D4D342C4F3D4672E7
:1025E000656552544F530000492331353D5379738B
:1025F0005469636B00000000F8B500241DE004EB93
:102600008400104901EB8000006904EB84050E464C
:1026100006EB85050090EB6804EB840506EB850569
:10262000AA6804EB840506EB8505696804EB84055C
:1026300056F82500FFF7A0F9641C0348006884429F
:10264000DDD3F8BD1C930020040100202DE9FF5FBD
:1026500082B00021DDE90430020DDDF840B0034313
:1026600018D044F61050A2F2FF32424315141198CC
:1026700001281FD0A5EB0B00401C5FEA000A4FF0B9
:1026800000064E4FDFF83891B046504615D5CAF1D6
:10269000000413E0119801244AA3012801D16FEA34
:1026A0000B010298119AC0E90031C0E9024206B05C
:1026B000BDE8F09FCBF10000DFE704460021404A6F
:1026C000491842EB0450CDE9001012E0E00707D0B2
:1026D00032463B4640464946FDF75DFF8046894607
:1026E00032463B4610461946FDF755FF06460F4653
:1026F0006410002CEAD1DDE90401DDE90023BAF120
:10270000000F06DAFDF747FF42464B46FDF743FF51
:1027100005E0FDF7B2FF42464B46FDF7AEFF04462B
:102720000E460022284BFEF761F803D84FF0FF3029
:10273000014607E00022254B20463146FDF784FE86
:10274000FEF752F9102409E0002C0ADB0A220023CC
:10275000FEF77AF8039B30321A55641E50EA0102E4
:10276000F2D1641C039AC4F111031444119A012A92
:1027700003D0012208430DD10AE0084304D0002011
:102780004FF0110B119072E7A3EB0B056D1E0DE0DE
:102790005B4504DD4FF0000205F1010504E003DABA
:1027A0004FF00002A5F10105002AECD00298119922
:1027B000C0E90231C0E9004579E70000000014409B
:1027C0000000F03F300000000000F0430000E03F58
:1027D0002DE9FF4F95B09A46884606460025EEE162
:1027E000252877D100242746F94A0121039400E0E7
:1027F000044316F8013F203B01FA03F01042F7D1E1
:1028000030782A2811D06FF02F033078A0F13002F1
:10281000092A16D8039A44F0020402EB820203EB61
:1028200042021044761C0390EFE758F8042B039201
:10283000002A03DA504244F40054039044F00204A6
:10284000761C30782E2816D116F8010F44F00404B7
:102850002A280DD06FF02F023078A0F13003092B19
:1028600009D807EB870302EB4303C718761CF3E78D
:1028700058F8047B761C30786C280FD006DC4C2886
:1028800017D068280DD06A2814D104E0742810D01D
:102890007A280FD10DE044F400140AE044F48014C7
:1028A00001E044F440147278824202D104F58014AD
:1028B000761C761C307866280BD013DC582877D02D
:1028C00009DC002875D04528F6D04628F4D04728E2
:1028D0001AD193E118E0632835D0642879D06528AF
:1028E00012D18BE1702873D008DC6728F1D06928F9
:1028F0006FD06E280DD06F2806D1ACE073282CD095
:10290000752874D0782853D05246179990476D1C7B
:1029100054E1C4F30250022809D003280DD0D8F89E
:10292000001004280DD00D6008F1040846E1D8F825
:102930000010EA17C1E90052F6E7D8F800100D8040
:10294000F2E70D70F0E718F8041B8DF80010002076
:102950008DF80100EB46012003E058F804BB4FF06E
:10296000FF3061074FF0000102D40DE009F10101D1
:102970008946B9420FDA8145F8DB1BF809100029B6
:10298000F4D108E009F1010189468142FADB1BF824
:1029900009100029F6D103985346A0EB09072146F8
:1029A0003846179A00F080FA284400EB090507E042
:1029B00044E008E10DE01BF8010B524617999047DF
:1029C000B9F10109F7D2534621463846179AF2E089
:1029D00039E00A21C4F302524FF0000B0091022AA1
:1029E00006D058F8040BC117032A09D00AE023E0E7
:1029F00008F1070020F00702F2E80201904605E026
:102A000000B2C117042A01D140B2C117002906DA69
:102A10000A460021404261EB02012D2202E022051C
:102A200004D52B228DF80420012203E0E20701D017
:102A30002022F7E7914657E00A2100E010214FF0ED
:102A4000000B00910BE010214FF0000B44F0040448
:102A50000827009103E008204FF0000B0090C4F31A
:102A60000252022A05D058F8040B0021032A08D08C
:102A700008E008F1070020F00702F2E802019046A2
:102A800003E080B2042A00D1C0B24FF0000922074F
:102A90002AD53278702A07D0DDF800C08CF0100CEF
:102AA0005CEA0B0C05D00EE040228DF804200122D8
:102AB00008E050EA010306D030238DF804308DF889
:102AC000052002229146009B83F0080353EA0B0382
:102AD0000AD150EA010201D1620705D530228DF8F2
:102AE00004204FF001097F1E3278582A04D039A201
:102AF0000C920CAA02920BE03BA2F9E75B46009A0B
:102B0000FDF7A2FE0C9B9B5C029A521E0292137070
:102B100050EA0102F2D1029804A9081A00F1200B30
:102B2000600702D524F4803400E001275F4502DD10
:102B3000A7EB0B0000E0002000EB0B0100900398D6
:102B40004944401A0390E00306D453462146179A9D
:102B5000039800F0A9F90544002706E001A85246B1
:102B6000C05D179990476D1C7F1C4F45F6DBE00355
:102B70000CD553462146179A039800F095F9054461
:102B800004E030205246179990476D1C0099481E6A
:102B900000900029F5DC08E002980299524600787E
:102BA000491C0291179990476D1CBBF10001ABF1D4
:102BB000010BF1DC5BE100F065F90544761C30782F
:102BC00000287FF40DAE19B02846BDE8F08F000054
:102BD00009280100303132333435363738396162F3
:102BE00063646566000000003031323334353637B7
:102BF000383941424344454600000000600700D494
:102C0000062708F1070020F00700F0E802238046BD
:102C100003F0004C5FEA0C0001D097A009E020050A
:102C200001D596A005E0E00701D095A001E0AFF244
:102C30004C001390307823F0004365280CD006DC5C
:102C4000452809D046281DD047287FD13BE066287B
:102C500018D067287AD136E00021112F01DB11202E
:102C600000E0781CCDE9000104A90CA8FFF7EEFCF8
:102C7000DDE90D010C9A4FF0000B07F101091092EC
:102C800000914EE04FF000400097CDE9011004A9FB
:102C90000CA8FFF7DBFCDDE90D020C9B0F994FF050
:102CA000000B91461093009211B9791C00EB0109B9
:102CB000B7EB090003D4C0F1FF3B07F10109A9EB11
:102CC0000700019042E0012F00DA01270021112FB7
:102CD00001DD112000E03846CDE9000104A90CA86F
:102CE000FFF7B4FCDDE90D010C9A00914FF0000BE9
:102CF000B946109221070FD4009A4A4503DA91464B
:102D000001E0A9F10109B9F1010F05DD109AA9F15E
:102D10000101515C3029F4D0B84202DA10F1040FFD
:102D200003DA0121CDE9011010E0002803DC83441F
:102D3000A9EB000102E0411C494500DD8946A0EBFA
:102D40000B00401C01904FF000400290200705D47A
:102D50000198484502DB4FF0FF30019000208DF8CC
:102D60004B0002980DF14B07B0F1004F25D0022027
:102D70000C902B200D90029800280CDA4042029013
:102D80002D200D9007E00A210298FDF747FD303114
:102D9000029007F8011D0C99481E0C900029F2DCE6
:102DA00002980028EFD1791E0D980870307800F055
:102DB000200040F0450007F8020D11A8C01BC01DFF
:102DC00002901398007800B1012000EB09010198EE
:102DD00001EBE071029801440398401A401E0390F1
:102DE000E00306D453462146179A039800F05CF896
:102DF00005441398007818B15246179990476D1CF6
:102E0000E00323D553462146179A039800F04CF867
:102E100005441BE0BBF1000F07DB0098584504DDBB
:102E20001098179910F80B0001E0179930205246BE
:102E3000904701980BF1010B401E05F1010501902F
:102E400004D12E205246179990476D1CB9F100010C
:102E5000A9F10109DEDC05E017F8010B52461799CC
:102E600090476D1C0299481E02900029F4DC5346DD
:102E70002146179A03989EE62D0000002B000000C3
:102E8000200000002DE9F041044600251E461746AB
:102E9000880404D405E039462020B0476D1C641E28
:102EA000F9D52846BDE8F0812DE9F041044600251A
:102EB0001E469046C80301D5302700E0202788042D
:102EC00004D505E041463846B0476D1C641EF9D56F
:102ED0002846BDE8F0814A68002A06D00A68531CDB
:102EE0000B6010704868401E486070470A68531CA9
:102EF0000B6010707047816841F00801816000BF6D
:102F0000816801F008010029FAD1816841F00401CB
:102F1000816000BF816801F004010029FAD1704787
:102F200030B5012902D002291AD10CE0C36A23F47A
:102F30007003C362C36A541E4FF4700505EA04545B
:102F40002343C3620DE0836B23F440138363836BDD
:102F5000541E4FF4401505EA04542343836300E0F4
:102F600000BF00BF30BD000010B5002000F0CAF85F
:102F7000012202213A4800F038F9012211023848B2
:102F800000F033F90021364800F06CF80C220121E2
:102F90003348FFF7C5FF072300221146304800F0F1
:102FA000BFF80723012211462D4800F0B9F8072386
:102FB000022211462A4800F0B3F807230622032113
:102FC000274800F0ADF807231A460421244800F0F2
:102FD000A7F8072308220521214800F0A1F80723BC
:102FE000092206211E4800F09BF807230A221946F1
:102FF0001B4800F095F807230B220821184800F021
:103000008FF807230D220921154800F089F80723BE
:103010000E220A21124800F083F807230F220B2109
:103020000F4800F07DF84FF4602201210C4800F0B9
:1030300051F8012211460A4800F02DF8084800F026
:103040001CF8074800F01EF8012004F08FFC04482B
:10305000FFF751FF0121024800F0B8F810BD000051
:103060000024014021B1826842F40062826003E0E2
:10307000826822F4006282607047816841F4807146
:1030800081607047816801F0010119B9816841F0E0
:1030900001018160704772B101F001031BB18368C7
:1030A00043F48013836001F0020393B1836843F417
:1030B000004383600DE001F001031BB1836823F43A
:1030C0008013836001F002031BB1836823F4004383
:1030D00083607047012902D0022910D107E083687C
:1030E00023F46023836083681343836008E083686C
:1030F00023F4E043836083681343836000E000BFF0
:1031000000BF70470549096821F47021034A116026
:103110001146096801431160704700000424014012
:10312000F0B51D4606290CD2436B01EB81071F2623
:10313000BE40B34301EB810602FA06F63343436314
:1031400022E00C290ED2036B8E1F06EB86071F268A
:10315000BE40B3438E1F06EB860602FA06F63343E3
:10316000036311E010290FD2C36AA1F10C0606EB2C
:1031700086071F26BE40B343A1F10C0606EB860668
:1031800002FA06F63343C3620A2A0CD2046902EB40
:1031900042070726BE40B44302EB420605FA06F694
:1031A0003443046111E0122A0FD2C468A2F10A0666
:1031B00006EB46070726BE40B443A2F10A0606EB1B
:1031C000460605FA06F63443C460F0BD01F001027C
:1031D0001AB1826842F48002826001F002021AB1E0
:1031E000826842F4001282607047AAB101F48073D1
:1031F0001BB1436843F48073436001F480631BB1E7
:10320000436843F48063436001F00203CBB18368F9
:1032100043F00203836014E001F480731BB1436840
:1032200023F48073436001F480631BB1436823F48B
:103230008063436001F002031BB1836823F0020343
:10324000836070472DE9F84306460F4614464FF059
:1032500000084FF00409FF2249466846FDF793F83D
:1032600024F003052DB12A463946304605F086F88C
:103270008046651BB8F1000F0FD175B124F0030033
:10328000C1192A466846FDF75EF824F00301881943
:103290004A46694605F072F880464046BDE8F88324
:1032A00013B586B004464FF0FF300590002004901F
:1032B0000390184903AB04AACDE90010014620464B
:1032C00008F0D4FC039848B10120134905AB07AAC4
:1032D000CDE900100221204608F0C8FC0498B0B1E6
:1032E0000598401C98B90498012802D80B4800782A
:1032F00050B10120084905AB07AACDE900100146ED
:10330000204608F0B3FC02E001200449087005984B
:1033100008B010BDCDBC0008213300089500002086
:1033200070B503460C461546187880B118692668B2
:10333000B0420CD99878012805D09878022806D197
:103340000448007818B958692860012070BD002031
:10335000FCE70000950000201CB50CF003F90548BF
:10336000012100234022CDE9001003A1044812F0FE
:103370007FF91CBD9002002042757A5461736B0086
:1033800071F5000810B50446082C2FD2DFE804F0D0
:103390002E040A10161C222800226421012002F0AB
:1033A00025FD24E064221146022002F01FFD1EE0EC
:1033B00064221146032002F019FD18E00022C82102
:1033C000012002F013FD12E0C8221146022002F093
:1033D0000DFD0CE0C8221146032002F007FD06E0B7
:1033E000C8221146052002F001FD00E000BF00BF29
:1033F000012010BD01468A20087088204870B42042
:10340000488001207047000070B504469D48007850
:10341000062805D09B480078042801D0002070BD04
:103420009948007808BB082C0CD004DC022C07D08B
:10343000052C18D105E00B2C05D00E2C13D103E080
:1034400000BF00BF00BF00BF0021012000F0C6FC8C
:103450008E4840894FF6FF7108438C49488101200E
:103460008B490870DBE70020D9E78848407C0128B9
:1034700005D1012C03D0022C01D00020CFE78348D6
:103480000078112806D1022C02D102F097F8C6E785
:103490000020C4E7012C01D10020C0E77B48007860
:1034A000C01E07287ED2DFE800F0043D3E3F406AA0
:1034B000BE00082C14D006DC022C19D0042C20D01D
:1034C000052C2CD104E00B2C0ED00E2C27D103E0C0
:1034D000002001F097FFA2E7012001F093FF9EE793
:1034E000002002F029F89AE7012002F025F896E77B
:1034F0006649087A04F0E6FC0546002100F0E0F891
:103500008DE7002061490872C8710220C870002050
:10351000887348735FA00FF09DFB01207FE700BF19
:1035200000BFACE000BF00BF00BF082C14D006DC19
:10353000022C19D0042C1BD0052C1DD104E00B2C1F
:103540000ED00E2C18D103E0002001F0CBFD66E771
:10355000012001F0C7FD62E7002001F06FFF5EE788
:10356000012001F06BFF5AE7012001F0BBFD56E797
:10357000002002F00FF852E700BF00BF7FE0A01E5E
:103580000D284DD2DFE800F02D4C3F074C4C254C68
:103590004C294C4317003D48007C012807D13B498A
:1035A000887B00E06AE0002101F0B0FE37E70020F0
:1035B00001F028FF33E73548007C012805D1334965
:1035C000887B012101F0A2FE29E7012001F01AFF0A
:1035D00025E7002001F032FF21E7012001F02EFF56
:1035E0001DE72A48007C08B9012000E00020274997
:1035F0000874097C09B129A100E02BA108460FF04D
:1036000029FB01200BE7002001F0C4FF07E71F485A
:10361000C07D012801D10FF08BFD01F05FFFFEE6B8
:1036200000BF00BF2BE0082C14D006DC022C19D000
:10363000042C1CD0052C1ED104E00B2C0ED00E2C1B
:1036400019D103E0002001F007FDE8E6012001F0B8
:1036500003FDE4E6002001F0F1FEE0E6012001F0C8
:10366000EDFEDCE613A00FF0F5FA0120D7E600200E
:1036700001F090FFD3E600BF00BF00E000BF00BF35
:103680000020CCE628950020A8020020EC9B00201A
:10369000B0020020484F4D45000000004544495409
:1036A0002043414348450000434143484520484F9B
:1036B0004C440000414443204649454C440000002E
:1036C0002DE9F04104460D460026002724B1334879
:1036D0000078A04203D115B90020BDE8F081082C84
:1036E00009D12E480078112805D12C4890F82000E7
:1036F000082800D101272948007828494870084641
:10370000C0780871084604700020887008740FF0B3
:103710007FFD4FF6FF7021494881204604F00BFCE5
:103720001E494871032C0AD10020887188734873A0
:103730000846067A007AC8710FF058FA22E020464F
:1037400001F0A4FE60B1204604F0E0FB13490872CA
:103750000846007AC871002088734873002611E07B
:10376000082C08D100200D498873487300264FB9F2
:103770000FF0BEFC06E0092C04D100200749887335
:1037800048730026032E00D90326B01C0349C870D5
:1037900001200349087000BF9FE70000EC9B002058
:1037A000B00200201CB51E481E4B0C2208210090C0
:1037B0001D4803F012F8002815DC1C480078C0F3FF
:1037C000401020B919480078C0F3C00048B118A0D3
:1037D0002221214B21A2CDE900102BA1012004F0D0
:1037E000CDFE00201CBD10480068002815D10F48F0
:1037F0000078C0F3401020B90C480078C0F3C00036
:1038000048B123A02921144B14A2CDE900101EA118
:10381000012004F0B3FE0020E4E70120E2E700000D
:1038200099140108955A0008C002002034010020B4
:1038300062446973705461736B3A74704469737055
:103840005461736BC8CECEF1B6D4CFF3B3F5CABC16
:10385000BBAFCAA7B0DC00005471010848617264B4
:10386000776172655C4D445F446973706C61795C2B
:103870006D645F646973706C61795F71756575659E
:103880005F7461736B2E63004E4F5F5441470000BD
:1038900062446973705461736B3A747044697370F5
:1038A0005461736BC8CECEF1B6D4CFF3B4B4BDA817
:1038B000CAA7B0DC0000000030B58BB0204A07CAB0
:1038C00008AB07C307F01AFE044608A91DA00BF0B9
:1038D000A1FE1FA00BF0A6FE1F49204809F026F903
:1038E0001FA318221A211D4809F0A6F81F491B48DA
:1038F00009F01CF962891EA102A8FEF749FB02AB80
:1039000024222221154809F097F80A2064232A224C
:103910000E210090114808F0F6FD608900EB400090
:1039200040016421B0FBF1F0C5B206202B462C22E9
:1039300010210090094808F09EFD00200BB030BD1A
:103940007C71010850313020424F4F54494E47009E
:10395000424F4F5400000000B8670108589B0020F8
:10396000426F6F74696E672E2E2E00006C64010822
:10397000494E4954202575252500000010B58AB010
:103980004A48007864280AD248480078801C474991
:10399000087008460078642801D9642008704348FC
:1039A00000786A2110FB01F06421B0FBF1F0C4B291
:1039B00040238022002108460BF01EFE04203E21F9
:1039C0007E230122CDE900101146394808F08EFF10
:1039D0000A207023062208210090354808F04BFD8C
:1039E0000021334809F09AF83249314809F09EF82D
:1039F00031A30E222E212E4809F01EF801212C4859
:103A000009F08CF82E492A4809F090F82DA31D22C0
:103A10001F21274809F010F82649254809F086F8A3
:103A20002CA230A102A8FEF7B3FA02AB2722142180
:103A30001F4809F001F82DA230A102A8FEF7A8FA4C
:103A400002AB302214211A4808F0F6FF2D4BA3F1E7
:103A500020022DA102A8FEF79BFA02AB38220A2110
:103A6000134808F0E9FF04206C233A220A21009051
:103A70000F4808F048FD64B1022000906A2C01D97B
:103A80006A2000E0204603463B220B21084808F04C
:103A9000F2FC06480078642805D30020034908702A
:103AA00001200AB010BD0020FBE70000C802002082
:103AB000589B00206C640108494E495400000000E6
:103AC000B8670108536D617274466973684A617220
:103AD000000000004C6974655F5665725F315F31AC
:103AE0005F30000053572025730000004C69746557
:103AF0005F5665725F315F305F30000048572025A8
:103B000073000000EC940020257320257300000052
:103B100010B500240DF09AFD2848007812283FD2F5
:103B2000DFE800F03E090D1114171A1D292C20237F
:103B3000262F3235383BFFF721FF044633E0FFF7ED
:103B4000BBFE04462FE00EF06DFB2CE00EF0FCFBFC
:103B500029E00EF04BFA26E00EF04CFF23E00EF0C9
:103B600063FC20E00EF008F91DE00DF07FFE1AE086
:103B70000EF06EF817E00EF03BFE14E00DF0FEFEC6
:103B800011E00EF08FFD0EE00BF00CFF0BE00BF0E0
:103B900037FE08E00EF0D2FE05E00BF091FE02E0E9
:103BA0000EF040FB00BF00BF0BF022FE00200349D7
:103BB000488103490870204610BD0000EC9B00209E
:103BC000B002002010B5044646488078A04216D0C6
:103BD0004448847020460BF0C7FD42488078012895
:103BE0000ED141480078C0F3401028B93E48007813
:103BF000C0F3C000002872D03CA007F0B9FF6EE00F
:103C00003848807802280ED137480078C0F3401039
:103C100028B935480078C0F3C00000285FD03CA028
:103C200007F0A6FF5BE02F48807803280ED12E48CE
:103C30000078C0F3401028B92B480078C0F3C000CA
:103C400000284CD03BA007F093FF48E0254880783F
:103C500004280ED124480078C0F3401028B9224827
:103C60000078C0F3C000002839D03AA007F080FFE8
:103C700035E01C48807805280ED11B480078C0F339
:103C8000401028B918480078C0F3C000002826D09A
:103C900038A007F06DFF22E01248807806280DD189
:103CA00011480078C0F3401020B90F480078C0F3E5
:103CB000C000A0B138A007F05BFF10E00948807891
:103CC00007280CD108480078C0F3401020B90648F6
:103CD0000078C0F3C00010B137A007F049FF012001
:103CE00010BD0000A8020020340100206244697366
:103CF000705461736B3ACFD4CABEC8CECEF1D7B47C
:103D0000CCACCEAAB3F5CABCBBAF0D0A0000000014
:103D100062446973705461736B3ACFD4CABEC8CE23
:103D2000CEF1D7B4CCACCEAAB9D8B1D5D6D00D0A85
:103D30000000000062446973705461736B3ACFD421
:103D4000CABEC8CECEF1D7B4CCACCEAAB9D8B1D504
:103D50000D0A000062446973705461736B3ACFD4EA
:103D6000CABEC8CECEF1D7B4CCACCEAAB4EDCEF399
:103D70000D0A000062446973705461736B3ACFD4CA
:103D8000CABEC8CECEF1D7B4CCACCEAAC6F4B6AFBC
:103D9000D6D00D0A0000000062446973705461734C
:103DA0006B3ACFD4CABEC8CECEF1D7B4CCACCEAA73
:103DB000B9A4D7F70D0A00006244697370546173A7
:103DC0006B3ACFD4CABEC8CECEF1D7B4CCACCEAA53
:103DD000C9FDBCB6C4A3CABD0D0A000070B5044637
:103DE0000D4614B1012C01D104E021E01D480078FA
:103DF000E8B900BF1B48007850B901200BF066FEFF
:103E0000194991F86E000BF057FE01201749087010
:103E1000012014490870012D01D10020888011482B
:103E20008088D8B10F4880880E49C88016E000BF4E
:103E30000C48007830B10BF0D7FB0BF0D9FC002018
:103E40000BF044FE0020074908700846808810B136
:103E500008468088C88001200449087000BF00BF60
:103E6000012070BDA8020020AC940020B002002008
:103E70001CB50EF00DFF0BF0DBFBFFF793FC08B950
:103E800000201CBD054802210023CA01CDE9001015
:103E900003A1064811F0ECFB0120F2E7A402002088
:103EA000446973705461736B0000000005FB0008E7
:103EB00070B505461648007810B91648847801E0B8
:103EC00015480478012D06D1042C02DA601CC4B216
:103ED00007E0002405E0002C02DD601EC4B200E013
:103EE00004240D4804700120094908700A4800782C
:103EF0000AF09AFC074908800846018800200FF064
:103F000071FA0448018801200FF06CFA012070BD9D
:103F1000D9020020D4020020DA0200202DE9F04767
:103F200005460E464FF00008701B401C4FEAD02992
:103F3000A5F10060C70A24480078C0F3800028B1CA
:103F400033462A46394621A007F012FE05F028FB29
:103F500040F2053005F08CFA4FF4417005F088FA14
:103F600040F2023005F084FA002420E04FF40061B2
:103F700001FB045005F0A2FA48B913480078C0F3D9
:103F8000800078B139191DA007F0F2FD0AE04FF06A
:103F900001080D480078C0F3800018B139191EA03F
:103FA00007F0E6FD40F2073005F062FA641C4C456C
:103FB000DCD305F06DFAB8F1000F02D00020BDE8A7
:103FC000F0870120FBE7000034010020624F70659C
:103FD00072466C6173683A457261736525642C6141
:103FE0006464726573733A30782530325820746F88
:103FF00020307825303258200D0A0000624F70655D
:1040000072466C6173683ABFAACABCB2C1B3FDB54F
:10401000DA2564D2B30D0A00624F706572466C6196
:1040200073683AB5DA2564D2B3B2C1B3FDCAA7B09A
:10403000DC0D0A002DE9F04107460C4615462148E3
:104040000078C0F3800010B11FA007F091FD05F0CB
:10405000A7FA4FF000080BE03846216805F0C2FAD5
:1040600010B10020BDE8F0813F1D241D08F10108BA
:10407000B8EB950FF0D305F0030686B12088C6F1A2
:1040800004024FF0FF31D14008401FFA80F841464A
:10409000384605F0A7FA08B10020E3E700BF40F278
:1040A000073005F0E5F905F0F3F906480078C0F3AC
:1040B000800028B10AA007F05BFD0EA007F058FDB4
:1040C0000120CFE7340100200D0A2073746172745F
:1040D00020777269746520464D43200A0000000075
:1040E0000D0A577269746520636F6D706C65746535
:1040F000210A00000D0A00000120704730B5034678
:1041000007E013F8014B11F8015BAC4201D000202D
:1041100030BD101EA2F10104E2B2F2D10120F7E796
:104120001CB50BF0CEFD064801210023C022CDE9CD
:10413000001004A1064811F09BFA01201CBD0000EC
:10414000D002002062486561744D616E6167650050
:10415000A9FD00080148007870470000DB0200203C
:1041600010B504460C48047000F0B0FA18B90B48BA
:10417000007804280DD108480078012802D14FF4B6
:104180007A7000E0002006490880084600880FF099
:104190003BF9012010BD0000DB0200202895002023
:1041A000E002002010B50349097881F00100FFF713
:1041B000D7FF10BDDB0200200448806800F4805067
:1041C00008B9012070470020FCE700000010014002
:1041D0000448806800F4805008B90120704700202E
:1041E000FCE70000001001400448806800F4005023
:1041F00008B9012070470020FCE7000000100140D2
:104200000448806800F4005008B90120704700207D
:10421000FCE70000001001400448806800F4804082
:1042200008B9012070470020FCE7000000100140A1
:104230000448806800F4804008B9012070470020DD
:10424000FCE70000001001400448006800F0040092
:1042500008B9012070470020FCE700000814014065
:104260000448006800F0040008B9012070470020ED
:10427000FCE70000081401400448806800F4004096
:1042800008B9012070470020FCE700000010014041
:104290000448806800F4004008B9012070470020FD
:1042A000FCE700000010014010B50446012C06D1C7
:1042B0000848807B60B902200649887308E0002026
:1042C0000449887300231A46194618460FF0B2FBBA
:1042D000012010BD109D00200146144890ED050AF4
:1042E000F0EE000AB4EEE00AF1EE10FA05DD104837
:1042F0000088884201DA00207047B1F57A7F01DA40
:10430000084601E04FF47A70094A10801046008890
:10431000084A106006480088002801DD062000E0F9
:104320000320034AD0700120E6E70000F89A00203D
:10433000E20200203804004010B503460024012B9F
:1043400006D0022B07D0032B08D0042B0CD108E099
:104350004FF496740AE04FF4167407E04FF4487473
:1043600004E04FF47A7401E0002400BF00BF03486A
:1043700083702046FFF7B0FF10BD0000E20200206E
:1043800000200549088088700320C8700020034978
:104390000860012070470000E2020020380400405D
:1043A0000348008808B1002070470120FCE70000A6
:1043B0005C01002010B504460CB9002010BDB4F516
:1043C000807F01DD4FF4807422460A490A4805F0D7
:1043D000B3FD0A49088000200949088009490A48B4
:1043E0000AF01CFB40F2073107480AF00AFB0120E3
:1043F000E4E7000060980020489500205C01002060
:104400005E010020070307000038014038B5012491
:1044100009480A4B220208210090094802F0DDF900
:104420000446002C01DC002038BD0548006808B9AE
:104430000020F9E70120F7E771140108DD590008B1
:104440004801002010B56423EF224FF48071054825
:1044500002F07DF80446002C01DC002010BD012094
:10446000FCE700005001002010B50024154800684A
:1044700008B9002010BD1448006808B90020F9E709
:10448000FFF78EFF08B90020F4E700210E4800680E
:1044900010F098FF012813D10C4805F028FD0C49B5
:1044A00008800846008820B108460088FFF782FF90
:1044B000044600231A4619460348006810F006FD1A
:1044C0002046D7E74C0100204001002048950020FD
:1044D0004401002010B5EF224FF48071044802F02F
:1044E00087F80446002C01DC002010BD0120FCE709
:1044F0004C0100201CB5FFF7A5FF08B900201CBD2A
:10450000FFF7E8FF08B90020F9E7FFF77FFF08B9D8
:104510000020F4E74FF400720849094805F0FEFC5A
:1045200001F098F80748012100238A02CDE9001024
:1045300005A1084811F09CF80120E0E760950020F3
:1045400048950020380100205072696E74546173E0
:104550006B000000CD0901080146144890ED060AE1
:10456000F0EE080AB4EEE00AF1EE10FA05DD1048AC
:104570000088884201DA00207047B1F57A7F01DABD
:10458000084601E04FF47A70094A1080104600880E
:10459000084A106006480088002801DD062000E077
:1045A0000320034AD0700120E6E70000F89A0020BB
:1045B000E6020020342C014010B503460024012BF4
:1045C00006D0022B07D0032B08D0042B0CD108E017
:1045D0004FF496740AE04FF4167407E04FF44874F1
:1045E00004E04FF47A7401E0002400BF00BF0348E8
:1045F00083702046FFF7B0FF10BD0000E6020020E8
:1046000010B50CF027FA00200449088088700320B8
:10461000C870002002490860012010BDE602002099
:10462000342C014000B500F041F830B900F03CF8FE
:1046300018B90448C07B062801DB012000BD00201A
:10464000FCE70000109D002010B5044600F030F893
:1046500018B90D480078012813D10B48C078C0F371
:10466000800070B900220121204602F01DF90748A0
:10467000007800F0010010B105A007F079FA0120E0
:1046800010BD0020FCE70000289500203401002028
:10469000625379735461736B3ABFAAC6F4B3E4B53D
:1046A000E7BBBDD0D10D0A00002070470020704745
:1046B00005480078022803D003480078032801D178
:1046C000012070470020FCE728950020054800786D
:1046D000052803D003480078062801D1012070473F
:1046E0000020FCE72895002001464FF41670A1F841
:1046F000030041204870F62088704FF4C870A1F87C
:104700000500002008700120704700001CB51D48FE
:104710001D4B0C22082100901C4802F05EF8002876
:1047200015DC1B48007800F0010020B9184800781B
:10473000C0F3C00048B117A02121204B20A2CDE931
:10474000001028A1012003F019FF00201CBD0F4814
:104750000068A8B90E48007800F0010020B90C48A4
:104760000078C0F3C00048B120A02821134B14A248
:10477000CDE900101BA1012003F000FF0020E5E7B8
:104780000120E3E749140108A95600082801002088
:1047900034010020625379735461736B3A7470531F
:1047A00079735461736BC8CECEF1B6D4CFF3B3F541
:1047B000CABCBBAFCAA7B0DC00000000C46F0108D0
:1047C0004170706C69636174696F6E5C5379735C7E
:1047D0007379735F71756575655F7461736B2E6353
:1047E000000000004E4F5F54414700006253797350
:1047F0005461736B3A74705379735461736BC8CEA0
:10480000CEF1B6D4CFF3B4B4BDA8CAA7B0DC0000D3
:1048100000B502460348A0F80D200CF0A7F90120CE
:1048200000BD00002895002070B504460D46534891
:104830000078A0420DD0514804700078012809D1B9
:104840004F48007800F001000028F3D04DA007F099
:104850008FF98DE049480078022814D151488078BA
:10486000022806D000231A4602214F48006801F0B2
:10487000E3FE4348007800F00100002878D04BA008
:1048800007F076F974E03D480078032814D14548D4
:104890008078032806D000231A4603214248006886
:1048A00001F0CAFE3648007800F0010000285FD011
:1048B00046A007F05DF95BE030480078042814D189
:1048C00038488078042806D000231A460421364848
:1048D000006801F0B1FE2A48007800F001000028CD
:1048E00046D042A007F044F942E024480078052869
:1048F0001AD101200BF03AFA2A488078052806D010
:1049000000231A4605212848006801F095FE012081
:104910000CF027F91A48007800F00100002827D091
:104920003AA007F025F923E014480078062813D1AF
:104930001C488078062806D000231A4606211A480B
:10494000006801F079FE0E48007800F0010078B1AF
:1049500036A007F00DF90BE008480078072807D1CA
:104960000748007800F0010010B138A007F000F906
:1049700015B10420FEF706FD012070BD289500202A
:1049800034010020625379735461736B3ACFB5CD13
:10499000B3C8CECEF1D7B4CCACCEAAB3F5CABCBBAB
:1049A000AF0D0A00A8020020C002002062537973F4
:1049B0005461736B3ACFB5CDB3C8CECEF1D7B4CC7A
:1049C000ACCEAAB9D8B1D5D6D00D0A00625379734E
:1049D0005461736B3ACFB5CDB3C8CECEF1D7B4CC5A
:1049E000ACCEAAB9D8B1D50D0A00000062537973D4
:1049F0005461736B3ACFB5CDB3C8CECEF1D7B4CC3A
:104A0000ACCEAAB4EDCEF30D0A0000006253797368
:104A10005461736B3ACFB5CDB3C8CECEF1D7B4CC19
:104A2000ACCEAAC6F4B6AFD6D00D0A0062537973E5
:104A30005461736B3ACFB5CDB3C8CECEF1D7B4CCF9
:104A4000ACCEAAB9A4D7F70D0A000000625379735F
:104A50005461736B3A2D2D2D2DB8FCD0C2CFB5CD3E
:104A6000B3C8CECEF1D7B4CCACCEAAC9FDBCB6C4C7
:104A7000A3CABD2D2D2D2D0D0A0000007FB50446C3
:104A80000D468948007800F0010028B98648007872
:104A9000C0F3C000002870D084480078A04203D141
:104AA00083480078A842F6D082484078C0F380005E
:104AB00088B107F0B9F80A2190FBF1F67EA04FF417
:104AC0009B61844B84A2CDE90106009189A101205C
:104AD00003F054FD91E077484078C0F3C00088B1FE
:104AE00007F0A2F80A2190FBF1F684A040F2DA4127
:104AF000784B79A2CDE9010600917EA1012003F057
:104B00003DFD7AE06B48407800F0010078B16948DB
:104B1000B0F9110080A140F2DC426E4BCDE90021DA
:104B200002906DA273A1012003F028FD65E06148A9
:104B30004078C0F3400078B15E48B0F913007DA121
:104B400040F2DE42634BCDE90021029062A269A1EE
:104B5000012003F013FD50E056484078C0F30010E8
:104B600060B17BA04FF49C615A4B5BA2CDE9001071
:104B700060A1012003F002FD3FE042E04D48407893
:104B8000C0F3401058B177A040F2E241514B52A21D
:104B9000CDE9001057A1012003F0F0FC2DE04548BD
:104BA0004078C0F3C01058B173A040F2E441494BC3
:104BB00049A2CDE900104FA1022003F0DFFC1CE068
:104BC0003C484078C0F3801058B175A040F2E641EF
:104BD000404B41A2CDE9001046A1022003F0CEFCDB
:104BE0000BE078A04FF49D613A4B3BA201AE31C679
:104BF000009140A1012003F0C1FC2C4804702C4816
:104C00000570002C16DD55B12A48B0F80100611E70
:104C100001228A4010432749A1F801000EE02548EF
:104C2000B0F80100611E01228A4090432149A1F899
:104C3000010003E000201F49A1F801001D48B0F861
:104C4000010088B11B484078C0F3C00020B9194862
:104C50004078C0F3401020B300232246042161486D
:104C6000006801F0E9FC1CE012480078042818D123
:104C700001210620FFF7D8FD0B48007800F0010065
:104C800020B909480078C0F3C00050B156A040F2E6
:104C90000751104B10A2CDE9001016A1032003F01C
:104CA0006DFC002004B070BD340100202301002001
:104CB0002401002028950020625379735461736B9E
:104CC0003ACAE4C8EBB9FDD1B920B5E7D1B93D2561
:104CD00064560000B46F01084170706C69636174C0
:104CE000696F6E5C5379735C7379735F7461736B16
:104CF0002E6300004E4F5F544147000062537973AA
:104D00005461736B3ACAE4C8EBC7B7D1B920B5E7B1
:104D1000D1B93D2564560000625379735461736BB9
:104D20003ACFB5CDB3B9FDCEC2202564C9E3CACF11
:104D3000B6C80000625379735461736B3ACFB5CD36
:104D4000B3B5CDCEC22C2564C9E3CACFB6C8000026
:104D5000625379735461736B3ACFB5CDB3B9FDD457
:104D6000D8000000625379735461736B3A534F4318
:104D7000203D203025000000625379735461736B2D
:104D80003AC6F4B6AFC8CECEF1B5C8B4FDB3ACCA1E
:104D9000B12CBFAACABCB9D8B1D5CFB5CDB300002C
:104DA000625379735461736B3AB9D8B1D5CFB5CD2D
:104DB000B3C8CECEF1B5C8B4FDB3ACCAB12CCDCB1F
:104DC000B3F60000625379735461736B3ACFB5CD7B
:104DD000B3B4EDCEF320B4FAC2EB256420C0E0D02A
:104DE000CD25640028010020625379735461736BF0
:104DF0003AC7E5B3FDB4EDCEF32CD6D8D0C2BDF89A
:104E0000C8EBB9A4D7F7D7B4CCAC000070B5054651
:104E10000C4635B1012D1ED0022D36D0032D7DD18B
:104E20004DE05048C07800F00100A04212D04E483A
:104E3000007800F0010038B14A48C07800F0010263
:104E400021464AA006F094FE4648C07864F300006C
:104E50004449C87083E04348C078C0F34000A04292
:104E600012D04148007800F0010038B13D48C078C8
:104E7000C0F34002214649A006F07AFE3948C078C6
:104E800064F341003749C87069E03648C078C0F320
:104E90008000A04212D03448007800F0010038B100
:104EA0003048C078C0F38002214648A006F060FE7A
:104EB0002C48C07864F382002A49C8704FE0294822
:104EC000C07800F00100A04212D02748007800F01E
:104ED000010038B12348C07800F00102214623A028
:104EE00006F046FE1F48C07864F300001D49C870F4
:104EF0001C48C078C0F34000A04214D01A48007883
:104F000000F0010038B11748C078C0F340022146D4
:104F100022A006F02DFE1348C07800E01DE064F3E7
:104F200041001049C8700F48C078C0F38000A0420B
:104F300012D00D48007800F0010038B10948C0785F
:104F4000C0F38002214621A006F012FE0548C07879
:104F500064F382000349C87001E0002070BD00BF07
:104F60000120FBE72895002034010020625379736B
:104F70005461736B3AC9E8D6C3B3E4B5E7D0EDBF6B
:104F8000C93A20C9E8D6C33D256420B5B1C7B0D71A
:104F9000B4CCAC3D2564200D0A0000006253797347
:104FA0005461736B3AC9E8D6C3B7C5B5E7D0EDBF56
:104FB000C93A20C9E8D6C33D256420B5B1C7B0D7EA
:104FC000B4CCAC3D2564200D0A0000006253797317
:104FD0005461736B3AC9E8D6C3C7BFD6C6B9D8BB4C
:104FE000FA3A20C9E8D6C33D256420B5B1C7B0D789
:104FF000B4CCAC3D2564200D0A00000002460AB97D
:105000000020704721B1012908D002291ED10EE0ED
:10501000022050720020A2F80F0018E0B2F813002E
:105020004FF4FA6393FBF0F0A2F80F000FE00F3299
:1050300090884FF47A7393FBF0F01080908842F2DE
:10504000107393FBF0F050800F3A00E000BF00BFF8
:1050500051750120D5E7000010B50446012C0CD194
:105060001748C07B022804D21548C07B401CC0B240
:1050700000E000201249C8730AE01148C07B20B14B
:105080000F48C07B401EC0B200E002200C49C8732C
:1050900000200EF01BF80A48C07B10B1012808D18F
:1050A00003E008A00DF0D6FD07E009A00DF0D2FD49
:1050B00003E009A00DF0CEFD00BF00BF012010BD30
:1050C000EC9B00204144432054454D50000000001B
:1050D0004144432050575200414443204C494748E3
:1050E0005400000010B504462E480078042806D06D
:1050F00005281AD0062838D007284ED141E0294883
:10510000807B30B90BF0C8F927A00DF0A3FD01207A
:1051100010BD2449897B012901D126A100E028A1E5
:1051200008460DF097FD0120F2E71E48807B01281C
:1051300006D1FFF737F825A00DF08CFD0120E7E739
:105140001848807B02280BD12046FEF7B1FE0CB137
:1051500021A100E023A108460DF07CFD0120D7E746
:1051600023A00DF077FD0120D2E70E48807B18B90F
:10517000204600F08BF8CBE720A00DF06BFD01205E
:10518000C6E70848807B18B9204600F03FF8BFE723
:105190001CA00DF05FFD0120BAE700BF00BF00209A
:1051A000B6E70000EC9B00205748495445204D4F7E
:1051B0004445000052474220564945570000000030
:1051C0004C494748542056494557000048454154EA
:1051D000204D4F444500000046414E204D4F444570
:1051E0002B00000046414E204D4F44452D0000004D
:1051F0004845415420564945570000005750205615
:10520000494557004F3220564945570010B50446CE
:105210001B48807830B101280CD0022812D0032816
:1052200020D117E00CB1012100E004210846FFF76E
:1052300083F81FE00CB1022100E000210846FFF7CF
:105240007BF817E00CB1032100E001210846FFF7CD
:1052500073F80FE00CB1042100E002210846FFF7CB
:105260006BF807E00CB1002100E003210846FFF7CE
:1052700063F800BF00BF03A00DF0ECFC012010BDDF
:10528000E20200204F32204D4F44450010B5044645
:105290001B48807830B101280CD0022812D0032896
:1052A00020D117E00CB1012100E004210846FFF7EE
:1052B00083F91FE00CB1022100E000210846FFF74E
:1052C0007BF917E00CB1032100E001210846FFF74C
:1052D00073F90FE00CB1042100E002210846FFF74A
:1052E0006BF907E00CB1002100E003210846FFF74D
:1052F00063F900BF00BF03A00DF0ACFC012010BD9E
:10530000E60200205750204D4F44450070B5054639
:105310000C463A48007E08B90DF0EAFE052D5DD234
:10532000DFE805F0031A233B5300012C0AD1334870
:10533000408AB0F5616F0ED23048408A1E302F4946
:10534000488208E02D48408A1E2804D32B48408A12
:105350001E382A49488243E02848007D08B90121C7
:1053600000E00021254801753AE0012C0AD12348CC
:10537000407DFA2810D22148407D401DC1B21F480F
:10538000417509E01D48407D052805D91B48407D31
:10539000401FC1B21948417522E0012C0AD11748BB
:1053A000807DFA2810D21548807D401DC1B2134877
:1053B000817509E01148807D052805D90F48807D59
:1053C000401FC1B20D4881750AE00C48C07D08B984
:1053D000012100E000210948C17501E0002070BDF5
:1053E00000BF012105484176408940F00C00034987
:1053F000488101200249087000BFF0E7EC9B0020C3
:10540000B002002070B505460B484479012D07D144
:10541000022C02DA601CC0B200E00020044606E064
:10542000002C02DD601EC0B200E0022004462046CF
:1054300000F0B0F870BD0000EC9B002070B506468F
:105440001149087808F02BFD05460F48847B012D93
:1054500001D8002070BD012E09D1681EC0B2A04243
:1054600002DD601CC0B200E00020044606E014B17A
:10547000601EC0B201E0681EC0B2044620460DF0B6
:1054800025FE0120E6E70000EC9B002001460429F0
:1054900005D0052903D0062901D0072901D1012013
:1054A00070470020FCE70146C81E0A2811D2DFE839
:1054B00000F005060708090A0B0C0D0E00BF00BF1F
:1054C00000BF00BF00BF00BF00BF00BF00BF012082
:1054D000704700BF00BF0020FAE7000070B50CF075
:1054E00071F80D4800F0C2FE04460C4800F0BEFE04
:1054F0000546002C0ADD002D08DD00210848417614
:10550000C17508A00DF0A6FB012070BD07A00DF02D
:10551000A1FB0020F9E70000836F0108896F0108F3
:10552000EC9B002053415645204F4B0053415645BC
:10553000204552520000000010B50446012C0CD149
:105540001348007A032804DA1148007A401CC0B2DC
:1055500000E000200E4908720BE00D48007A002898
:1055600004DD0B48007A401EC0B200E00320084969
:1055700008720748007A0649C8710846007A801CFC
:10558000C8700020887348730DF052FB012010BDD5
:10559000EC9B002070B50446032C00DB00240CF0CB
:1055A0004FF905484471204602F0A0FC0546002151
:1055B000FEF786F870BD0000EC9B002070B519481E
:1055C00090F8720008B9012000E000200446154858
:1055D00080F872401448007E012801D112480475F9
:1055E000124800F043FE0546002D08DD0CB110A165
:1055F00000E012A108460DF02DFB012070BD84F0E3
:105600000100084981F872000748007E012804D192
:10561000084690F87210044801750BA00DF01AFBB3
:105620000020EBE7AC940020EC9B0020896F010880
:10563000414C41524D204D555445000042555A5A57
:105640004552204F4E0000004D55544520455252C2
:105650000000000010B50322002101200FF095FB8F
:105660000C49086000231A4619460A4800680FF0E2
:105670002DFC094804F0CDFC084800680849086082
:105680000BF09AF90748808820F010001030054987
:10569000888010BD4001002048950020480100206E
:1056A0003C010020289500203EB504460020A07251
:1056B000607020812081E08004F1170004F017FC65
:1056C0006449088008460088032190FBF1F201FB41
:1056D0001200002820D05F48008800281CD05E48B7
:1056E000007800F0010020B95B480078C0F3C000EA
:1056F00060B15848008859A14522614BCDE900218D
:10570000029060A268A1012002F038FF04F11700A6
:1057100004F07FFC00203EBD6548007900F00100E8
:1057200020B9012020700020608024E049480088D2
:1057300060B10122214604F1170004F0FDFB0222B2
:10574000A11C04F1170004F0F7FB14E0584800789E
:10575000062804D107202070002060800BE0544808
:105760000078042803D120700020608003E003202B
:105770002070002060802078082859D2DFE800F0EF
:105780005904101C2834404C3348007800F00100C4
:1057900010B148A006F0ECF95048C4F80F0055E0ED
:1057A0002D48007800F0010010B14DA006F0E0F99E
:1057B0005348C4F80F0049E02748007800F0010082
:1057C00010B150A006F0D4F95748C4F80F003DE0DE
:1057D0002148007800F0010010B154A006F0C8F98B
:1057E0005A48C4F80F0031E01B48007800F001006F
:1057F00010B157A006F0BCF95D48C4F80F0025E0D1
:105800001548007800F0010010B15AA006F0B0F978
:105810006048C4F80F0019E00F48007800F001005C
:1058200010B15DA006F0A4F96348C4F80F000DE0C4
:1058300000BF0020C4F80F0060800748007800F027
:10584000010010B15DA006F093F900BF00BF012078
:1058500061E700002C0100203401002062537973BD
:105860005461736B3AC8CECEF1B6D3C1D0B3A4B6EF
:10587000C8D2ECB3A320B3A4B6C8256400000000CE
:10588000D36F01084170706C69636174696F6E5CFD
:105890005379735C7379735F71756575655F746156
:1058A000736B2E63000000004E4F5F5441470000B1
:1058B000289500200D0A20625379735461736B3A66
:1058C0002D2D2D2DD7B0D4D8B3F5CABCBBAFC8CEC3
:1058D000CEF12D2D2D2D200D0A0000006945010867
:1058E000625379735461736B3A2D2D2D2DD7B0D43B
:1058F000D8B9D8B1D5C8CECEF12D2D2D2D0D0A0099
:10590000B1410108625379735461736B3A2D2D2DA7
:105910002DD7B0D4D8B9D8B1D5CDEAB3C9C8CECE79
:10592000F12D2D2D2D0D0A00014A010862537973C6
:105930005461736B3A2D2D2D2DD7B0D4D8B4EDCE44
:10594000F3C8CECEF12D2D2D2D0D0A00B94301083F
:10595000625379735461736B3A2D2D2D2DD7B0D4CA
:10596000D8D6D8D6C3C8CECEF12D2D2D2D0D0A00F8
:1059700075480108625379735461736B3A2D2D2D6C
:105980002DD7B0D4D8C6F4B6AFC8CECEF12D2D2DBC
:105990002D0D0A006D400108625379735461736BD9
:1059A0003A2D2D2D2DD7B0D4D8B9A4D7F7C8CECE47
:1059B000F12D2D2D2D0D0A00ED4A0108625379734A
:1059C0005461736B3A2D2D2D2DD7B0D4D8BFD5C8C7
:1059D000CECEF12D2D2D2D0D0A00000038B5044638
:1059E0000020009004B938BD0020A0726070A08033
:1059F0002081E08004F1170004F079FA80B2009071
:105A0000BDF80000032190FBF1F201FB120040B150
:105A1000BDF8000028B104F1170004F0FAFA0020E4
:105A2000E1E7BDF8000060B10122214604F1170052
:105A300004F082FA0222A11C04F1170004F07CFA9F
:105A400003E00120207000206080207898B10128B8
:105A500004D0022806D003280CD107E00A48C4F875
:105A60000F000DE00948C4F80F0009E00848C4F829
:105A70000F0005E000BF0020C4F80F00608000BFE9
:105A800000BF0120AFE70000AD3B0108153C010855
:105A9000BF3C01083EB504460020A0726070208122
:105AA0002081E08004F1170004F021FA55490880B4
:105AB00008460088032190FBF1F201FB1200002848
:105AC00020D05048008800281CD04F480078C0F3F0
:105AD000401020B94C480078C0F3C00060B149487C
