:020000040800F2
:10D00000E0A8002019D20008F7D700083DD2000898
:10D01000F3D70008EDD70008E9EB00080000000096
:10D0200000000000000000000000000049D10008DE
:10D03000F1D7000800000000A5D1000871EA00083F
:10D0400033D2000833D2000833D2000833D20008AC
:10D0500033D2000833D2000807DB000833D20008BF
:10D0600033D2000833D2000833D2000833D200088C
:10D0700033D2000833D2000833D2000833D200087C
:10D0800033D2000833D2000833D2000833D200086C
:10D0900033D2000833D2000833D2000833D200085C
:10D0A00033D2000833D2000833D2000833D200084C
:10D0B00033D2000833D2000833D2000833D200083C
:10D0C00033D2000833D2000833D2000833D200082C
:10D0D00033D2000855EB000833D2000833D20008E1
:10D0E00019DB000833D2000833D2000833D200081D
:10D0F00033D2000833D2000833D2000833D20008FC
:10D1000033D2000833D2000833D2000833D20008EB
:10D1100033D2000833D2000833D2000833D20008DB
:10D1200033D2000833D2000833D2000833D20008CB
:10D13000DFF810D000F0AAFC0048004701650108A4
:10D14000AFF30080E0A800202C4B19680868B0E815
:10D15000F04F80F30988BFF36F8F4FF0000080F32A
:10D16000118870470000000008480068006880F3DC
:10D1700008884FF0000080F3148862B661B6BFF3F0
:10D180004F8FBFF36F8F00DF00BF00BF08ED00E0DF
:10D19000DFF80C00016841F470010160704700BFC6
:10D1A00088ED00E0EFF30980BFF36F8F134B1A682F
:10D1B0001EF0100F08BF20ED108A20E9F04F10601C
:10D1C00009B44FF0200080F31188BFF34F8FBFF3F5
:10D1D0006F8F0EF02FFF4FF0000080F3118809BC15
:10D1E00019680868B0E8F04F1EF0100F08BFB0ECE7
:10D1F000108A80F30988BFF36F8F70470400002006
:10D20000EFF3058070470000EFF308807047EFF3FD
:10D2100009807047684670470648804706480047BF
:10D22000FEE7FEE7FEE7FEE7FEE7FEE7FEE7FEE7D6
:10D23000FEE7FEE7ADEA000831D100087046694616
:10D2400006F088FAFFF7FEFF2DE9F0410024061BE7
:10D25000254671F1000605DA01240027D0EB07000E
:10D2600067EB0101161E73F1000605DA0027D2EB09
:10D270000702012567EB030300F020FB86460E46FC
:10D2800017469C46AC4204D00025D0EB050E65EB5A
:10D29000010624B10020D2EB000760EB030C7046BE
:10D2A00031463A466346BDE8F0812DE9FE43994692
:10D2B00015468846074601AC022942D3002D40D0CE
:10D2C00000200290A8F101004FF0FF36009022E00C
:10D2D00000FB057201FB057011464A469047002885
:10D2E00005DC54F82600304444F8260013E060685A
:10D2F0002A4600FB057154F8040C00FB057007E09A
:10D300000B7890F800C001F801CB00F8013B521EE9
:10D31000002AF5D1764254F8040C61688842D7DCC3
:10D320004B462A463846FFF7C0FF54F8040C4B46DC
:10D33000A8EB0001401C00FB05702A46491EFFF7C0
:10D34000B4FFBDE8FE8310B5431A934209D2831897
:10D35000881803E010F8011D03F8011D521EF9D2D0
:10D3600010BD40EA01039B0703D009E008C9121F62
:10D3700008C0042AFAD203E011F8013B00F8013B8F
:10D38000521EF9D210BDD2B201E000F8012B491EA5
:10D39000FBD270470022F6E710B513460A46044652
:10D3A0001946FFF7F0FF204610BD30B505462A4666
:10D3B0000B4612F8010B13F8014B08B1A042F8D04C
:10D3C0001CB1002802D06D1CF1E7284630BD10B515
:10D3D000044604E00B7800F8013B03B1491C521EDF
:10D3E000F8D2204610BD421C10F8011B0029FBD1C9
:10D3F000801A704710B5002200E0521C835C8C5CE0
:10D40000A34201D1002BF8D1D8B2E1B2401A10BD2D
:10D4100030B504460020034600E05B1C934203D273
:10D42000E05CCD5C401BF8D030BD30B50546002037
:10D43000034600E05B1C934205D2EC5CC85C201AFA
:10D4400001D1002CF6D130BD2DE9FE4F804681EA96
:10D450000300C00F0C46009021F0004123F000456E
:10D46000B8EB0200A94105D24046214690461C4631
:10D470000B46024623F00040104347D0270DC7F368
:10D480000A00C3F30A510290401A019040286BDA57
:10D49000C3F3130040F4801B0098924620B1002390
:10D4A000D2EB030A63EB0B0B01985946C0F1400223
:10D4B000504600F034FA06460D4650465946019A49
:10D4C00000F04CFA10EB08006141002487EA115289
:10D4D00084EAE7731A4340D0009A62B3019A012AA2
:10D4E0004FEA075215DC001B61EB02014FF00042CE
:10D4F00002EA0752CDE90042001C41F58011324694
:10D500002B4600F04CFA03B0BDE8F08F40462146B0
:10D51000F9E7001B61EB0201001C41F580130018C4
:10D520005B412018A2F5001747EB030140EAD570D4
:10D53000B6196D4111E06D084FEA360645EAC0752F
:10D540004FEA0752001B61EB0201001C41F58011FC
:10D5500049084FEA30000019514132462B4603B0CA
:10D56000BDE8F04F00F00CBA009801224000002303
:10D57000D0EB020263EBE073009821464FEAE074BF
:10D58000B8EB000061EB0401E9E783F000435BE7DF
:10D5900081F0004158E72DE9FE4F81EA030404F0D1
:10D5A000004421F0004100944FF0000B23F00043B1
:10D5B00050EA01045ED052EA03045BD0C3F30A547C
:10D5C000C1F30A552C44A4F2F3340194A0FB025495
:10D5D000C1F3130141F48011C3F3130343F4801327
:10D5E00001FB024400FB034E840A970A44EA81547B
:10D5F00047EA8357A4FB076802958D0A05FB078558
:10D600004FEA932C04FB0C542705029D4FEA065861
:10D6100047EA1637B5EB08056EEB070C870E920E3E
:10D6200047EA811742EA8312A7FB0201B6EB0B011E
:10D6300064EB00042B0D43EA0C335E1844EB1C50E2
:10D64000DA465146E7FB0201C5F313044FEA0B33F8
:10D6500043EA14534FEA0432019C43EA0603A4F15F
:10D660000C040294009CCDE900B400F098F903B0DA
:10D67000BDE8F08F00200146F9E72DE9F04D81EA81
:10D68000030404F0004B21F0004514464FF0000A5B
:10D6900023F0004150EA050220D054EA01021DD0D7
:10D6A000C5F30A570246C5F31303C1F31300C1F3D0
:10D6B0000A5640F4801543F48013A7EB0608101BAC
:10D6C000D64608F2FD3873EB050002D308F10108D5
:10D6D00001E092185B41B8F1000F03DA0020014627
:10D6E000BDE8F08D00204FF48011064684460EE020
:10D6F000171B73EB050705D3121B63EB05030643EA
:10D700004CEA010C49084FEA300092185B4150EA9C
:10D710000107EDD152EA030012D082EA040083EA45
:10D720000501084305D0101BAB4106D2012200239E
:10D7300006E000224FF0004302E06FF001025310B8
:10D740001AEB06004CEB085110EB0A0041EB0B0101
:10D75000BDE8F04D00F014B970B5C1F30A5201F004
:10D7600000450024C1F3130140F2FF3341F480115E
:10D770009A4201DA002070BD40F233439A42A2F28D
:10D78000334203DC524200F0D9F800E090402C43D1
:10D79000F1D0404270BD00F0004230F000400AD0AD
:10D7A000C10D01F56071C0F3160042EA0151C208D3
:10D7B00040071143704700200146704730B5041EF2
:10D7C00071F1000404DB4FF00044404264EB0101BE
:10D7D000141E73F1000405DB1C464FF00043524257
:10D7E00063EB04038B4208BF824230BD00BFFEE7FB
:10D7F000704700BFFEE7704710B501F0F7F910BDA4
:10D800004C6974655F5665725F315F305F30000050
:10D810000000000000000000000000000000000008
:10D820004170722033302032303236000000000068
:10D8300000000000000000000000000000000000E8
:10D8400032313A32343A3337000000000000000031
:10D8500000000000000000000000000000000000C8
:10D8600030B5041E71F1000404DB4FF00044404267
:10D8700064EB0101141E73F1000405DB1C464FF03C
:10D880000043524263EB0403994208BF904230BD0B
:10D8900030B50B46014600202022012409E021FA80
:10D8A00002F59D4205D303FA02F5491B04FA02F57D
:10D8B0002844151EA2F10102F1DC30BD2DE9F05F14
:10D8C0000546002092469B468846064681464024EF
:10D8D0001BE0284641464746224600F02FF85346B3
:10D8E0005A46C01A914110D311461846224600F0FC
:10D8F00016F82D1A67EB01084F4622460120002139
:10D9000000F00DF817EB00094E41201EA4F10104B0
:10D91000DFDC484631462A464346BDE8F09F202AD0
:10D9200004DB203A00FA02F1002070479140C2F176
:10D93000200320FA03F3194390407047202A04DBA8
:10D94000203A21FA02F00021704721FA02F3D04078
:10D95000C2F120029140084319467047202A06DB95
:10D96000CB17203A41FA02F043EAE07306E041FAAD
:10D9700002F3D040C2F1200291400843194670479B
:10D9800010B5141E73F1000408DA401C41F10001C7
:10D9900092185B411A4301D120F0010010BD2DE91E
:10D9A000F04D92469B4611B1B1FA81F202E0B0FA15
:10D9B00080F220329046FFF7B2FF04460F4640EA5D
:10D9C0000A0041EA0B0153465A46084313D0114658
:10D9D00053EA010019D0C8F140025046FFF7AEFFEC
:10D9E00005460E46504659464246FFF798FF084303
:10D9F00005D0012004E020463946BDE8F08D002026
:10DA0000054346EAE0762C4337430A986305E40A67
:10DA1000A0EB08000022FD0A44EA47540A3002D570
:10DA200000200146E9E7010510196941DDE90845D3
:10DA300000196941BDE8F04DA2E70EB5C10F80EABB
:10DA4000E0700844CA07002140F233438DE80E001D
:10DA50000A460B46FFF7A3FF03B000BDC1F30A520D
:10DA6000C1F3130140F2FF3341F480119A4202DA0C
:10DA700000200146704740F233439A42A2F23342FB
:10DA800002DC5242FFF75ABFFFF749BF064C074D71
:10DA900006E0E06840F0010394E80700984710347E
:10DAA000AC42F6D3FFF748FBEC0602080C0702086D
:10DAB00070B58C1810F8015B15F0070301D110F850
:10DAC000013B2A1106D110F8012B03E010F8016B7D
:10DAD00001F8016B5B1EF9D12B0705D40023521E00
:10DAE0000DD401F8013BFAE710F8013BCB1A921C68
:10DAF00003E013F8015B01F8015B521EF9D5A14266
:10DB0000D8D3002070BD10B5012007F029FC10B15A
:10DB1000012007F01FFC10BD10B54FF4005007F0B6
:10DB20001FFC18B14FF4005007F014FC10BD0000AA
:10DB30002DE9F04706460F469046994600BFDFF8AC
:10DB4000B4A09AF80000532801D001F04FF800BFAC
:10DB5000EFF311810846202181F3118800BF00BF37
:10DB6000244D002400BF04EB440205F1180101EB31
:10DB7000C201496801B903E0641C2969A142F2DCD1
:10DB800000BF2969A1422ADD04EB440205F1180116
:10DB900041F8326004EB440201EBC2014F6004EB38
:10DBA000440205F1180101EBC201C1F8088000220E
:10DBB00004EB440305F1180101EBC3010A6104EB16
:10DBC000440305F1180101EBC301CA6004EB4402F0
:10DBD00005F1180101EBC201C1F8149001E04FF00A
:10DBE000FF34C1B281F3118800BF00BF2046BDE8F9
:10DBF000F0870000508D00202DE9F05F05460F46AC
:10DC00009046994600BFDFF864B09BF800005328A7
:10DC100001D000F0EBFF00BFDFF850A0032D1FD2B2
:10DC2000EFF311810846202181F3118800BF00BF66
:10DC300005EB45020AF1600101EBC2043DB127602A
:10DC4000C4F80480C4F8089000212161E1600A99B9
:10DC50006161C1B281F3118800BF00BF002601E0FD
:10DC60004FF0FF363046BDE8F09F0000508D002099
:10DC70002DE9F74F82B08346174600BF2648009033
:10DC800000980078532801D000F0B0FF00BF0BEBE4
:10DC90004B012148603000EBC106DDF80C9035697E
:10DCA000D6F80CA04FF00008554517D9B068441BB2
:10DCB000BC4201D2204600E0384604467068284441
:10DCC0000190224648460199FFF73DFBA044A1443C
:10DCD0003F1B2544B068A84200D10025AAEB0504EB
:10DCE000BC4201D2204600E0384604465CB1706870
:10DCF00028440190224648460199FFF724FBA0449E
:10DD0000A1443F1B2544B8F1000F00D035614046C7
:10DD100005B0BDE8F08F0000508D00202DE9F74FD1
:10DD200082B082461446DDF80CB00AEB4A01224864
:10DD300000EBC105D5F81090EE686868304401909A
:10DD4000B14528D8A868801B471EA7420AD322469F
:10DD500059460198FFF7F7FA3019E860012005B03D
:10DD6000BDE8F08F4F44A74223D3A868A0EB060874
:10DD7000424659460198FFF7E6FAA4EB08043CB185
:10DD8000686801900BEB080122460198FFF7DBFA67
:10DD9000EC600120E3E7A9EB0600471EA74208D389
:10DDA000224659460198FFF7CEFA3019E860012063
:10DDB000D5E70020D3E70000688D002010B5064BA2
:10DDC000064A07480168006800F06AF84FF0805082
:10DDD00000F036FC10BD00000DF60008DCFD010867
:10DDE0000000002070B5EFF311800646202080F37C
:10DDF000118800BF00BF284800F09AFF05462C4656
:10DE00002046264A516805E0CAB242F0800200F876
:10DE1000012BC9097F29F7D800F8011B04462046C9
:10DE20001E4A916805E0CAB242F0800200F8012B58
:10DE3000C9097F29F7D800F8011B04462046174A74
:10DE4000116905E0CAB242F0800200F8012BC9094D
:10DE50007F29F7D800F8011B04462046002105E081
:10DE6000CAB242F0800200F8012BC9097F29F7D815
:10DE700000F8011B044618222146284600F05CFFEA
:10DE8000F0B280F3118800BF00BF0448406A10B1AF
:10DE90000249486A804770BD3096002008960020ED
:10DEA000F8B504460D4616461F4600234FF480621F
:10DEB0000F4910A0FFF73CFE104948700846407813
:10DEC000087600200090087E08230D4A09A1FFF77C
:10DED00093FE0020094908610A484068C860084666
:10DEE000066244608560476200200870F8BD00004B
:10DEF00008920020537973566965770008960020D0
:10DF0000F4000020001000E070B5EFF3118004462B
:10DF1000202080F3118800BF00BF074800F008FFF1
:10DF2000054611222946284600F006FFE0B280F39C
:10DF3000118800BF00BF70BD309600202DE9F04170
:10DF40000446EFF311800746202080F3118800BFBC
:10DF500000BF114800F0ECFE05462E460F48006950
:10DF6000241A3046214605E0CAB242F0800200F889
:10DF7000012BC9097F29F7D800F8011B06460822A2
:10DF80003146284600F0D8FEF8B280F3118800BF71
:10DF900000BFBDE8F0810000309600200896002008
:10DFA0002DE9F0410446EFF311800746202080F36D
:10DFB000118800BF00BF114800F0BAFE05462E468A
:10DFC0000F480069241A3046214605E0CAB242F0E3
:10DFD000800200F8012BC9097F29F7D800F8011B3E
:10DFE000064604223146284600F0A6FEF8B280F329
:10DFF000118800BF00BFBDE8F0810000309600200E
:10E00000089600202DE9F0410446EFF31180074601
:10E01000202080F3118800BF00BF114800F088FE67
:10E0200005462E460F480069241A3046214605E071
:10E03000CAB242F0800200F8012BC9097F29F7D843
:10E0400000F8011B064606223146284600F074FE01
:10E05000F8B280F3118800BF00BFBDE8F081000076
:10E0600030960020089600202DE9F041EFF3118052
:10E070000746202080F3118800BF00BF114800F040
:10E0800057FE0446254610480088C0F30806284677
:10E09000314605E0CAB242F0800200F8012BC909FE
:10E0A0007F29F7D800F8011B0546022229462046A1
:10E0B00000F042FEF8B280F3118800BF00BFBDE857
:10E0C000F08100003096002004ED00E070B5EFF321
:10E0D00011800446202080F3118800BF00BF07484C
:10E0E00000F026FE054603222946284600F024FEBD
:10E0F000E0B280F3118800BF00BF70BD30960020F1
:10E1000070B50C48006A78B10A48006A006858B1D6
:10E110000849096A0868804704460D462A46214690
:10E120000D2000F039F804E0034841680C2000F0AD
:10E1300005F870BD08960020001000E02DE9F041C0
:10E1400005460E46EFF311808046202080F31188AB
:10E1500000BF00BF0F4800F0EBFD044627463846DD
:10E16000314605E0CAB242F0800200F8012BC9092D
:10E170007F29F7D800F8011B07462A463946204672
:10E1800000F0DAFD08F0FF0080F3118800BF00BF47
:10E19000BDE8F081309600202DE9F04706460F4695
:10E1A0009046EFF311808146202080F3118800BF54
:10E1B00000BF174800F0BCFD05462C4620463946F6
:10E1C00005E0CAB242F0800200F8012BC9097F299C
:10E1D000F7D800F8011B04462046414605E0CAB2C4
:10E1E00042F0800200F8012BC9097F29F7D800F816
:10E1F000011B044632462146284600F09DFD09F0E9
:10E20000FF0080F3118800BF00BFBDE8F087000069
:10E21000309600202DE9F04706460F469046994675
:10E22000EFF311808246202080F3118800BF00BFE9
:10E230001D4800F07DFD05462C462046394605E088
:10E24000CAB242F0800200F8012BC9097F29F7D831
:10E2500000F8011B04462046414605E0CAB242F0E0
:10E26000800200F8012BC9097F29F7D800F8011BAB
:10E2700004462046494605E0CAB242F0800200F852
:10E28000012BC9097F29F7D800F8011B0446324643
:10E290002146284600F050FD0AF0FF0080F3118867
:10E2A00000BF00BFBDE8F087309600202DE9F05F89
:10E2B00006460F4690469946DDF828A0EFF31180F8
:10E2C0008346202080F3118800BF00BF244800F05F
:10E2D0002FFD05462C462046394605E0CAB242F0DD
:10E2E000800200F8012BC9097F29F7D800F8011B2B
:10E2F00004462046414605E0CAB242F0800200F8DA
:10E30000012BC9097F29F7D800F8011B04462046D4
:10E31000494605E0CAB242F0800200F8012BC90963
:10E320007F29F7D800F8011B04462046514605E036
:10E33000CAB242F0800200F8012BC9097F29F7D840
:10E3400000F8011B044632462146284600F0F4FC42
:10E350000BF0FF0080F3118800BF00BFBDE8F09F05
:10E360003096002070B50446EFF31180054620205A
:10E3700080F3118800BF00BF074800F0D9FC0646B3
:10E3800022463146304600F0D7FCE8B280F31188CF
:10E3900000BF00BF70BD0000309600202DE9F0479F
:10E3A00006462948006800284CD027480468002702
:10E3B00003E0246904B902E07F1CB742F9D300BF2F
:10E3C000002C3AD0EFF311808146202080F3118891
:10E3D00000BF00BF1D4800F0ABFC80464546284604
:10E3E000314605E0CAB242F0800200F8012BC909AB
:10E3F0007F29F7D800F8011B05462846A16805E0EB
:10E40000CAB242F0800200F8012BC9097F29F7D86F
:10E4100000F8011B054680222846216800F01EFCFA
:10E42000054616222946404600F086FC09F0FF000A
:10E4300080F3118800BF00BF00BF1CB1E06808B1C5
:10E44000E0688047BDE8F087FC000020309600209F
:10E4500010B50748006848B10548046800BFE06887
:10E4600008B1E06880472469002CF8D110BD000095
:10E47000FC00002070B5EFF311800646202080F3E9
:10E48000118800BF00BF0F4800F052FC044625462B
:10E4900028460D4A117805E0CAB242F0800200F821
:10E4A000012BC9097F29F7D800F8011B05461B225B
:10E4B0002946204600F040FCF0B280F3118800BFEE
:10E4C00000BF70BD30960020000100202DE9F04112
:10E4D0000446EFF311800546202080F3118800BF29
:10E4E00000BF0B4800F024FC074680222146384636
:10E4F00000F0B4FB06460E223146384600F01CFC04
:10E50000E8B280F3118800BF00BFBDE8F0810000D1
:10E51000309600202DE9F0410546EFF311800746C3
:10E52000202080F3118800BF00BF3B4800F000FCB2
:10E53000064634462046394B2A681B69D11A05E045
:10E54000CAB242F0800200F8012BC9097F29F7D82E
:10E5500000F8011B04462046A96805E0CAB242F053
:10E56000800200F8012BC9097F29F7D800F8011BA8
:10E57000044620222046696800F070FB0446092208
:10E580002146304600F0D8FB34462046234B2A680B
:10E590001B69D11A05E0CAB242F0800200F8012BD3
:10E5A000C9097F29F7D800F8011B04462046E9680D
:10E5B00005E0CAB242F0800200F8012BC9097F29A8
:10E5C000F7D800F8011B04462046296905E0CAB2C5
:10E5D00042F0800200F8012BC9097F29F7D800F822
:10E5E000011B04462046002105E0CAB242F0800229
:10E5F00000F8012BC9097F29F7D800F8011B044650
:10E6000015222146304600F097FBF8B280F31188BE
:10E6100000BF00BFBDE8F0813096002008960020C2
:10E6200010B50648006A38B10448006A406818B15D
:10E630000249096A4868804710BD0000089600201A
:10E640000149086170470000089600200146024811
:10E650000069081A704700000896002070B5012074
:10E660003A490870EFF311800446202080F31188A6
:10E6700000BF00BF48780A223549FFF74FFBE0B2E0
:10E6800080F3118800BF00BF0A20FFF76BFEEFF395
:10E6900011800646202080F3118800BF00BF2D485E
:10E6A00000F046FB05462C462046284A516805E006
:10E6B000CAB242F0800200F8012BC9097F29F7D8BD
:10E6C00000F8011B04462046204A916805E0CAB2C2
:10E6D00042F0800200F8012BC9097F29F7D800F821
:10E6E000011B04462046194A116905E0CAB242F0EE
:10E6F000800200F8012BC9097F29F7D800F8011B17
:10E7000004462046002105E0CAB242F0800200F82B
:10E71000012BC9097F29F7D800F8011B04461822EC
:10E720002146284600F008FBF0B280F3118800BFB4
:10E7300000BF0648406A10B10449486A8047FFF7A5
:10E74000DFFCFFF76DFFFFF795FE70BD0896002018
:10E75000C1FD01083096002070B5EFF31180054629
:10E76000202080F3118800BF00BF0A4800F0E0FAC3
:10E7700004460948007838B10B222146204600F0B3
:10E78000DBFA002004490870E8B280F3118800BF6A
:10E7900000BF70BD30960020089600202DE9F041A2
:10E7A0000546EFF311800646202080F3118800BF54
:10E7B00000BF194800F0BCFA0746802229463846B7
:10E7C00000F04CFA04462046012105E0CAB242F0AE
:10E7D000800200F8012BC9097F29F7D800F8011B36
:10E7E00004462046002105E0CAB242F0800200F84B
:10E7F000012BC9097F29F7D800F8011B04461A220A
:10E800002146384600F098FAF0B280F3118800BF34
:10E8100000BFBDE8F0810000309600202DE9F843EC
:10E8200005460C4616461F46DDF82080052221A12C
:10E830002046FEF7EDFD08B9BDE8F8831F480068E3
:10E84000142803D31E48FFF7A9FFF5E71B4800680B
:10E8500000EB80001B4941F820501848006800EB8D
:10E86000800001EB800044601448006800EB8000E9
:10E8700001EB800086601148006800EB800001EB2E
:10E880008000C7600D48006800EB800001EB80004D
:10E89000C0F8108009480068401C084908603B46E1
:10E8A000324621462846CDF8008000F095F800BF9A
:10E8B000C2E7000049444C4500000000040100206C
:10E8C0009C0602081497002070B505464048006871
:10E8D00000B970BD002408E004EB84003D4951F804
:10E8E0002000A84200D104E0641C3948006884423A
:10E8F000F2D300BF36480068401EA0420DD104EBA1
:10E900008401344A02EB81001421FEF743FD3048B4
:10E910000068401E2E49086057E02D480068844278
:10E9200053D22B480068401E00EB8000294951F863
:10E93000200004EB8401274A42F8210024480068A3
:10E94000401E00EB8000114601EB8000406804EBA4
:10E95000840102EB810148601D480068401E00EB05
:10E960008000114601EB8000806804EB840102EB1B
:10E970008101886016480068401E00EB8000114647
:10E9800001EB8000C06804EB840102EB8101C860E8
:10E990000F480068401E00EB8000114601EB80002C
:10E9A000006904EB840102EB8101086108490968F0
:10E9B000491E01EB810102EB81001421FEF7EAFC04
:10E9C00003480068401E0249086000BF81E700005C
:10E9D00004010020149700202DE9F04186B0044680
:10E9E0000D4616461F46DDF83080142101A8FEF7BB
:10E9F000D1FC0194029503960497CDF8148001A8E8
:10EA0000FFF788FD06B0BDE8F081000017480068F8
:10EA100020F008000830154908600846006820F01A
:10EA20000200801C08600846006820F00100401CBD
:10EA300008600846006820F0400040300860084642
:10EA4000006820F4004008600846006820F4804018
:10EA500008600846006820F020000860084600684A
:10EA600020F08000803008607047000034010020F2
:10EA700010B5FFF7F9FA00BF202080F31188BFF32B
:10EA80004F8FBFF36F8F00BF10F012FA20B14FF01D
:10EA900080500549086001E0FFF718FB00BF002027
:10EAA00080F3118800BF10BD04ED00E008B52648D2
:10EAB000006840F47000244908602448006840F071
:10EAC00001002249086000BF2048006800F00200F1
:10EAD0000028F9D000BF1D48406840F080001B4965
:10EAE00048600020009002E00098401C00900098D0
:10EAF0005028F9D31548406840F090001349486009
:10EB00000020009002E00098401C009000985028DF
:10EB1000F9D300BF0D48406820F003000B4948605E
:10EB2000084600680A490840084908604FF41F0079
:10EB300088600846006820F4802008600020486053
:10EB4000C86209F0CBF908BD88ED00E00010024072
:10EB5000FFFFF6FE10B51D491D480BF0ACF870B173
:10EB60001A491B480BF09EF81A48006838B1012278
:10EB70001749091D17480068163007F054FC16495C
:10EB800013480BF098F800B3134911480BF08AF8BA
:10EB9000124800881249098888420CDA11480F4946
:10EBA0000988405C0A49091D08600C480088401C1F
:10EBB0000A49088009E040F2073105480BF058F88F
:10EBC0000020064908800649088010BD050305009D
:10EBD0000038014050010020070307005E010020BB
:10EBE0005C010020C09C002000BFFEE770B5144C03
:10EBF000A8212046FEF7CEFB03202061606111A012
:10EC0000A0611349E1614FF4806121620021A1629A
:10EC10006162E1620BA020660E4961661021A16667
:10EC200000212167E1666167002505E0C5F10F005D
:10EC30000949085C60556D1C102DF7D370BD0000AC
:10EC4000508D00205465726D696E616C000000008B
:10EC5000F88D0020F8910020B0FD010870B50C4639
:10EC60000346401C802A00D9802203E011F8015B92
:10EC700000F8015B151EA2F1010202D00D78002DF3
:10EC8000F4D10D1B1D7070BD38B52849087E0122D6
:10EC90006946FEF7EDFF0446002C45D09DF80000C4
:10ECA00005281ED008DC01280FD0022810D0032828
:10ECB00011D004282CD111E0062815D0072816D031
:10ECC0007F2824D0802823D114E0FFF7C7FC2AE056
:10ECD000FFF742FD27E0FFF713FA24E0FFF7A0FC5F
:10ECE00021E0FFF77FF81EE0FFF7C4FB1BE0FFF712
:10ECF000AFFB18E00D49087E01226946FEF7B8FF18
:10ED000004461CB19DF80000FFF748FB0BE00AE049
:10ED10009DF80000802805DB0449087E0122694631
:10ED2000FEF7A6FF00BF00BF38BD00000896002018
:10ED30000146C81D704700002DE9F04705460F4603
:10ED4000144672480078012800D10FE06F4800781F
:10ED500000B9BCE06D480078022806D100F0DCF86C
:10ED60006A480078012800D0B1E000BF202C06D20C
:10ED70006648C0690121A140084000B1A7E0182CF5
:10ED800003D2681E0546047078E07E1B7F2E0BD9E7
:10ED9000C6F3C711681E05460170F0B240F080014D
:10EDA000681E0546017002E0681E054606707F2C4D
:10EDB00003D2681E0546047060E0B4F5804F0BD2A4
:10EDC000C4F3C711681E05460170E0B240F080012F
:10EDD000681E0546017051E0B4F5001F12D2C4F35D
:10EDE0008731681E05460170802040EAD410C1B208
:10EDF000681E05460170E0B240F08001681E0546BD
:10EE000001703BE0B4F1805F19D2C4F34751681E32
:10EE100005460170802040EA9430C1B2681E054664
:10EE20000170802040EAD410C1B2681E054601700E
:10EE3000E0B240F08001681E054601701EE0210F1F
:10EE4000681E05460170802040EA5450C1B2681E19
:10EE500005460170802040EA9430C1B2681E054624
:10EE60000170802040EAD410C1B2681E05460170CE
:10EE7000E0B240F08001681E054601702448D0F8D9
:10EE800004802248C068A8EB000A3846514605E0D5
:10EE9000CAB242F0800200F8012BC9097F29F7D8D5
:10EEA00000F8011B07467A1B184948782946FEF7E7
:10EEB00035FF8146B9F1000F03D01448C0F80C802B
:10EEC00004E012480078401C1049087000BF0F4849
:10EED000007E00EB40010F4800EBC100C1680B4809
:10EEE000007E00EB40020B4800EBC2000069081AEC
:10EEF0000AD00648807838B9012004498870FFF7A5
:10EF0000C3FE002001498870BDE8F0870896002004
:10EF1000001000E0B08D0020FEB501208DF800004B
:10EF20000DF1010630461C4A516905E0CAB242F0B3
:10EF3000800200F8012BC9097F29F7D800F8011BCE
:10EF40000646164844681448C068271A30463946B1
:10EF500005E0CAB242F0800200F8012BC9097F29FE
:10EF6000F7D800F8011B06466946721A0A49487824
:10EF70006946FEF7D3FE054635B10748C460007800
:10EF8000401E0549087004E003484069401C0249DE
:10EF900048612846FEBD000008960020001000E0F1
:10EFA0000FB4054B10B503A9044A029800F044FCC5
:10EFB00010BC5DF814FB0000F55A01086001002048
:10EFC0000FB47CB50C0009AD01D0611E00E000213A
:10EFD000CDE90001064B6A462946089800F02CFC52
:10EFE000002C02D0009A002111707CBC5DF814FB4B
:10EFF0003FFF00080FB4084B10B504A902AA0398FC
:10F0000000F01AFC044602A9002000F0A3FF2046ED
:10F0100010BC5DF814FB000055FF00087CB50C0027
:10F020001D461646014601D0601E00E00020CDE9D5
:10F030000010064B6A462946304600F0FDFB002CC6
:10F0400002D0009A002111707CBD00003FFF000833
:10F0500037B514460846064B6A46214600F0ECFBDD
:10F0600004466946002000F075FF20463EBD0000C2
:10F0700055FF00080000000070B5D94B00242DEDAD
:10F08000020B2DED108BDDE91010984205DA20F00F
:10F0900000429A4201D809D141B19DED100BBDEC5F
:10F0A000108B02B0BDE8704000F05EBAB0F5801F72
:10F0B00026DA11430BD0002813DA012000F080FA81
:10F0C000BDEC108B02B0BDE8704000F059BA0220D0
:10F0D00000F076FA00F030FA51EC100B81F00041AC
:10F0E0009EE06FF035049FEDC00B53EC102B9DEDAF
:10F0F000100B51EC100BFEF74EFACDE9100108464B
:10F1000004EB2051C0F31304B948A1F2FF312044AD
:10F1100000F4801080F07F6282F04052224301EBC5
:10F1200020559FEDB50B119253EC102B9DED100B5C
:10F1300051EC100BFEF729FA41EC180BA01CC0F3A0
:10F1400013009FEDAFDB9FEDB0EBB14E7E44032883
:10F150006CD296ED000B51EC180B53EC102BFEF714
:10F160002DFB1DD1002D01BF96ED000BBDEC108BCA
:10F1700002B070BD2846FEF760FC41EC180B53EC62
:10F180001D2BFEF708FA41EC190B53EC1E2B51EC2A
:10F19000180BFEF700FA53EC192BFEF755F93FE078
:10F1A0009FED9D0B51EC180B53EC102BFEF7F3F970
:10F1B0009FED9B1B53EC112BFEF7EAF941EC190B69
:10F1C00053EC182B51EC180BFEF7E5F953EC192B07
:10F1D000FEF7E1F941EC190B002D04BF53EC192B9C
:10F1E00051EC180B1AD02846FEF727FC41EC1A0BFD
:10F1F00053EC1D2BFEF7CFF953EC192BFEF7C8F992
:10F2000053EC182BFEF7C1F941EC180B53EC1E2BF5
:10F2100051EC1A0BFEF7BFF953EC182BFEF7B5F9BA
:10F22000BDEC108B02B041EC100B70BD9FED7E0B5E
:10F2300051EC180B53EC102BFEF706F941EC100BB8
:10F2400051EC180B53EC102BFEF717FA41EC190B8D
:10F250002846FEF7F2FB41EC1B0B53EC192B51EC4B
:10F26000190BFEF798F941EC1A0B714853EC1A2B65
:10F27000261851EC1A0BFEF78EF941EC1F0B6D4866
:10F28000C4F1510404F5D724B0EE4F0AF0EE6F0A32
:10F290000321784400F0D2F853EC1F2B51EC100BF3
:10F2A000FEF779F941EC1C0B6348B0EE4F0AF0EE23
:10F2B0006F0A0421784400F0C1F853EC1A2B51EC8A
:10F2C000100BFEF768F9344353EC1C2BFEF7BCF827
:10F2D00041EC1C0B002C4CDD9FED510B51EC180B3D
:10F2E00053EC102BFEF757F953EC182BFEF753F99C
:10F2F00041EC1A0B55B353EC1D2B51EC1B0BFEF7D5
:10F300004AF941EC1D0B53EC1C2B51EC1A0BFEF788
:10F310009BF853EC192BFEF73EF953EC1D2BFEF72F
:10F3200093F853EC1A2BFEF733F953EC182BFEF736
:10F330002CF941EC180B53EC1E2B51EC1B0BFEF778
:10F340002AF953EC182BFEF720F969E753EC1C2B34
:10F3500051EC1A0BFEF778F853EC192BFEF71BF95A
:10F3600053EC1A2BFEF714F953EC182BFEF710F997
:10F3700056E735B353EC1D2B51EC1B0BFEF70BF985
:10F3800041EC1A0B53EC1C2B51EC180BFEF7FDF85B
:10F3900053EC192BFEF7FFF853EC1A2BFEF7F5F898
:10F3A00053EC182BFEF7F1F841EC180B53EC1E2B25
:10F3B00051EC1B0BFEF7EFF853EC182BFEF7E5F8BA
:10F3C0002EE753EC1C2B51EC180BFEF7DEF853EC38
:10F3D000192BFEF7E0F853EC182BFEF7D9F81FE7CE
:10F3E0000000F07F0000000000000000000050431B
:10F3F000645F090000000000000000000000F03F12
:10F40000763C7935EF39EA3D0000E0FE422EE63FDA
:10F41000200E010000000000555555555555D53FAB
:10F42000000000000000E03F00000000000000407D
:10F4300086EBF9FFA20C0100980C010070B50446A0
:10F440002DED028B4D1E00EBC500B0EE408AF0EEB4
:10F45000608A90ED000B35F0060017D053EC182BA6
:10F4600051EC100BFEF797F841EC100B6D1E04EBFE
:10F47000C50090ED001B51EC100B53EC112BFDF768
:10F48000E3FF41EC100B35F00600E7D1022D36D03A
:10F49000042D1CD0062D1CBFBDEC028B70BD53EC9F
:10F4A000182B51EC100BFEF776F894ED0A1B53EC79
:10F4B000112BFDF7C9FF53EC182BFEF76CF894EDF8
:10F4C000081B53EC112BFDF7BFFF41EC100B53EC65
:10F4D000182B51EC100BFEF75EF894ED061B53EC65
:10F4E000112BFDF7B1FF53EC182BFEF754F894EDF8
:10F4F000040B53EC102BFDF7A7FF41EC100B53EC62
:10F50000182B51EC100BFEF746F894ED021B53EC50
:10F51000112BFDF799FF53EC182BFEF73CF894EDF7
:10F52000001B53EC112BFDF78FFFBDEC028B41EC60
:10F53000100B70BD000000009FED070B10B553ECE1
:10F54000102B9FED070B51EC100BFEF796F841ECDA
:10F55000100B10BD000000000000000000000000C3
:10F56000000000000000F03F10B553EC102B51ECF0
:10F57000100BFDF769FF41EC100B10BD00000000FF
:10F580009FED050B10B553EC102B51EC100BFEF753
:10F5900074F841EC100B10BD0000000000000000EA
:10F5A00002E008C8121F08C1002AFAD1704770474C
:10F5B000002001E001C1121F002AFBD170470000AA
:10F5C0000149086070470000EC0600202DE9F04179
:10F5D0000FF064FC00250446012100202246A2FB16
:10F5E000016705FB017104FB001534464FF47A7284
:10F5F00000212046A0FB026705FB027204FB0125E7
:10F60000344620462946BDE8F081000010B503A02D
:10F61000FEF75CFF0EA0FEF759FF10BD4E3D46728F
:10F62000656552544F532044656D6F204170706C76
:10F6300069636174696F6E2C443D436F72746578C1
:10F640002D4D342C4F3D4672656552544F5300008A
:10F65000492331353D5379735469636B00000000D1
:10F66000F8B500241DE004EB8400104901EB800094
:10F67000006904EB84050E4606EB85050090EB68F7
:10F6800004EB840506EB8505AA6804EB840506EB0C
:10F690008505696804EB840556F82500FFF79CF999
:10F6A000641C034800688442DDD3F8BD1497002031
:10F6B000040100202DE9FF5F82B00021DDE9043064
:10F6C000020DDDF840B0034318D044F61050A2F20A
:10F6D000FF3242431514119801281FD0A5EB0B00EF
:10F6E000401C5FEA000A4FF000064E4FDFF83891E9
:10F6F000B046504615D5CAF1000413E01198012414
:10F700004AA3012801D16FEA0B010298119AC0E9BE
:10F710000031C0E9024206B0BDE8F09FCBF1000025
:10F72000DFE704460021404A491842EB0450CDE986
:10F73000001012E0E00707D032463B4640464946FB
:10F74000FDF729FF8046894632463B46104619465A
:10F75000FDF721FF06460F466410002CEAD1DDE9D3
:10F760000401DDE90023BAF1000F06DAFDF713FF0B
:10F7700042464B46FDF70FFF05E0FDF77EFF424690
:10F780004B46FDF77AFF04460E460022284BFEF753
:10F7900067F803D84FF0FF30014607E00022254B01
:10F7A00020463146FDF750FEFEF758F9102409E0D7
:10F7B000002C0ADB0A220023FEF780F8039B30327C
:10F7C0001A55641E50EA0102F2D1641C039AC4F176
:10F7D00011031444119A012A03D0012208430DD1C8
:10F7E0000AE0084304D000204FF0110B119072E79B
:10F7F000A3EB0B056D1E0DE05B4504DD4FF0000231
:10F8000005F1010504E003DA4FF00002A5F101055E
:10F81000002AECD002981199C0E90231C0E90045F4
:10F8200079E70000000014400000F03F30000000C5
:10F830000000F0430000E03F2DE9FF4F95B09A46ED
:10F84000884606460025EEE1252877D10024274684
:10F85000F94A0121039400E0044316F8013F203BDC
:10F8600001FA03F01042F7D130782A2811D06FF056
:10F870002F033078A0F13002092A16D8039A44F0F9
:10F88000020402EB820203EB42021044761C039056
:10F89000EFE758F8042B0392002A03DA504244F4AD
:10F8A0000054039044F00204761C30782E2816D1C0
:10F8B00016F8010F44F004042A280DD06FF02F022F
:10F8C0003078A0F13003092B09D807EB870302EB4E
:10F8D0004303C718761CF3E758F8047B761C30788E
:10F8E0006C280FD006DC4C2817D068280DD06A2869
:10F8F00014D104E0742810D07A280FD10DE044F41C
:10F9000000140AE044F4801401E044F440147278D6
:10F91000824202D104F58014761C761C3078662869
:10F920000BD013DC582877D009DC002875D0452887
:10F93000F6D04628F4D047281AD193E118E063287E
:10F9400035D0642879D0652812D18BE1702873D026
:10F9500008DC6728F1D069286FD06E280DD06F2899
:10F9600006D1ACE073282CD0752874D0782853D0F9
:10F970005246179990476D1C54E1C4F30250022877
:10F9800009D003280DD0D8F8001004280DD00D6040
:10F9900008F1040846E1D8F80010EA17C1E900525E
:10F9A000F6E7D8F800100D80F2E70D70F0E718F8D0
:10F9B000041B8DF8001000208DF80100EB4601209B
:10F9C00003E058F804BB4FF0FF3061074FF000012F
:10F9D00002D40DE009F101018946B9420FDA8145EF
:10F9E000F8DB1BF809100029F4D108E009F1010146
:10F9F00089468142FADB1BF809100029F6D10398E9
:10FA00005346A0EB090721463846179A00F080FAC2
:10FA1000284400EB090507E044E008E10DE01BF88D
:10FA2000010B524617999047B9F10109F7D2534695
:10FA300021463846179AF2E039E00A21C4F302520F
:10FA40004FF0000B0091022A06D058F8040BC117A2
:10FA5000032A09D00AE023E008F1070020F007029A
:10FA6000F2E80201904605E000B2C117042A01D174
:10FA700040B2C117002906DA0A460021404261EB74
:10FA800002012D2202E0220504D52B228DF804204C
:10FA9000012203E0E20701D02022F7E7914657E078
:10FAA0000A2100E010214FF0000B00910BE0102123
:10FAB0004FF0000B44F004040827009103E00820F5
:10FAC0004FF0000B0090C4F30252022A05D058F800
:10FAD000040B0021032A08D008E008F1070020F0F9
:10FAE0000702F2E80201904603E080B2042A00D146
:10FAF000C0B24FF0000922072AD53278702A07D009
:10FB0000DDF800C08CF0100C5CEA0B0C05D00EE0A8
:10FB100040228DF80420012208E050EA010306D0BB
:10FB200030238DF804308DF8052002229146009B89
:10FB300083F0080353EA0B030AD150EA010201D112
:10FB4000620705D530228DF804204FF001097F1E91
:10FB50003278582A04D039A20C920CAA02920BE0F7
:10FB60003BA2F9E75B46009AFDF7A8FE0C9B9B5C65
:10FB7000029A521E0292137050EA0102F2D10298C8
:10FB800004A9081A00F1200B600702D524F4803480
:10FB900000E001275F4502DDA7EB0B0000E000203D
:10FBA00000EB0B01009003984944401A0390E003D6
:10FBB00006D453462146179A039800F0A9F9054444
:10FBC000002706E001A85246C05D179990476D1CBA
:10FBD0007F1C4F45F6DBE0030CD553462146179AB0
:10FBE000039800F095F9054404E030205246179937
:10FBF00090476D1C0099481E00900029F5DC08E034
:10FC00000298029952460078491C02911799904730
:10FC10006D1CBBF10001ABF1010BF1DC5BE100F00D
:10FC200065F90544761C307800287FF40DAE19B0D4
:10FC30002846BDE8F08F000009280100303132333A
:10FC40003435363738396162636465660000000018
:10FC50003031323334353637383941424344454602
:10FC600000000000600700D4062708F1070020F01C
:10FC70000700F0E80223804603F0004C5FEA0C0026
:10FC800001D097A009E0200501D596A005E0E00786
:10FC900001D095A001E0AFF24C001390307823F032
:10FCA000004365280CD006DC452809D046281DD025
:10FCB00047287FD13BE0662818D067287AD136E004
:10FCC0000021112F01DB112000E0781CCDE900019B
:10FCD00004A90CA8FFF7EEFCDDE90D010C9A4FF02A
:10FCE000000B07F10109109200914EE04FF0004027
:10FCF0000097CDE9011004A90CA8FFF7DBFCDDE9B2
:10FD00000D020C9B0F994FF0000B9146109300923F
:10FD100011B9791C00EB0109B7EB090003D4C0F15C
:10FD2000FF3B07F10109A9EB0700019042E0012F19
:10FD300000DA01270021112F01DD112000E03846F3
:10FD4000CDE9000104A90CA8FFF7B4FCDDE90D0121
:10FD50000C9A00914FF0000BB946109221070FD476
:10FD6000009A4A4503DA914601E0A9F10109B9F187
:10FD7000010F05DD109AA9F10101515C3029F4D081
:10FD8000B84202DA10F1040F03DA0121CDE90110C3
:10FD900010E0002803DC8344A9EB000102E0411CD1
:10FDA000494500DD8946A0EB0B00401C01904FF057
:10FDB00000400290200705D40198484502DB4FF02F
:10FDC000FF30019000208DF84B0002980DF14B0799
:10FDD000B0F1004F25D002200C902B200D900298FE
:10FDE00000280CDA404202902D200D9007E00A21F5
:10FDF0000298FDF74DFD3031029007F8011D0C9976
:10FE0000481E0C900029F2DC02980028EFD1791EE0
:10FE10000D980870307800F0200040F0450007F899
:10FE2000020D11A8C01BC01D02901398007800B1EC
:10FE3000012000EB0901019801EBE07102980144F7
:10FE40000398401A401E0390E00306D4534621460F
:10FE5000179A039800F05CF805441398007818B1DD
:10FE60005246179990476D1CE00323D5534621460F
:10FE7000179A039800F04CF805441BE0BBF1000F03
:10FE800007DB0098584504DD1098179910F80B000F
:10FE900001E0179930205246904701980BF1010B71
:10FEA000401E05F10105019004D12E2052461799FC
:10FEB00090476D1CB9F10001A9F10109DEDC05E0F4
:10FEC00017F8010B5246179990476D1C0299481E6E
:10FED00002900029F4DC53462146179A03989EE6C7
:10FEE0002D0000002B000000200000002DE9F04153
:10FEF000044600251E461746880404D405E039460A
:10FF00002020B0476D1C641EF9D52846BDE8F0815D
:10FF10002DE9F041044600251E469046C80301D550
:10FF2000302700E02027880404D505E04146384604
:10FF3000B0476D1C641EF9D52846BDE8F0814A68BB
:10FF4000002A06D00A68531C0B6010704868401ED7
:10FF5000486070470A68531C0B60107070478168D6
:10FF600041F00801816000BF816801F008010029AB
:10FF7000FAD1816841F00401816000BF816801F01D
:10FF800004010029FAD1704730B5012902D00229B5
:10FF90001AD10CE0C36A23F47003C362C36A541E0F
:10FFA0004FF4700505EA04542343C3620DE0836BEC
:10FFB00023F440138363836B541E4FF4401505EA0A
:10FFC00004542343836300E000BF00BF30BD000042
:10FFD00010B5002000F0CAF8012202213A4800F0D2
:10FFE00038F901221102384800F033F9002136486F
:10FFF00000F06CF80C2201213348FFF7C5FF0723FE
:020000040801F1
:1000000000221146304800F0BFF8072301221146B4
:100010002D4800F0B9F80723022211462A4800F0C3
:10002000B3F8072306220321274800F0ADF8072381
:100030001A460421244800F0A7F8072308220521C6
:10004000214800F0A1F80723092206211E4800F0EC
:100050009BF807230A2219461B4800F095F807234E
:100060000B220821184800F08FF807230D220921E0
:10007000154800F089F807230E220A21124800F0E3
:1000800083F807230F220B210F4800F07DF84FF46F
:10009000602201210C4800F051F8012211460A4863
:1000A00000F02DF8084800F01CF8074800F01EF892
:1000B000012003F0B7FE0448FFF751FF0121024879
:1000C00000F0B8F810BD00000024014021B18268A2
:1000D00042F40062826003E0826822F4006282607F
:1000E0007047816841F4807181607047816801F0D8
:1000F000010119B9816841F001018160704772B155
:1001000001F001031BB1836843F48013836001F0A5
:10011000020393B1836843F4004383600DE001F070
:1001200001031BB1836823F48013836001F0020391
:100130001BB1836823F4004383607047012902D018
:10014000022910D107E0836823F460238360836869
:100150001343836008E0836823F4E043836083688B
:100160001343836000E000BF00BF70470549096882
:1001700021F47021034A116011460968014311609E
:100180007047000004240140F0B51D4606290CD23A
:10019000436B01EB81071F26BE40B34301EB810691
:1001A00002FA06F63343436322E00C290ED2036BB6
:1001B0008E1F06EB86071F26BE40B3438E1F06EB3D
:1001C000860602FA06F63343036311E010290FD2C4
:1001D000C36AA1F10C0606EB86071F26BE40B34397
:1001E000A1F10C0606EB860602FA06F63343C3625B
:1001F0000A2A0CD2046902EB42070726BE40B44328
:1002000002EB420605FA06F63443046111E0122AB5
:100210000FD2C468A2F10A0606EB46070726BE40C5
:10022000B443A2F10A0606EB460605FA06F6344385
:10023000C460F0BD01F001021AB1826842F480028C
:10024000826001F002021AB1826842F400128260F8
:100250007047AAB101F480731BB1436843F4807303
:10026000436001F480631BB1436843F480634360DF
:1002700001F00203CBB1836843F00203836014E012
:1002800001F480731BB1436823F48073436001F46D
:1002900080631BB1436823F48063436001F0020371
:1002A0001BB1836823F00203836070472DE9F84394
:1002B00006460F4614464FF000084FF00409FF228F
:1002C00049466846FDF75FF824F003052DB12A463C
:1002D0003946304604F048FA8046651BB8F1000FF5
:1002E0000FD175B124F00300C1192A466846FDF705
:1002F0002AF824F0030188194A46694604F034FAC2
:1003000080464046BDE8F88313B586B004464FF0FA
:10031000FF300590002004900390184903AB04AA15
:10032000CDE900100146204607F026FC039848B1AD
:100330000120134905AB07AACDE900100221204690
:1003400007F01AFC0498B0B10598401C98B90498BD
:10035000012802D80B48007850B10120084905ABAC
:1003600007AACDE900100146204607F005FC02E08F
:10037000012004490870059808B010BDD97B010818
:10038000890301089500002070B503460C46154608
:10039000187880B118692668B0420CD9987801287D
:1003A00005D09878022806D10448007818B9586911
:1003B0002860012070BD0020FCE7000095000020AF
:1003C0001CB50AF00DFA0548012100234022CDE9B1
:1003D000001003A104480EF025FC1CBD9002002073
:1003E00042757A5461736B00EDA7010810B504469D
:1003F000082C2FD2DFE804F02E040A10161C222845
:1004000000226421012001F05BFE24E064221146F9
:10041000022001F055FE1EE064221146032001F087
:100420004FFE18E00022C821012001F049FE12E031
:10043000C8221146022001F043FE0CE0C8221146FA
:10044000032001F03DFE06E0C8221146052001F020
:1004500037FE00E000BF00BF012010BD01468A202A
:10046000087088204870B420488001207047000040
:100470001CB51E481E4B0C22082100901D4802F09E
:1004800008FC002815DC1C480078C0F3401020B997
:1004900019480078C0F3C00048B118A02221214BB0
:1004A00021A2CDE900102BA1012004F05DFA00206B
:1004B0001CBD10480068002815D10F480078C0F313
:1004C000401020B90C480078C0F3C00048B123A008
:1004D0002921144B14A2CDE900101EA1012004F023
:1004E00043FA0020E4E70120E2E700002DC2010802
:1004F000691D0108C00600203401002062446973B0
:10050000705461736B3A7470446973705461736BA7
:10051000C8CECEF1B6D4CFF3B3F5CABCBBAFCAA731
:10052000B0DC000010FF01084861726477617265F9
:100530005C4D445F446973706C61795C6D645F64A9
:100540006973706C61795F71756575655F746173EE
:100550006B2E63004E4F5F54414700006244697345
:10056000705461736B3A7470446973705461736B47
:10057000C8CECEF1B6D4CFF3B4B4BDA8CAA7B0DC10
:100580000000000010B5044644488078A04212D014
:1005900042488470807801280ED141480078C0F329
:1005A000401028B93E480078C0F3C000002872D03F
:1005B0003CA007F07DFA6EE03848807802280ED122
:1005C00037480078C0F3401028B935480078C0F3A8
:1005D000C00000285FD03CA007F06AFA5BE02F481B
:1005E000807803280ED12E480078C0F3401028B937
:1005F0002B480078C0F3C00000284CD03BA007F087
:1006000057FA48E02548807804280ED1244800781D
:10061000C0F3401028B922480078C0F3C000002879
:1006200039D03AA007F044FA35E01C488078052814
:100630000ED11B480078C0F3401028B91848007844
:10064000C0F3C000002826D038A007F031FA22E01D
:100650001248807806280DD111480078C0F3401068
:1006600020B90F480078C0F3C000A0B138A007F04F
:100670001FFA10E00948807807280CD10848007854
:10068000C0F3401020B906480078C0F3C00010B194
:1006900037A007F00DFA012010BD0000A8020020CD
:1006A0003401002062446973705461736B3ACFD493
:1006B000CABEC8CECEF1D7B4CCACCEAAB3F5CABCB4
:1006C000BBAF0D0A0000000062446973705461738F
:1006D0006B3ACFD4CABEC8CECEF1D7B4CCACCEAA7A
:1006E000B9D8B1D5D6D00D0A0000000062446973B4
:1006F000705461736B3ACFD4CABEC8CECEF1D7B4B2
:10070000CCACCEAAB9D8B1D50D0A00006244697349
:10071000705461736B3ACFD4CABEC8CECEF1D7B491
:10072000CCACCEAAB4EDCEF30D0A000062446973DE
:10073000705461736B3ACFD4CABEC8CECEF1D7B471
:10074000CCACCEAAC6F4B6AFD6D00D0A00000000DD
:1007500062446973705461736B3ACFD4CABEC8CE19
:10076000CEF1D7B4CCACCEAAB9A4D7F70D0A00000D
:1007700062446973705461736B3ACFD4CABEC8CEF9
:10078000CEF1D7B4CCACCEAAC9FDBCB6C4A3CABD09
:100790000D0A000070B505460C4615B1012D01D1BA
:1007A00004E01CE019480078C0B900BF1748007881
:1007B00028B901200AF0BAF8012015490870012073
:1007C00012490870012C01D1002088800F488088D0
:1007D000B8B10E4880880D49C88012E000BF0B48B0
:1007E000007830B10AF03EF80AF098F800200AF0DC
:1007F0009DF80BF0B1FD0020044908700120044968
:10080000087000BF00BF012070BD0000A8020020DA
:10081000B00200201CB50BF09FFD0AF02BF8FFF78B
:1008200027FE08B900201CBD054802210023CA018B
:10083000CDE9001003A106480EF0F4F90120F2E71B
:10084000A4020020446973705461736B00000000BF
:1008500065A901082DE9F04705460E464FF000084E
:10086000701B401C4FEAD029A5F10060C70A24483C
:100870000078C0F3800028B133462A46394621A0CB
:1008800007F016F905F082F840F2053004F0E6FFB3
:100890004FF4417004F0E2FF40F2023004F0DEFF5A
:1008A000002420E04FF4006101FB045004F0FCFF41
:1008B00048B913480078C0F3800078B139191DA0F9
:1008C00007F0F6F80AE04FF001080D480078C0F391
:1008D000800018B139191EA007F0EAF840F207307D
:1008E00004F0BCFF641C4C45DCD304F0C7FFB8F136
:1008F000000F02D00020BDE8F0870120FBE70000D8
:1009000034010020624F706572466C6173683A452D
:100910007261736525642C616464726573733A3027
:10092000782530325820746F2030782530325820A6
:100930000D0A0000624F706572466C6173683ABFC1
:10094000AACABCB2C1B3FDB5DA2564D2B30D0A00A0
:10095000624F706572466C6173683AB5DA2564D28D
:10096000B3B2C1B3FDCAA7B0DC0D0A002DE9F04156
:1009700007460C46154621480078C0F3800010B1A8
:100980001FA007F095F805F001F84FF000080BE004
:100990003846216805F01CF810B10020BDE8F08150
:1009A0003F1D241D08F10108B8EB950FF0D305F0A9
:1009B000030686B12088C6F104024FF0FF31D14012
:1009C00008401FFA80F84146384605F001F808B1A2
:1009D0000020E3E700BF40F2073004F03FFF04F0DF
:1009E0004DFF06480078C0F3800028B10AA007F048
:1009F0005FF80EA007F05CF80120CFE7340100207B
:100A00000D0A2073746172742077726974652046D0
:100A10004D43200A000000000D0A577269746520DA
:100A2000636F6D706C657465210A00000D0A00002B
:100A30000120704730B5034607E013F8014B11F869
:100A4000015BAC4201D0002030BD101EA2F10104B8
:100A5000E2B2F2D10120F7E71CB50AF044F80648EB
:100A600001210023C022CDE9001004A106480EF0A8
:100A7000D9F801201CBD0000CC0600206248656149
:100A8000744D616E61676500CDAB010804488068F4
:100A900000F4805008B9012070470020FCE70000F6
:100AA000001001400448806800F4805008B901201B
:100AB00070470020FCE700000010014004488068F7
:100AC00000F4005008B9012070470020FCE7000046
:100AD000001001400448806800F4005008B901206B
:100AE00070470020FCE700000010014004488068C7
:100AF00000F4804008B9012070470020FCE70000A6
:100B0000001001400448806800F4804008B90120CA
:100B100070470020FCE70000001001400448006816
:100B200000F0040008B9012070470020FCE7000035
:100B3000081401400448006800F0040008B90120CE
:100B400070470020FCE7000008140140044880685A
:100B500000F4004008B9012070470020FCE70000C5
:100B6000001001400448806800F4004008B90120EA
:100B700070470020FCE700000010014010B504465B
:100B8000012C06D10848807B60B902200649887391
:100B900008E000200449887300231A4619461846C5
:100BA0000CF07EF9012010BDCCA0002001461448B5
:100BB00090ED050AF0EE000AB4EEE00AF1EE10FA4C
:100BC00005DD10480088884201DA00207047B1F541
:100BD0007A7F01DA084601E04FF47A70094A108002
:100BE00010460088084A106006480088002801DD89
:100BF000062000E00320034AD0700120E6E7000051
:100C0000589F0020DA0600203804004010B5034643
:100C10000024012B06D0022B07D0032B08D0042B75
:100C20000CD108E04FF496740AE04FF4167407E014
:100C30004FF4487404E04FF47A7401E0002400BFDC
:100C400000BF034883702046FFF7B0FF10BD0000CF
:100C5000DA06002000200549088088700320C8704B
:100C6000002003490860012070470000DA060020D8
:100C7000380400400348008808B100207047012074
:100C8000FCE700005C01002010B504460CB9002010
:100C900010BDB4F5807F01DD4FF4807422460A490F
:100CA0000A4805F03FFB0A490880002009490880EE
:100CB00009490A4808F0F6FF40F20731074808F0F2
:100CC000E4FF0120E4E70000C09C0020A899002078
:100CD0005C0100205E01002007030700003801408E
:100CE00038B5012409480A4B22020821009009481E
:100CF00001F0CFFF0446002C01DC002038BD054880
:100D0000006808B90020F9E70120F7E705C20108EB
:100D1000B11C01084801002010B56423EF224FF4F4
:100D20008071054801F06FFE0446002C01DC0020B4
:100D300010BD0120FCE700005001002010B5002488
:100D40001548006808B9002010BD1448006808B9AB
:100D50000020F9E7FFF78EFF08B90020F4E7002133
:100D60000E4800680DF008FE012813D10C4805F06C
:100D7000B4FA0C4908800846008820B1084600886B
:100D8000FFF782FF044600231A461946034800680D
:100D90000DF076FB2046D7E74C01002040010020F3
:100DA000A89900204401002010B5EF224FF4807173
:100DB000044801F079FE0446002C01DC002010BD3F
:100DC0000120FCE74C0100201CB5FFF7A5FF08B986
:100DD00000201CBDFFF7E8FF08B90020F9E7FFF786
:100DE0007FFF08B90020F4E74FF400720849094872
:100DF00005F08AFA00F098FD0748012100238A02D5
:100E0000CDE9001005A108480DF00CFF0120E0E736
:100E1000C0990020A8990020380100205072696E06
:100E2000745461736B00000061B7010801461448F7
:100E300090ED060AF0EE080AB4EEE00AF1EE10FAC0
:100E400005DD10480088884201DA00207047B1F5BE
:100E50007A7F01DA084601E04FF47A70094A10807F
:100E600010460088084A106006480088002801DD06
:100E7000062000E00320034AD0700120E6E70000CE
:100E8000589F0020DE060020342C014010B5034698
:100E90000024012B06D0022B07D0032B08D0042BF3
:100EA0000CD108E04FF496740AE04FF4167407E092
:100EB0004FF4487404E04FF47A7401E0002400BF5A
:100EC00000BF034883702046FFF7B0FF10BD00004D
:100ED000DE06002010B50AF087FC002004490880D7
:100EE00088700320C870002002490860012010BDEE
:100EF000DE060020342C014000B500F041F830B986
:100F000000F03CF818B90448C07B062801DB01203A
:100F100000BD0020FCE70000CCA0002010B5044676
:100F200000F030F818B90D480078012813D10B48AB
:100F3000C078C0F3800070B900220121204601F082
:100F40000FFF0748007800F0010010B105A006F07F
:100F5000AFFD012010BD0020FCE7000088990020B3
:100F600034010020625379735461736B3ABFAAC68F
:100F7000F4B3E4B5E7BBBDD0D10D0A000020704743
:100F80000020704705480078022803D00348007805
:100F9000032801D1012070470020FCE78899002038
:100FA00005480078052803D003480078062801D1B9
:100FB000012070470020FCE78899002001464FF48B
:100FC0001670A1F8030041204870F62088704FF495
:100FD000C870A1F8050000200870012070470000CB
:100FE0001CB51D481D4B0C22082100901C4801F027
:100FF00050FE002815DC1B48007800F0010020B9E5
:1010000018480078C0F3C00048B117A02121204B38
:1010100020A2CDE9001028A1012003F0A5FC0020AA
:101020001CBD0F480068A8B90E48007800F0010008
:1010300020B90C480078C0F3C00048B120A0282196
:10104000134B14A2CDE900101BA1012003F08CFC6E
:101050000020E5E70120E3E7DDC101087D19010873
:101060002801002034010020625379735461736BAE
:101070003A74705379735461736BC8CECEF1B6D4A1
:10108000CFF3B3F5CABCBBAFCAA7B0DC0000000009
:101090007CFE01084170706C69636174696F6E5CFD
:1010A0005379735C7379735F71756575655F74618E
:1010B000736B2E63000000004E4F5F5441470000E9
:1010C000625379735461736B3A74705379735461DA
:1010D000736BC8CECEF1B6D4CFF3B4B4BDA8CAA753
:1010E000B0DC000000B502460348A0F80D200AF06D
:1010F00007FC012000BD00008899002070B504465F
:101100000D4652480078A0420DD050480470007837
:10111000012809D14E48007800F001000028F3D0E2
:101120004CA006F0C5FC8AE048480078022814D19B
:1011300050488078022806D000231A4602214E48E3
:10114000006801F0D5FC4248007800F0010000285A
:1011500075D04AA006F0ACFC71E03C48007803284A
:1011600014D144488078032806D000231A4603216E
:101170004148006801F0BCFC3548007800F00100EF
:1011800000285CD045A006F093FC58E02F4800787A
:10119000042814D137488078042806D000231A4642
:1011A00004213548006801F0A3FC2948007800F0CC
:1011B0000100002843D041A006F07AFC3FE023481C
:1011C0000078052817D12B488078052806D0002301
:1011D0001A4606212848006801F08AFC01200AF01E
:1011E0008AFB1B48007800F00100002827D03BA0B4
:1011F00006F05EFC23E015480078062813D11D4850
:101200008078062806D000231A4607211A4800686D
:1012100001F06EFC0E48007800F0010078B137A0B4
:1012200006F046FC0BE009480078072807D108487B
:10123000007800F0010010B138A006F039FC15B1BB
:101240000420FFF7D3F8012070BD0000889900202A
:1012500034010020625379735461736B3ACFB5CD7A
:10126000B3C8CECEF1D7B4CCACCEAAB3F5CABCBB12
:10127000AF0D0A00A8020020C00600206253797357
:101280005461736B3ACFB5CDB3C8CECEF1D7B4CCE1
:10129000ACCEAAB9D8B1D5D6D00D0A0062537973B5
:1012A0005461736B3ACFB5CDB3C8CECEF1D7B4CCC1
:1012B000ACCEAAB9D8B1D50D0A000000625379733B
:1012C0005461736B3ACFB5CDB3C8CECEF1D7B4CCA1
:1012D000ACCEAAB4EDCEF30D0A00000062537973D0
:1012E0005461736B3ACFB5CDB3C8CECEF1D7B4CC81
:1012F000ACCEAAC6F4B6AFD6D00D0A00625379734D
:101300005461736B3ACFB5CDB3C8CECEF1D7B4CC60
:10131000ACCEAAB9A4D7F70D0A00000062537973C6
:101320005461736B3A2D2D2D2DB8FCD0C2CFB5CDA5
:10133000B3C8CECEF1D7B4CCACCEAAC9FDBCB6C42E
:10134000A3CABD2D2D2D2D0D0A0000007FB504462A
:101350000D468948007800F0010028B986480078D9
:10136000C0F3C000002870D084480078A04203D1A8
:1013700083480078A842F6D082484078C0F38000C5
:1013800088B106F0F1FB0A2190FBF1F67EA040F255
:10139000D441844B84A2CDE90106009189A10120AA
:1013A00003F0E2FA91E077484078C0F3C00088B1DA
:1013B00006F0DAFB0A2190FBF1F684A040F2D64158
:1013C000784B79A2CDE9010600917EA1012003F0BE
:1013D000CBFA7AE06B48407800F0010078B16948B8
:1013E000B0F9110080A14FF49B626E4BCDE9002152
:1013F00002906DA273A1012003F0B6FA65E0614886
:101400004078C0F3400078B15E48B0F913007DA188
:1014100040F2DA42634BCDE90021029062A269A159
:10142000012003F0A1FA50E056484078C0F30010C4
:1014300060B17BA040F2DC415A4B5BA2CDE90010C9
:1014400060A1012003F090FA3FE042E04D4840786F
:10145000C0F3401058B177A040F2DE41514B52A288
:10146000CDE9001057A1012003F07EFA2DE0454898
:101470004078C0F3C01058B173A04FF49C61494B41
:1014800049A2CDE900104FA1022003F06DFA1CE043
:101490003C484078C0F3801058B175A040F2E2415A
:1014A000404B41A2CDE9001046A1022003F05CFAB6
:1014B0000BE078A040F2E4413A4B3BA201AE31C6CA
:1014C000009140A1012003F04FFA2C4804702C48F1
:1014D0000570002C16DD55B12A48B0F80100611ED8
:1014E00001228A4010432749A1F801000EE0254857
:1014F000B0F80100611E01228A4090432149A1F801
:10150000010003E000201F49A1F801001D48B0F8C8
:10151000010088B11B484078C0F3C00020B91948C9
:101520004078C0F3401020B30023224604216148D4
:10153000006801F0DDFA1CE012480078042818D198
:1015400001210620FFF7DAFD0B48007800F00100CA
:1015500020B909480078C0F3C00050B156A040F24D
:101560000351104B10A2CDE9001016A1032003F087
:10157000FBF9002004B070BD3401002023010020DD
:101580002401002088990020625379735461736BA1
:101590003ACAE4C8EBB9FDD1B920B5E7D1B93D25C8
:1015A000645600006CFE01084170706C69636174E0
:1015B000696F6E5C5379735C7379735F7461736B7D
:1015C0002E6300004E4F5F54414700006253797311
:1015D0005461736B3ACAE4C8EBC7B7D1B920B5E719
:1015E000D1B93D2564560000625379735461736B21
:1015F0003ACFB5CDB3B9FDCEC2202564C9E3CACF79
:10160000B6C80000625379735461736B3ACFB5CD9D
:10161000B3B5CDCEC22C2564C9E3CACFB6C800008D
:10162000625379735461736B3ACFB5CDB3B9FDD4BE
:10163000D8000000625379735461736B3A534F437F
:10164000203D203025000000625379735461736B94
:101650003AC6F4B6AFC8CECEF1B5C8B4FDB3ACCA85
:10166000B12CBFAACABCB9D8B1D5CFB5CDB3000093
:10167000625379735461736B3AB9D8B1D5CFB5CD94
:10168000B3C8CECEF1B5C8B4FDB3ACCAB12CCDCB86
:10169000B3F60000625379735461736B3ACFB5CDE2
:1016A000B3B4EDCEF320B4FAC2EB256420C0E0D091
:1016B000CD25640028010020625379735461736B57
:1016C0003AC7E5B3FDB4EDCEF32CD6D8D0C2BDF801
:1016D000C8EBB9A4D7F7D7B4CCAC000070B50546B9
:1016E0000C4635B1012D1ED0022D36D0032D7DD1F3
:1016F0004DE05048C07800F00100A04212D04E48A2
:10170000007800F0010038B14A48C07800F00102CA
:1017100021464AA006F0CCF94648C07864F30000A0
:101720004449C87083E04348C078C0F34000A042F9
:1017300012D04148007800F0010038B13D48C0782F
:10174000C0F34002214649A006F0B2F93948C078FA
:1017500064F341003749C87069E03648C078C0F387
:101760008000A04212D03448007800F0010038B167
:101770003048C078C0F38002214648A006F098F9AE
:101780002C48C07864F382002A49C8704FE0294889
:10179000C07800F00100A04212D02748007800F085
:1017A000010038B12348C07800F00102214623A08F
:1017B00006F07EF91F48C07864F300001D49C87028
:1017C0001C48C078C0F34000A04214D01A480078EA
:1017D00000F0010038B11748C078C0F3400221463C
:1017E00022A006F065F91348C07800E01DE064F31C
:1017F00041001049C8700F48C078C0F38000A04273
:1018000012D00D48007800F0010038B10948C078C6
:10181000C0F38002214621A006F04AF90548C078AD
:1018200064F382000349C87001E0002070BD00BF6E
:101830000120FBE78899002034010020625379736E
:101840005461736B3AC9E8D6C3B3E4B5E7D0EDBFD2
:10185000C93A20C9E8D6C33D256420B5B1C7B0D781
:10186000B4CCAC3D2564200D0A00000062537973AE
:101870005461736B3AC9E8D6C3B7C5B5E7D0EDBFBD
:10188000C93A20C9E8D6C33D256420B5B1C7B0D751
:10189000B4CCAC3D2564200D0A000000625379737E
:1018A0005461736B3AC9E8D6C3C7BFD6C6B9D8BBB3
:1018B000FA3A20C9E8D6C33D256420B5B1C7B0D7F0
:1018C000B4CCAC3D2564200D0A00000002460AB9E4
:1018D0000020704721B1012908D002291ED10EE055
:1018E000022050720020A2F80F0018E0B2F8130096
:1018F0004FF4FA6393FBF0F0A2F80F000FE00F3201
:1019000090884FF47A7393FBF0F01080908842F245
:10191000107393FBF0F050800F3A00E000BF00BF5F
:1019200051750120D5E7000010B5032200210120E8
:101930000CF005FD0C49086000231A4619460A48B8
:1019400000680CF09DFD094804F059FD0848006846
:101950000849086009F0FAFE0748808820F0100066
:1019600010300549888010BD40010020A899002052
:10197000480100203C010020889900203EB5044623
:101980000020A072607020812081E08004F11700A7
:1019900004F0A3FC6449088008460088032190FBFA
:1019A000F1F201FB1200002820D05F4800880028D7
:1019B0001CD05E48007800F0010020B95B48007838
:1019C000C0F3C00060B15848008859A14522614B5E
:1019D000CDE90021029060A268A1012002F0C4FFBD
:1019E00004F1170004F00BFD00203EBD65480079AE
:1019F00000F0010020B9012020700020608024E068
:101A00004948008860B10122214604F1170004F022
:101A100089FC0222A11C04F1170004F083FC14E0ED
:101A200058480078062804D10720207000206080E4
:101A30000BE054480078042803D120700020608017
:101A400003E003202070002060802078082859D20D
:101A5000DFE800F05904101C2834404C334800786B
:101A600000F0010010B148A006F022F85048C4F878
:101A70000F0055E02D48007800F0010010B14DA096
:101A800006F016F85348C4F80F0049E027480078DC
:101A900000F0010010B150A006F00AF85748C4F851
:101AA0000F003DE02148007800F0010010B154A083
:101AB00005F0FEFF5A48C4F80F0031E01B480078DB
:101AC00000F0010010B157A005F0F2FF5D48C4F826
:101AD0000F0025E01548007800F0010010B15AA071
:101AE00005F0E6FF6048C4F80F0019E00F480078E1
:101AF00000F0010010B15DA005F0DAFF6348C4F802
:101B00000F000DE000BF0020C4F80F006080074800
:101B1000007800F0010010B15DA005F0C9FF00BF22
:101B200000BF012061E700002C01002034010020EB
:101B3000625379735461736B3AC8CECEF1B6D3C198
:101B4000D0B3A4B6C8D2ECB3A320B3A4B6C825645E
:101B5000000000008BFE01084170706C69636174C5
:101B6000696F6E5C5379735C7379735F71756575BA
:101B7000655F7461736B2E63000000004E4F5F540D
:101B800041470000889900200D0A20625379735460
:101B900061736B3A2D2D2D2DD7B0D4D8B3F5CABCB7
:101BA000BBAFC8CECEF12D2D2D2D200D0A0000008B
:101BB00061DA0108625379735461736B3A2D2D2DEC
:101BC0002DD7B0D4D8B9D8B1D5C8CECEF12D2D2DC2
:101BD0002D0D0A00A9D60108625379735461736B05
:101BE0003A2D2D2D2DD7B0D4D8B9D8B1D5CDEAB353
:101BF000C9C8CECEF12D2D2D2D0D0A00B5DF01085F
:101C0000625379735461736B3A2D2D2D2DD7B0D457
:101C1000D8B4EDCEF3C8CECEF12D2D2D2D0D0A006A
:101C2000B1D80108625379735461736B3A2D2D2D2D
:101C30002DD7B0D4D8D6D8D6C3C8CECEF12D2D2D21
:101C40002D0D0A0029DE0108625379735461736B0C
:101C50003A2D2D2D2DD7B0D4D8C6F4B6AFC8CECEE0
:101C6000F12D2D2D2D0D0A0091D5010862537973A8
:101C70005461736B3A2D2D2D2DD7B0D4D8B9A4D77C
:101C8000F7C8CECEF12D2D2D2D0D0A00A1E00108B3
:101C9000625379735461736B3A2D2D2D2DD7B0D4C7
:101CA000D8BFD5C8CECEF12D2D2D2D0D0A000000A8
:101CB00038B504460020009004B938BD0020A07259
:101CC0006070A0802081E08004F1170004F005FB23
:101CD00080B20090BDF80000032190FBF1F201FBFF
:101CE000120040B1BDF8000028B104F1170004F063
:101CF00086FB0020E1E7BDF8000060B1012221462B
:101D000004F1170004F00EFB0222A11C04F11700DD
:101D100004F008FB03E001202070002060802078A0
:101D200098B1012804D0022806D003280CD107E07E
:101D30000A48C4F80F000DE00948C4F80F0009E094
:101D40000848C4F80F0005E000BF0020C4F80F00E9
:101D5000608000BF00BF0120AFE70000D1D00108C4
:101D600039D10108E3D101083EB504460020A07234
:101D7000607020812081E08004F1170004F0ADFA4A
:101D80005549088008460088032190FBF1F201FBC9
:101D90001200002820D05048008800281CD04F484E
:101DA0000078C0F3401020B94C480078C0F3C00060
:101DB00060B1494800884AA14622524BCDE9002132
:101DC000029051A25BA1012002F0CEFD04F11700A8
:101DD00004F015FB00203EBD58488088C0F38030D9
:101DE00020B9012020700020608012E03A4800886D
:101DF00060B10122214604F1170004F093FA022297
:101E0000A11C04F1170004F08DFA02E000202070FC
:101E10006080207807284DD2DFE800F04D04101CC8
:101E2000283440002D480078C0F3401010B144A081
:101E300005F03EFE4D48C4F80F0049E02748007801
:101E4000C0F3401010B14AA005F032FE5248C4F869
:101E50000F003DE021480078C0F3401010B14FA0C2
:101E600005F026FE5848C4F80F0031E01B48007802
:101E7000C0F3401010B155A005F01AFE5D48C4F83B
:101E80000F0025E015480078C0F3401010B15AA0AB
:101E900005F00EFE6248C4F80F0019E00F48007804
:101EA000C0F3401010B15FA005F002FE6748C4F80F
:101EB0000F000DE000BF0020C4F80F00608007484D
:101EC0000078C0F3401010B161A005F0F1FD00BF33
:101ED00000BF01207FE70000C4060020340100207D
:101EE00062446973705461736B3AC8CECEF1B6D355
:101EF000C1D0B3A4B6C8D2ECB3A320B3A4B6C8254E
:101F00006400000020FF0108486172647761726517
:101F10005C4D445F446973706C61795C6D645F64AF
:101F20006973706C61795F71756575655F746173F4
:101F30006B2E63004E4F5F5441470000889900208C
:101F40000D0A2062446973705461736B3A2D2D2D14
:101F50002DD7B0D4D8B3F5CABCBBAFCFD4CABEC896
:101F6000CECEF12D2D2D2D200D0A000099C4010893
:101F700062446973705461736B3A2D2D2D2DD7B067
:101F8000D4D8B9D8B1D5D6D0CFD4CABEC8CECEF168
:101F90002D2D2D2D0D0A0000EDC30108624469733B
:101FA000705461736B3A2D2D2D2DD7B0D4D8B9D87C
:101FB000B1D5CDEAB3C9CFD4CABEC8CECEF12D2D8E
:101FC0002D2D0D0A0000000001C50108624469734F
:101FD000705461736B3A2D2D2D2DD7B0D4D8B4ED3C
:101FE000CEF3CFD4CABEC8CECEF12D2D2D2D0D0AE5
:101FF000000000003DC401086244697370546173BD
:102000006B3A2D2D2D2DD7B0D4D8C6F4B6AFCFD482
:10201000CABEC8CECEF12D2D2D2D0D0A0000000018
:1020200075C3010862446973705461736B3A2D2D56
:102030002D2DD7B0D4D8B9A4D7F7CFD4CABEC8CE27
:10204000CEF12D2D2D2D0D0A0000000065C50108D3
:1020500062446973705461736B3A2D2D2D2DD7B086
:10206000D4D8BFD5C8CECEF12D2D2D2D0D0A000010
:1020700010B50F48006808B9002010BD1F210D4899
:10208000FBF788F919200B49A1F81100A1F81300FA
:102090000949B1F87500FFF725F800210120FFF785
:1020A0002DF803480068054908600120E5E70000B5
:1020B0002801002088990020A49800201801002001
:1020C000F8B506460C4615461248006800B9F8BD3A
:1020D0001148007890B930B2104908801048048047
:1020E0001048058001200C49087000200223024698
:1020F00001460090074800680CF0C4FD0748B0F99D
:102100000000032803DB00210120FEF743FB00BF92
:10211000DDE70000900200209A02002094020020D7
:10212000960200209802002070B50024334D284606
:1021300000F0B2F944B2002C0BDA31480078C0F359
:10214000400018B121462FA005F0B2FC4FF0FF303F
:1021500070BD3548B0F860004AF6AA21884212D115
:1021600027480078C0F3400020B10AF0F1FE2FA00C
:1021700005F09EFC3548808820F02000203033494F
:1021800088800120E4E7284600F048FA0446002C45
:102190000BDC1B480078C0F3400018B121462CA08E
:1021A00005F086FC6FF00100D2E74AF6AA201E492E
:1021B000A1F86000284600F0B5FA44B2002C0BDC10
:1021C0000F480078C0F3400018B1214629A005F05F
:1021D0006FFC6FF00200BBE709480078C0F34000D5
:1021E00020B10AF0B5FE2CA005F062FC17488088EB
:1021F00020F02000154988800220A9E72DFE010863
:102200003401002062417070496E666F3A4150504F
:10221000B2CECAFDB6C1C8A1CAA7B0DC20B4FAC20A
:10222000EB25640D0A000000A49800206241707044
:10223000496E666F3A415050B2CECAFDB2BBD0E88B
:10224000D2AAD6D8D6C30D0A000000008899002073
:1022500062417070496E666F3A415050B2CECAFD0D
:10226000B3F5CABCBBAFCAA7B0DC20B4FAC2EB2539
:10227000640D0A0062417070496E666F3A415050B9
:10228000B2CECAFDB8FCD0C2CAA7B0DC20B4FAC234
:10229000EB25640D0A00000062417070496E666FA4
:1022A0003A415050B2CECAFDD6D8D6C3B3C9B9A6AA
:1022B0000D0A000070B5064616B94FF0FF3070BD2C
:1022C0000024002523493046FBF794F8D0B9602458
:1022D000002322462049214802F040F90546A54244
:1022E00002D06FF00100EAE70824002322461A49D1
:1022F00060311B4802F032F90546A54222D06FF04A
:102300000200DCE715493046FBF774F840B9602459
:10231000002322461049304602F020F9054611E01C
:102320000F493046FBF766F848B9082400232246D7
:1023300009496031304602F011F9054602E06FF0BC
:102340006200BCE7A54202D06FF02700B7E701208A
:10235000B5E70000E4FD010820990020F2FD010826
:10236000FFFD010810B500241648FFF7A3FF44B293
:10237000002C0BDC14480078C0F3400018B1214653
:1023800012A005F095FB4FF0FF3010BD0221184858
:1023900080F86410002180F86510164800F03EF8BF
:1023A00044B2002C0BDC08480078C0F3400018B1A0
:1023B000214611A005F07CFB6FF00100E5E701204C
:1023C000E3E70000E4FD0108340100206241707081
:1023D000496E666F3A424F4F54B2CECAFDB6C1C87D
:1023E000A1CAA7B0DC20B4FAC2EB25640D0A000034
:1023F00020990020FFFD010862417070496E666FF0
:102400003A424F4F54B2CECAFDB8FCD0C2CAA7B0B0
:10241000DC20B4FAC2EB25640D0A000070B5044656
:1024200014B94FF0FF3070BD002517492046FAF768
:10243000E1FF20B902F02CF818B3A81EF3E7134906
:102440002046FAF7D7FF48B960252A4610492046AA
:1024500002F0ACF9A8B16FF00900E4E70D4920469D
:10246000FAF7C8FF50B908252A46094960312046C5
:1024700002F09CF928B16FF00A00D4E76FF0620017
:10248000D1E70120CFE70000E4FD0108F2FD0108DB
:1024900020990020FFFD010870B5064616B94FF0DF
:1024A000FF3070BD0025002455493046FAF7A2FFE1
:1024B000A8BB602500232A465249534802F04EF833
:1024C0000446AC4202D06FF00100EAE70E2500237B
:1024D0002A464C4960314D4802F040F80446AC426F
:1024E00002D06FF00200DCE7042500232A464549AC
:1024F0006E31474802F032F80446AC4201D06842DF
:10250000CFE7072500232A463E497231414802F0B1
:1025100025F80446AC426BD06FF00900C1E7FFE735
:1025200039493046FAF766FF40B9602500232A464C
:102530003449304602F012F8044659E03349304637
:10254000FAF758FF48B90E2500232A462D49603175
:10255000304602F003F804464AE02F493046FAF7C5
:1025600049FF00BB602500232A462649264801F082
:10257000F5FF0446AC4208D024B900202149A1F857
:1025800060008EE76FF013008BE70E2500232A46CC
:102590001C4960311D4801F0E1FF0446AC4227D0E0
:1025A0006FF014007DE71A493046FAF723FF58B957
:1025B000042500232A4613496E31304601F0CEFF30
:1025C0000446ACB900206CE712493046FAF712FF16
:1025D00058B9072500232A460A497231304601F0CE
:1025E000BDFF044624B900205BE76FF0620058E7A6
:1025F000AC4202D06FF0270053E7012051E7000002
:102600000AFE0108A498002017FE010823FE010815
:102610003DFE010843FE01082DFE010810B50446E9
:1026200014B94FF0FF3010BD35492046FAF7E2FEED
:10263000C0B9602233493448FAF785FE0020324998
:10264000A1F86000881C31490A6802664A6842663F
:10265000896881666C30FDF701FF2B487230FEF708
:10266000ADFC4AE02A492046FAF7C4FE28B96022A8
:1026700024492548FAF767FE3FE026492046FAF745
:10268000B9FE60B900202049A1F86000881C1F49EC
:102690000A6802664A684266896881662DE01E49BA
:1026A0002046FAF7A7FE88B9602216491648FAF7BD
:1026B0004AFE00201449A1F86000881C13490A68EA
:1026C00002664A6842668968816616E013492046B8
:1026D000FAF790FE20B90C486E30FDF7BFFE0CE013
:1026E0000F492046FAF786FE20B907487230FEF7F8
:1026F00065FC02E06FF0620095E7012093E70000BF
:102700000AFE010800D80008A4980020E8F7FF1F7F
:1027100017FE010823FE01082DFE01083DFE0108F9
:1027200043FE010870B5044614B94FF0FF3070BD88
:10273000002548492046FAF75DFE50BB60252A4631
:102740004549464802F032F810B16FF00100EEE75B
:102750000E252A4640496031414802F027F810B161
:102760006FF00200E3E704252A463B496E313D48FD
:1027700002F01CF808B16842D9E707252A46364915
:102780007231394802F012F8002860D06FF0090069
:10279000CDE732492046FAF72DFE50B960252A468A
:1027A0002D49204602F002F8002850D06FF01300A7
:1027B000BDE72B492046FAF71DFE50B90E252A46E3
:1027C00025496031204601F0F1FFE0B36FF01400BD
:1027D000ADE726492046FAF70DFEA0B960252A4646
:1027E0001D491E4801F0E2FF10B16FF015009EE791
:1027F0000E252A4618496031194801F0D7FF10B359
:102800006FF0160093E717492046FAF7F3FD50B929
:1028100004252A4610496E31204601F0C7FF90B1C9
:102820006FF0170083E710492046FAF7E3FD58B927
:1028300007252A4608497231204601F0B7FF10B13A
:102840006FF01D0073E702E06FF062006FE7012098
:102850006DE700000AFE0108A498002017FE010899
:1028600023FE01083DFE010843FE01082DFE01087C
:102870007CB5044600254FF40070019000200090C4
:102880000CB9801E7CBD04F1160003F026FD617AB0
:1028900088427FD3607D20B1012855D0022873D1B2
:1028A0006CE00222694604F1160003F03BFD43E0B0
:1028B0009DF800002178884222D19DF801006178BE
:1028C000884207D09DF80100EF2803D09DF8010051
:1028D000EE2815D101220DF1020104F1160003F0DA
:1028E00021FD9DF80200032802DA4FF0FF30C9E70E
:1028F0009DF80200607201212046FEF7E7FF1CE010
:1029000004F1160003F0E9FC00B916E09DF801009F
:102910008DF8000001220DF1010104F1160003F011
:1029200001FDBDF80400401E80B20190BDF8040016
:1029300010B96FF00200A5E7BAE700BF607D10B9DB
:102940006FF003009EE700BF04F1160003F0C5FC22
:10295000617A884210D3607AA070204600F018FB9C
:10296000002802DC6FF001008CE702212046FEF710
:10297000ADFF02E00EE007E00BE000BF0125002103
:102980002046FEF7A3FF04E000212046FEF79EFF4D
:1029900000BF00BF284675E72DE9F04104460F4609
:1029A00016461D464FF00108FA2D03DD4FF0FF30AB
:1029B000BDE8F08114B96FF00100F9E708F0D6FD29
:1029C000B8F1000F1BDD2078E07061782171E81C00
:1029D0006071A7710021E17136B12DB12A463146EF
:1029E00004F10800FAF7AFFCA81DA0706079411E41
:1029F000A01D06F0B3FBA178491EE21C505408F05C
:102A0000DFFD4046D4E72DE9F04704460D46164663
:102A10001F464FF00109062D03DA4FF0FF30BDE8E5
:102A2000F08708F0A3FD05F12E08404604F00AFDEA
:102A30002060284604F006FD2168C1F803002068E4
:102A400020B32068D0F8030000B3AA2021680870E2
:102A5000206846702068A0F8137000202168A1F853
:102A60000F002168A1F81100226802F12E0102F185
:102A700016002A4603F048FC216801F1160003F015
:102A8000BEFC00212068FEF721FF09E02168D1F893
:102A9000030008F0B3FD206808F0B0FD6FF00109F5
:102AA00008F08EFD4846BAE72DE9F04104460D4690
:102AB00016464FF00108062D03DA4FF0FF30BDE84F
:102AC000F08108F053FDEF1C384604F0BBFC206099
