:020000040800F2
:10000000E834002049010008F1070008ED07000866
:10001000EF070008C7070008FB0700080000000002
:10002000000000000000000000000000F5070008CC
:10003000C907000800000000F3070008F7070008E0
:100040006301000863010008630100086301000800
:100050006301000863010008CD0700086301000880
:100060007D080008630100086301000863010008BF
:1000700063010008630100086301000863010008D0
:1000800063010008630100086301000863010008C0
:1000900063010008630100086301000863010008B0
:1000A00063010008630100086301000863010008A0
:1000B0006301000863010008630100086301000890
:1000C0006301000863010008630100086301000880
:1000D00063010008E10B00086301000863010008E8
:1000E00061080008B5080008630100086301000802
:1000F0006301000863010008630100086301000850
:10010000630100086301000863010008630100083F
:10011000630100086301000863010008630100082F
:10012000630100086301000863010008630100081F
:10013000DFF810D000F0FAFA0048004759480008EC
:10014000AFF30080E83400200648804706480047A7
:10015000FEE7FEE7FEE7FEE7FEE7FEE7FEE7FEE777
:10016000FEE7FEE75D0B00083101000810B5431AF9
:10017000934209D28318881803E010F8011D03F890
:10018000011D521EF9D210BD40EA01039B0703D0A6
:1001900009E008C9121F08C0042AFAD203E011F8C6
:1001A000013B00F8013B521EF9D210BDD2B201E072
:1001B00000F8012B491EFBD270470022F6E710B56C
:1001C00013460A4604461946FFF7F0FF204610BDC5
:1001D00010B5044604E00B7800F8013B03B1491C5C
:1001E000521EF8D2204610BD421C10F8011B0029F7
:1001F000FBD1801A704710B5002200E0521C835CCE
:100200008C5CA34201D1002BF8D1D8B2E1B2401AE4
:1002100010BD30B505460020034600E05B1C93424C
:1002200005D2EC5CC85C201A01D1002CF6D130BD9F
:100230002DE9FE4F804681EA0300C00F0C46009076
:1002400021F0004123F00045B8EB0200A94105D29E
:100250004046214690461C460B46024623F000408D
:10026000104347D0270DC7F30A00C3F30A51029089
:10027000401A019040286BDAC3F3130040F4801B4E
:100280000098924620B10023D2EB030A63EB0B0BDC
:1002900001985946C0F14002504600F098F90646D0
:1002A0000D4650465946019A00F0A0F910EB08009F
:1002B0006141002487EA115284EAE7731A4340D06F
:1002C000009A62B3019A012A4FEA075215DC001B1B
:1002D00061EB02014FF0004202EA0752CDE9004211
:1002E000001C41F5801132462B4600F0A0F903B006
:1002F000BDE8F08F40462146F9E7001B61EB0201A3
:10030000001C41F5801300185B412018A2F500176E
:1003100047EB030140EAD570B6196D4111E06D0855
:100320004FEA360645EAC0754FEA0752001B61EBFB
:100330000201001C41F5801149084FEA3000001904
:10034000514132462B4603B0BDE8F04F00F060B992
:100350000098012240000023D0EB020263EBE0731F
:10036000009821464FEAE074B8EB000061EB04010D
:10037000E9E783F000435BE781F0004158E72DE9AE
:10038000FE4F81EA030404F0004421F00041009490
:100390004FF0000B23F0004350EA01045ED052EA14
:1003A00003045BD0C3F30A54C1F30A552C44A4F2EE
:1003B000F3340194A0FB0254C1F3130141F4801102
:1003C000C3F3130343F4801301FB024400FB034E09
:1003D000840A970A44EA815447EA8357A4FB0768D2
:1003E00002958D0A05FB07854FEA932C04FB0C54FC
:1003F0002705029D4FEA065847EA1637B5EB080570
:100400006EEB070C870E920E47EA811742EA8312C1
:10041000A7FB0201B6EB0B0164EB00042B0D43EAD2
:100420000C335E1844EB1C50DA465146E7FB0201E0
:10043000C5F313044FEA0B3343EA14534FEA043273
:10044000019C43EA0603A4F10C040294009CCDE94C
:1004500000B400F0ECF803B0BDE8F08F00200146D6
:10046000F9E72DE9F04D81EA030404F0004B21F097
:10047000004514464FF0000A23F0004150EA0502FF
:1004800020D054EA01021DD0C5F30A570246C5F335
:100490001303C1F31300C1F30A5640F4801543F46B
:1004A0008013A7EB0608101BD64608F2FD3873EB45
:1004B000050002D308F1010801E092185B41B8F190
:1004C000000F03DA00200146BDE8F08D00204FF454
:1004D0008011064684460EE0171B73EB050705D313
:1004E000121B63EB050306434CEA010C49084FEA73
:1004F000300092185B4150EA0107EDD152EA030047
:1005000012D082EA040083EA0501084305D0101BDB
:10051000AB4106D20122002306E000224FF0004347
:1005200002E06FF0010253101AEB06004CEB085189
:1005300010EB0A0041EB0B01BDE8F04D00F068B88C
:1005400030B50B46014600202022012409E021FAA3
:1005500002F59D4205D303FA02F5491B04FA02F5A0
:100560002844151EA2F10102F1DC30BD2DE9F05F37
:100570000546002092469B46884606468146402412
:100580001BE0284641464746224600F0E1F8534624
:100590005A46C01A914110D311461846224600F01F
:1005A00016F82D1A67EB01084F462246012000215C
:1005B00000F00DF817EB00094E41201EA4F10104D4
:1005C000DFDC484631462A464346BDE8F09F202AF4
:1005D00004DB203A00FA02F1002070479140C2F19A
:1005E000200320FA03F3194390407047202A06DBCA
:1005F000CB17203A41FA02F043EAE07306E041FAF1
:1006000002F3D040C2F120029140084319467047DE
:1006100010B5141E73F1000408DA401C41F100010A
:1006200092185B411A4301D120F0010010BD2DE961
:10063000F04D92469B4611B1B1FA81F202E0B0FA58
:1006400080F220329046FFF7C2FF04460F4640EA90
:100650000A0041EA0B0153465A46084313D011469B
:1006600053EA010019D0C8F14002504600F070F87A
:1006700005460E46504659464246FFF7A8FF084336
:1006800005D0012004E020463946BDE8F08D002069
:10069000054346EAE0762C4337430A986305E40AAB
:1006A000A0EB08000022FD0A44EA47540A3002D5B4
:1006B00000200146E9E7010510196941DDE9084517
:1006C00000196941BDE8F04DA2E7C1F30A52C1F338
:1006D000130140F2FF3341F480119A4202DA002004
:1006E0000146704740F233439A42A2F2334202DCA1
:1006F000524200F02DB8FFF76ABF000030B5041E6B
:1007000071F1000404DB4FF00044404264EB01014E
:10071000141E73F1000405DB1C464FF000435242E7
:1007200063EB0403994208BF904230BD064C074D6D
:1007300006E0E06840F0010394E8070098471034B1
:10074000AC42F6D3FFF7F8FCFC7600081C770008F3
:10075000202A04DB203A21FA02F00021704721FA16
:1007600002F3D040C2F1200291400843194670477D
:1007700070B58C1810F8015B15F0070301D110F863
:10078000013B2A1106D110F8012B03E010F8016B90
:1007900001F8016B5B1EF9D12B0705D40023521E13
:1007A0000DD401F8013BFAE710F8013BCB1A921C7B
:1007B00003E013F8015B01F8015B521EF9D5A14279
:1007C000D8D3002070BDFEE77047000010B50120AF
:1007D00003F08CFB002806D0034901200870BDE817
:1007E000104003F07DBB10BD2C000020FEE7FEE7AB
:1007F00070477047704705F0CBBAFEE77047704707
:1008000047323430345F5665725F335F335F31286F
:1008100032333056290000000000000000000000C4
:100820004D61792020312032303236000000000046
:1008300000000000000000000000000000000000B8
:1008400032303A31353A303000000000000000000C
:100850000000000000000000000000000000000098
:1008600010B54FF40054204603F040FB002804D09C
:100870002046BDE8104003F033BB10BD10B5042086
:1008800003F034FB002804D0BDE81040042003F03E
:1008900027BB10BD0907090E002806DA00F00F007B
:1008A00000F1E02080F8141D704700F1E02080F88E
:1008B0000014704710B5022004F00CFB00280CD087
:1008C000022004F0FFFA4FF40034204603F008FB46
:1008D0002046BDE8104003F0FBBA10BD2DE9F04101
:1008E00005460E4617460A4B1878532801D000F0EB
:1008F000BBF9EFF31184202080F311883A4631468A
:10090000284600F007F8E1B281F31188BDE8F081D4
:10091000D404002070B50E461446184900EB400080
:1009200001EBC00518356869002806D0012811D0F0
:1009300002281BD00024204670BD284600F0C6F9CE
:10094000A04201D20024F6E722463146284600F0B4
:10095000EEFAF0E7284600F0B9F9A04200D20446CA
:1009600022463146284600F0E2FAE4E722463146C4
:10097000284600F0AEFA0446DDE70000D40400206B
:100980000FB408B504A900916A46039900F003F872
:1009900001B05DF814FB2DE9F04198B080460C469B
:1009A000164603A813904020149000271597CDF801
:1009B0005C80169714F8011B39B1252917D013A8AC
:1009C00000F068FA16980028F4DA169800280ADD74
:1009D000159820B103A94046159AFFF77FFFDDE97E
:1009E000151008441690169818B0BDE8F081002143
:1009F00001202278232A1ED02B2A18D02D2A0ED08F
:100A0000302A10D000200028F3D12578A5F130023B
:100A10000A2A14D3002322782E2A17D023E041F08B
:100A20000101641CEFE741F00201641CEBE741F0B7
:100A30000401641CE7E741F00801641CE3E7641C5F
:100A400000EB800005EB40003038DEE7641C2578C1
:100A5000A5F130020A2A06D2641C03EB830205EBDF
:100A60004203303BF3E76C2D0DD0682D0BD0702D79
:100A70004ED00BDC252D58D0582D2FD0632D0CD007
:100A8000642D56D112E0641C2578ECE7732D31D02B
:100A9000752D17D0782D4CD120E03068011D3160C4
:100AA0000078C1B213A800F0F5F942E03268151DD4
:100AB00035601568CDE900010A22294613A800F027
:100AC00011F936E03268151D35601568CDE9000171
:100AD0000A22294613A800F071F92AE03268151D90
:100AE00035601568CDE900011022294613A800F0F1
:100AF00065F91EE03068011D3160056815F8011BBD
:100B0000B9B113A800F0C6F916980028F6DA10E07B
:100B10003068011D316001680820CDE900070346F7
:100B2000102213A800F04AF903E0252113A800F0D1
:100B3000B1F9641C46E700000749086840F0080066
:100B400040F0020040F0010040F0400020F0800042
:100B500020F00400086070479804002082B01D480F
:100B6000016841F4700101601B48016841F0010116
:100B7000016001688907FCD5416841F0800141604E
:100B80000022019202E00199491C0191019950292A
:100B9000F9D3416841F090014160019202E001996E
:100BA000491C019101995029F9D3416821F00301B1
:100BB00041600168094B194001604FF41F018160D9
:100BC000016821F4802101604260C26202B004F039
:100BD0007BBB000088ED00E000100240FFFFF6FE46
:100BE00070B51B4E1B4C3146204604F00DFD251DF3
:100BF00058B13146204604F0FEFC1748006820B189
:100C000001222946163003F0D2FD144E204631460B
:100C100004F0FAFC002810D031462646304604F095
:100C2000EAFC0F4C61882288914207D20D48618806
:100C3000405C28606088401C608070BD40F20731D5
:100C4000304604F0C4FC00206080208070BD0000AD
:100C50000503050000380140B40400200703070025
:100C6000A8040020B40F002010B5134CA821204682
:100C7000FFF7A3FA03202061606110A0A06104F1D6
:100C8000A800E0614FF4806020620020A0626062F2
:100C9000E0620AA1216604F5956161661021A166F2
:100CA0002067E06660670849C0F10F028A5C225441
:100CB000401C1028F8D310BDD40400205465726D78
:100CC000696E616C00000000066C00080169C26872
:100CD000914204D88068801A0844401E7047881AE0
:100CE000401E70472DE9FC5F0646DDE90C480F46C3
:100CF00092469946C7F1000B002F01DA584600E0F2
:100D00003846012502E090FBFAF06D1C5045FADAF6
:100D1000A94500D94D462CB1002F02DB5FEA48708F
:100D200000D5641E5FEA887002D5B9F1000F0FD0BC
:100D30005FEAC8700CD144B90AE0641E2021304635
:100D400000F0A8F8F068002802DB0CB1A542F4D34B
:100D5000F068002830DB002F05DA5F462D21304691
:100D600000F098F806E05FEA487003D52B21304682
:100D700000F090F8F06800281EDB08F0030002285D
:100D80000FD1B9F1000F0CD144B90AE0641E302133
:100D9000304600F07FF8F068002802DB0CB1A54275
:100DA000F4D3F068002807DBCDE900484B465246F3
:100DB0003946304600F002F8BDE8FC9F2DE9F84FB7
:100DC0008246DDE90A4B884617469946404601258A
:100DD000012602E0B0FBF7F0761CB842FAD2B1452A
:100DE00000D94E465FEACB7018D1BCB15FEA8B7078
:100DF00002D5B9F1000F02D0202000900BE0302086
:100E0000009008E0641E5046009900F043F8DAF8BC
:100E10000C00002802DB0CB1A642F3D3DAF80C0078
:100E200000280CDABDE8F88FA9F1010906E0B8FB4B
:100E3000F5F0B84202D2DFF8589004E07D43B9F1F2
:100E4000010FF4D9F0E7B8FBF5F000FB158819F8AD
:100E50000010504600F01EF8DAF80C00002803DB02
:100E6000B5FBF7F5002DEED15FEACB70DAD04CB9C7
:100E7000D8E7641E2021504600F00CF8DAF80C0088
:100E80000028CFDB002CCDD0A642F2D3CAE7000069
:100E9000176C000810B50446A0686368421C9342B2
:100EA00005D323681954A260E068401CE060D4E9CF
:100EB0000102824209D121682069FFF70FFDA16874
:100EC000884203D04FF0FF30E06010BD0020A060EA
:100ED00010BD2DE9F0470546894617464FF000083A
:100EE000EC682869A04202D9061B761E03E0A968B7
:100EF000201A0E1A761EA868001BB04200D80646BB
:100F0000BE4200D33E466868204432464946FFF759
:100F10002DF9B044B144BF1B3444A868A04200D1AD
:100F20000024EC60002FDCD14046BDE8F0872DE9BD
:100F3000F041044688461646E768A068C51BE1688C
:100F40006068B542084407D932464146FFF70EF9BA
:100F5000B819E060BDE8F0812A464146FFF706F97E
:100F6000761B606808EB05013246FFF7FFF8E66084
:100F7000F0E700000FB4054B10B503A9044A02982E
:100F800000F004F910BC5DF814FB0000E142000819
:100F9000040000207CB50C001D461646014601D019
:100FA000601E00E00020CDE90010064B6A4629468D
:100FB000304600F0EBF8002C02D0009A00211170AE
:100FC0007CBD00009318000837B514460846064B50
:100FD0006A46214600F0DAF804466946002000F02F
:100FE00063FC20463EBD0000A918000802E008C8C6
:100FF000121F08C1002AFAD17047002001E001C188
:10100000121F002AFBD170472DE9FF5F82B000213B
:10101000DDE90430020DDDF840B0034318D044F69A
:101020001050A2F2FF3242431514119801281FD02C
:10103000A5EB0B00401C5FEA000A4FF000064E4F84
:10104000DFF83891B046504615D5CAF1000413E0D8
:10105000119801244AA3012801D16FEA0B010298DB
:10106000119AC0E90031C0E9024206B0BDE8F09F24
:10107000CBF10000DFE704460021404A491842EB6B
:101080000450CDE9001012E0E00707D032463B469D
:1010900040464946FFF773F98046894632463B464B
:1010A00010461946FFF76BF906460F466410002CF0
:1010B000EAD1DDE90401DDE90023BAF1000F06DA27
:1010C000FFF75DF942464B46FFF759F905E0FFF798
:1010D000C8F942464B46FFF7C4F904460E460022C3
:1010E000284BFFF70BFB03D84FF0FF30014607E01A
:1010F0000022254B20463146FFF79AF8FFF7E5FA24
:10110000102409E0002C0ADB0A220023FFF72EFA44
:10111000039B30321A55641E50EA0102F2D1641C5E
:10112000039AC4F111031444119A012A03D0012235
:1011300008430DD10AE0084304D000204FF0110B02
:10114000119072E7A3EB0B056D1E0DE05B4504DD0E
:101150004FF0000205F1010504E003DA4FF0000250
:10116000A5F10105002AECD002981199C0E90231DD
:10117000C0E9004579E70000000014400000F03F9E
:10118000300000000000F0430000E03F2DE9FF4F79
:1011900095B09A46884606460025EEE1252877D187
:1011A00000242746F94A0121039400E0044316F87D
:1011B000013F203B01FA03F01042F7D130782A2892
:1011C00011D06FF02F033078A0F13002092A16D821
:1011D000039A44F0020402EB820203EB4202104441
:1011E000761C0390EFE758F8042B0392002A03DAE9
:1011F000504244F40054039044F00204761C3078CA
:101200002E2816D116F8010F44F004042A280DD018
:101210006FF02F023078A0F13003092B09D807EBCB
:10122000870302EB4303C718761CF3E758F8047BE7
:10123000761C30786C280FD006DC4C2817D0682834
:101240000DD06A2814D104E0742810D07A280FD168
:101250000DE044F400140AE044F4801401E044F486
:1012600040147278824202D104F58014761C761CF8
:10127000307866280BD013DC582877D009DC00289A
:1012800075D04528F6D04628F4D047281AD193E1E6
:1012900018E0632835D0642879D0652812D18BE115
:1012A000702873D008DC6728F1D069286FD06E28C9
:1012B0000DD06F2806D1ACE073282CD0752874D0DF
:1012C000782853D05246179990476D1C54E1C4F3C7
:1012D0000250022809D003280DD0D8F800100428A5
:1012E0000DD00D6008F1040846E1D8F80010EA17A7
:1012F000C1E90052F6E7D8F800100D80F2E70D7052
:10130000F0E718F8041B8DF8001000208DF801009C
:10131000EB46012003E058F804BB4FF0FF306107B3
:101320004FF0000102D40DE009F101018946B942F4
:101330000FDA8145F8DB1BF809100029F4D108E029
:1013400009F1010189468142FADB1BF809100029E5
:10135000F6D103985346A0EB090721463846179A61
:1013600000F080FA284400EB090507E044E008E1BA
:101370000DE01BF8010B524617999047B9F101098E
:10138000F7D2534621463846179AF2E039E00A214F
:10139000C4F302524FF0000B0091022A06D058F815
:1013A000040BC117032A09D00AE023E008F1070063
:1013B00020F00702F2E80201904605E000B2C117F2
:1013C000042A01D140B2C117002906DA0A460021D9
:1013D000404261EB02012D2202E0220504D52B22BE
:1013E0008DF80420012203E0E20701D02022F7E774
:1013F000914657E00A2100E010214FF0000B0091C8
:101400000BE010214FF0000B44F00404082700917A
:1014100003E008204FF0000B0090C4F30252022AB0
:1014200005D058F8040B0021032A08D008E008F181
:10143000070020F00702F2E80201904603E080B2C4
:10144000042A00D1C0B24FF0000922072AD5327811
:10145000702A07D0DDF800C08CF0100C5CEA0B0C91
:1014600005D00EE040228DF80420012208E050EA69
:10147000010306D030238DF804308DF805200222B8
:101480009146009B83F0080353EA0B030AD150EA0C
:10149000010201D1620705D530228DF804204FF0FA
:1014A00001097F1E3278582A04D039A20C920CAA66
:1014B00002920BE03BA2F9E75B46009AFFF756F871
:1014C0000C9B9B5C029A521E0292137050EA01021E
:1014D000F2D1029804A9081A00F1200B600702D586
:1014E00024F4803400E001275F4502DDA7EB0B0008
:1014F00000E0002000EB0B01009003984944401AE3
:101500000390E00306D453462146179A039800F04F
:10151000A9F90544002706E001A85246C05D1799C5
:1015200090476D1C7F1C4F45F6DBE0030CD55346FE
:101530002146179A039800F095F9054404E03020FD
:101540005246179990476D1C0099481E009000293B
:10155000F5DC08E00298029952460078491C029195
:10156000179990476D1CBBF10001ABF1010BF1DC49
:101570005BE100F065F90544761C307800287FF4C3
:101580000DAE19B02846BDE8F08F00000928010013
:1015900030313233343536373839616263646566E9
:1015A00000000000303132333435363738394142AB
:1015B0004344454600000000600700D4062708F1B8
:1015C000070020F00700F0E80223804603F0004CFB
:1015D0005FEA0C0001D097A009E0200501D596A094
:1015E00005E0E00701D095A001E0AFF24C001390B8
:1015F000307823F0004365280CD006DC452809D05C
:1016000046281DD047287FD13BE0662818D06728A0
:101610007AD136E00021112F01DB112000E0781C87
:10162000CDE9000104A90CA8FFF7EEFCDDE90D01EE
:101630000C9A4FF0000B07F10109109200914EE057
:101640004FF000400097CDE9011004A90CA8FFF766
:10165000DBFCDDE90D020C9B0F994FF0000B91466E
:101660001093009211B9791C00EB0109B7EB090046
:1016700003D4C0F1FF3B07F10109A9EB070001907A
:1016800042E0012F00DA01270021112F01DD112096
:1016900000E03846CDE9000104A90CA8FFF7B4FC2E
:1016A000DDE90D010C9A00914FF0000BB946109244
:1016B00021070FD4009A4A4503DA914601E0A9F1C7
:1016C0000109B9F1010F05DD109AA9F10101515C81
:1016D0003029F4D0B84202DA10F1040F03DA012104
:1016E000CDE9011010E0002803DC8344A9EB0001E0
:1016F00002E0411C494500DD8946A0EB0B00401C7F
:1017000001904FF000400290200705D40198484511
:1017100002DB4FF0FF30019000208DF84B00029863
:101720000DF14B07B0F1004F25D002200C902B207B
:101730000D90029800280CDA404202902D200D9066
:1017400007E00A210298FEF7FBFE3031029007F80D
:10175000011D0C99481E0C900029F2DC029800280B
:10176000EFD1791E0D980870307800F0200040F01D
:10177000450007F8020D11A8C01BC01D0290139868
:10178000007800B1012000EB0901019801EBE07144
:10179000029801440398401A401E0390E00306D4C7
:1017A00053462146179A039800F05CF805441398B5
:1017B000007818B15246179990476D1CE00323D565
:1017C00053462146179A039800F04CF805441BE055
:1017D000BBF1000F07DB0098584504DD10981799FE
:1017E00010F80B0001E017993020524690470198FD
:1017F0000BF1010B401E05F10105019004D12E20D3
:101800005246179990476D1CB9F10001A9F10109E1
:10181000DEDC05E017F8010B5246179990476D1C66
:101820000299481E02900029F4DC53462146179A7B
:1018300003989EE62D0000002B0000002000000011
:101840002DE9F041044600251E461746880404D4BD
:1018500005E039462020B0476D1C641EF9D52846A6
:10186000BDE8F0812DE9F041044600251E46904672
:10187000C80301D5302700E02027880404D505E0FF
:1018800041463846B0476D1C641EF9D52846BDE870
:10189000F0814A68002A06D00A68531C0B60107059
:1018A0004868401E486070470A68531C0B601070FF
:1018B00070472DE9F84307468846914600250426DF
:1018C000FF2231466846FEF771FC29F003042CB173
:1018D00022464146384602F083FA0546A9EB040247
:1018E0005DB952B104EB08016846FEF73FFCE01910
:1018F0003246694602F074FA05462846BDE8F88388
:1019000073B586B006464FF0FF3005900021049174
:1019100003911548CDE9000103AB04AA304603F05A
:101920000FFC124D0398012438B1CDE9005405ABEA
:1019300007AA0221304603F003FC049989B10598F7
:10194000401C0ED1012902D80949487840B1CDE99F
:10195000005405AB07AA0121304603F0F1FB00E07B
:101960004C70059808B070BD9551000875190008B5
:101970000C0000200378002B0BD0036909688B4210
:1019800007D98178012906D0022902D10449497872
:1019900009B10020704740691060012070470000C5
:1019A0000C00002000280CD00022027241F270725C
:1019B00082804FF47A72C28001224270084600F0A1
:1019C00099BD70470A49421A88420DD006DC094881
:1019D000101809D0B0F1223F08D105E0064940189F
:1019E00002D00649C84201D101207047002070474B
:1019F000BBBBAAAA3333222234334444CECDCBCB53
:101A00002DE9F04706460027881B401C4FEAD029E5
:101A1000A6F10060C50ADFF8848098F8000040074E
:101A200005D50B46324629461DA003F05DFA02F0AB
:101A3000BBFB40F2053002F03BFB4FF4417002F07B
:101A400037FB40F2023002F033FB002412E006EBD9
:101A5000C42002F04FFBA8B1012798F8000040070E
:101A600003D529191AA003F03FFA40F2073002F01B
:101A70001FFB641C4C45EAD302F028FB5FB1002039
:101A8000BDE8F08798F800004007EED5291917A0A7
:101A900003F02AFAE9E70120F2E7000098040020A9
:101AA000624F706572466C6173683A457261736526
:101AB00025642C616464726573733A307825303222
:101AC0005820746F20307825303258200D0A0000DD
:101AD000624F706572466C6173683AB5DA2564D2FC
:101AE000B3B2C1B3FDCAA7B0DC0D0A00624F706586
:101AF00072466C6173683ABFAACABCB2C1B3FDB585
:101B0000DA2564D2B30D0A002DE9F04106460C46F1
:101B10001746DFF87C8098F80000400702D51DA02A
:101B200003F0E2F902F040FB00250AE030462168AC
:101B300002F056FB10B10020BDE8F081361D241DD7
:101B40006D1CB5EB970FF1D307F0030068B1C0F13E
:101B500004024FF0FF30D040216880B2014030468F
:101B600002F03EFB08B10020E6E740F2073002F049
:101B70009FFA02F0ABFA98F80000400705D50BA0D9
:101B800003F0B2F90EA003F0AFF90120D4E7000092
:101B9000980400200D0A20737461727420777269B2
:101BA000746520464D43200A000000000D0A57725C
:101BB00069746520636F6D706C657465210A00003F
:101BC0000D0A0000012070472DE9F04107460E463E
:101BD000164D174C2878400704D5208881B215A0EF
:101BE00003F082F932463946206800F01BFE0146B8
:101BF000002913DD2068304420601549884201D94E
:101C0000144820602878400705D521683246491ECF
:101C100011A003F069F90120BDE8F08128784007A0
:101C200002D519A003F060F90020F5E79804002020
:101C3000B4100020624F706572466C6173683ABFE1
:101C4000AACABCB5D8D6B7307825780D0A000000EE
:101C5000FF4F030800D00008624F706572466C6148
:101C600073683AD0B4C8EBB3C9B9A62CBDE1CAF8C1
:101C7000B5D8D6B73D307825782CB4F3D0A13D2522
:101C8000642E0D0A00000000624F706572466C61A0
:101C900073683AD0B4C8EBCAA7B0DC2EB4FAC2EB72
:101CA0003D25640D0A00000010B507E010F8013B67
:101CB00011F8014BA34201D0002010BD521ED2B238
:101CC000F4D2012010BD000003488068800401D4D4
:101CD0000020704701207047001001400348008831
:101CE000002801D00020704701207047A804002080
:101CF00010B5002819D04FF48071884200D90846E9
:101D000002460B490B4802F0EAFC0B490880002010
:101D100048800B4C0949204603F06DFC40F2073126
:101D2000204603F05EFC012010BD002010BD000025
:101D3000B40F00209C0C0020A8040020070307001B
:101D40000038014008B50A4800900A4B4FF48072F1
:101D50000821094800F04BFE002801DC002008BDE6
:101D60000548006808B1012008BD002008BD00003A
:101D70004762000871220008B804002010B56423EF
:101D8000EF224FF48071044800F05BFB002801DC77
:101D9000002010BD012010BDB404002010B50024A7
:101DA0000B48006800280ED0FFF798FF68B109487B
:101DB00002F076FC084980B2088010B1FFF798FF66
:101DC0000446204610BD002010BD002010BD0000BC
:101DD000B00400209C0C00209004002010B5EF22DD
:101DE0004FF48071044800F06DFB002801DC0020F6
:101DF00010BD012010BD0000B004002010B5FFF799
:101E0000BDFF80B1FFF7EAFF78B1FFF79BFF70B12C
:101E100008494FF40072A1F1180002F052FC00F0E2
:101E200053F9012010BD002010BD002010BD00207E
:101E300010BD0000B40C002008B500200246009040
:101E4000114B0821114800F0D2FD114A1149002818
:101E500009DC0868C10701D1000702D511680EA08E
:101E60008847002008BD0948001F406808B10120CC
:101E700008BD0868C10701D1000702D5116810A08C
:101E80008847002008BD0000692100083C000020B0
:101E90009C04002098040020625379735461736B92
:101EA0003A74705379735461736BC8CECEF1B6D463
:101EB000CFF3B3F5CABCBBAFCAA7B0DC00000000CB
:101EC000625379735461736B3A74705379735461CC
:101ED000736BC8CECEF1B6D4CFF3B4B4BDA8CAA745
:101EE000B0DC000010B520494A7E82423AD04876E4
:101EF0001F491E4B4FF48072096801280AD002283E
:101F00000FD0032813D004281AD005281ED0062885
:101F100023D027E01A60C80724D016A002F0E4FFFF
:101F200020E0C8071ED01BA002F0DEFF1AE00F4819
:101F3000001D0260C80715D01EA002F0D5FF11E0F9
:101F4000C8070FD023A002F0CFFF0BE01A60C8072C
:101F500008D028A002F0C8FF04E0C80702D02DA0D6
:101F600002F0C2FF012010BD680C002010080140E3
:101F700098040020625379735461736B3ACFB5CDE6
:101F8000B3C8CECEF1D7B4CCACCEAAB3F5CABCBBE5
:101F9000AF0D0A00625379735461736B3ACFB5CDBC
:101FA000B3C8CECEF1D7B4CCACCEAAB9D8B1D5D6C1
:101FB000D00D0A00625379735461736B3ACFB5CD7B
:101FC000B3C8CECEF1D7B4CCACCEAAB9D8B1D50D6A
:101FD0000A000000625379735461736B3ACFB5CD38
:101FE000B3C8CECEF1D7B4CCACCEAAB4EDCEF30DFF
:101FF0000A000000625379735461736B3ACFB5CD18
:10200000B3C8CECEF1D7B4CCACCEAAC6F4B6AFD658
:10201000D00D0A00625379735461736B3ACFB5CD1A
:10202000B3C8CECEF1D7B4CCACCEAAB9A4D7F70DF5
:102030000A00000010B518210248FEF7BEF8012082
:1020400010BD0000840C002070B50446002C11D097
:1020500000252573657341F27070E0804FF47A704B
:10206000208140F2054104F10E00FEF7A6F86580DC
:102070000120607070BD002805D031B101290AD05F
:1020800002291ED110E00020704702224272002275
:10209000A0F80F2015E0B0F813204FF4FA63B3FB5B
:1020A000F2F2A0F80F200CE00F304FF47A73828820
:1020B000B3FBF2F3038042F21073B3FBF2F24280FF
:1020C0000F3841750120704710B5074802F05DFBDD
:1020D0000648074900684860FEF791FB0548818A79
:1020E00041F48061818210BD9C0C0020B804002066
:1020F00090040020680C002070B504460D4620783E
:10210000002808D00022E368114628469847002896
:1021100003DC002070BD002070BDC820608000205E
:102120002070012070BD10B50446084621780029B2
:1021300002D0FE2802D004E0002010BDE07A48B1B1
:1021400063200022D4F8143411469847002803DC99
:10215000002010BD1520F4E7002060800A21A18036
:102160002070012010BD000070B504460025A57246
:10217000657025812581E58004F11700064602F08F
:102180008FFA294A108010880321B0FBF1F301FB7C
:10219000130088B1108878B124480068C10701D1C4
:1021A000000704D511882B4A21A0126890473046B9
:1021B00002F0EBFA002070BD2748007DC0070CD06C
:1021C000108870B101222146304602F088FA0222BE
:1021D000A11C304602F083FA05E0012020706580E2
:1021E00001E0257065802078062818D2DFE800F02D
:1021F0001703070B0F131948C4F80F0012E0184813
:10220000C4F80F000EE01748C4F80F000AE01648A3
:10221000C4F80F0006E01548C4F80F0002E0C4F847
:102220000F506580012070BD380000209804002008
:10223000625379735461736B3AC8CECEF1B6D3C191
:10224000D0B3A4B6C8D2ECB3A320B3A4B6C8256457
:10225000000000009C040020680C00209169000828
:1022600009680008DD6800082D6A0008CD6A0008CA
:10227000F8B5044600250095002C1AD0A5726570AB
:10228000A5802581E58004F11700064602F008FAD2
:102290000090BDF800000321B0FBF1F201FB120039
:1022A00048B1BDF8000030B1304602F06EFA0020AF
:1022B000F8BD0020F8BDBDF8000050B10122214654
:1022C000304602F00CFA0222A11C304602F007FA56
:1022D00002E00120207065802078012802D10248A8
:1022E000C4F80F000120F8BDE16400082DE9FC41AD
:1022F000044600254FF40070019000200090861ED7
:10230000002C14D004F11600074602F0C9F9617AD6
:10231000884209D3607D60B101284AD002285ED08E
:1023200000212046FFF7A7FE2846BDE8FC81304685
:10233000FBE702226946384602F0D1F9E8469DF8EB
:1023400000002178884208D19DF801006178884218
:102350001BD0EF2819D0EE2817D0384602F0A0F98C
:1023600028B39DF801008DF80000012208F1010159
:10237000384602F0B4F9BDF80400401E0190BDF8E3
:1023800004000028DBD1C01ECFE7012208F10201C2
:10239000384602F0A4F99DF80200032802D24FF05B
:1023A000FF30C2E7607201212046FFF764FE607DC6
:1023B00070B1384602F074F9617A8842B4D3607A19
:1023C000A070204600F00EFC002804DC3046ACE78C
:1023D0006FF00300A9E702212046FFF74CFE01251C
:1023E00000212046FFF747FE9EE72DE9F0410E460B
:1023F000044611461D460127FA2D02D9B81EBDE834
:10240000F081DCB12078E07060782071E81C6071A8
:10241000A6710020E07129B125B12A4604F1080017
:10242000FDF7A4FEAD1DA5706179A01D491E02F047
:102430004DFF14F8021F08553846E0E76FF0010021
:10244000DDE72DE9F04104460D4617469846012682
:10245000062D02D2B01EBDE8F08105F12E0002F07B
:1024600027FA2060284602F023FA2168C1F8030009
:102470002168F1B1E8B1AA2008702068477020688F
:10248000A0F8138021680020A1F80F002168A1F8AE
:10249000110020682A4600F12E01163002F011F9D1
:1024A0002068163002F071F900212068FFF7E3FD83
:1024B00006E001F021FF206801F01EFF6FF0010629
:1024C0003046C8E770B5044616460125062901D2F4
:1024D000A81E70BDC81C02F0EBF92060AA21017093
:1024E00020684670206818B901F006FF6FF00105FA
:1024F000284670BD10B50446002C09D004F1160022
:1025000002F043F900212046FFF7B5FD012010BD80
:102510004FF0FF3010BDF8B504460E4600270025E9
:10252000002C05D00EB1062A05D26FF00100F8BDCF
:102530004FF0FF30F8BDD31E20E0705D2178884257
:102540001BD1701994F801C04178614501D0EF2981
:1025500013D18178914210D8715D21707119497839
:1025600061708078A070501BA178C01E884202DA8A
:102570006FF00200F8BD012702E06D1C9D42DCDD1A
:1025800097B1A17870190746491EC01C02F09EFE43
:102590000090A078AD1C30449DF80010405D88424A
:1025A00005D06FF00400F8BD6FF00300F8BDA2780D
:1025B000F91CD4F80300FDF7D9FDD4F80300017825
:1025C000E17141782172A178C91EA172A17A19B175
:1025D000801CC4F80B0001E00020A0720120F8BDAF
:1025E00070B50C4602001A481A4E1B4D00680ED0FA
:1025F0004FF0AA31296600231A46052100F04AF956
:102600003078800711D515A002F06EFC0DE04FF078
:102610008831296600231A46022100F03BF9307800
:10262000800702D512A002F05FFC85F86440032CFD
:102630000AD0012C08D015F8650F401C28701048EE
:1026400000F0ACF840B270BD002085F86500F6E7F8
:102650003C00002098040020000C002020537461EE
:10266000727420557064617461210D0A00000000CD
:10267000204578697420557064617461210D0A00E9
:102680004376000870B50446002C14D02549204636
:10269000FDF7B1FD244D88B1224920460E31FDF7EA
:1026A000AAFD28B31F4920461B31FDF7A4FD48B3FE
:1026B0006FF0620070BD4FF0FF3070BD60221A49AC
:1026C0001848002360390E3001F0C0FA602802D0AB
:1026D0006FF0010070BD08241248002322462946ED
:1026E0001B3001F0B3FA082814D06FF0020070BD5F
:1026F00060240D490B480023224660390E3001F05A
:10270000A5FA07E0082407480023224629461B3083
:1027100001F09CFAA04202D06FF0270070BD0120AA
:1027200070BD000028760008600C00202DE9F04103
:10273000074617493846FDF75EFD164C00254FF059
:10274000883678B1124938460E31FDF754FD98B1FC
:102750000F4938461B31FDF74EFD98B16FF062000E
:10276000BDE8F08160220C490A48FDF7FFFC44F8FF
:10277000606F2571657109E0602207490548FDF722
:10278000F5FC03E044F8606F257165710120E7E70F
:1027900028760008000C00200008000810B5044648
:1027A000002C13D018492046FDF725FD88B11649A5
:1027B00020460E31FDF71FFD88B1134920461B311D
:1027C000FDF719FDA0B16FF0620010BD4FF0FF30B2
:1027D00010BD01F0F5F9A8B16FF0010010BD602245
:1027E0000A49204601F018FB60B16FF0090010BDE6
:1027F000082206492046603101F00EFB10B16FF04F
:102800000A0010BD012010BD28760008000C002031
:1028100010B5FFF7F5F808B1012010BD4FF0FF30FB
:1028200010BD000070B50D461646002D0FD076B1D4
:1028300032462946FFF768F958B10D48007840073D
:1028400014D531460BA002F04FFB002409E0002014
:1028500070BD4FF0FF3070BD295D0CA002F044FB4D
:10286000641CB442F8D30AA002F03EFB012070BD04
:10287000980400200D0A20D0B4C8EBB5C4CAFDBE30
:10288000DD20B3A4B6C83D202564200025782000B3
:102890000D0A0000FFB583B004460E461D46002019
:1028A0000290002C0AD02078B0420AD16088BDF88E
:1028B0001410884205D1002007B0F0BD6FF0010070
:1028C000FAE704F1170745B1384601F05EFFD4F886
:1028D000132012B10021204690478DF80860BDF802
:1028E0001400ADF80900384601F0DAFE83B213B3E4
:1028F0000320B3FBF0F100FB113028B1384601F0A2
:1029000044FF6FF00200D7E701A8032B09D900901C
:10291000DB1E032202A9384601F05EFE58B10020FA
:10292000CAE700900023032202A9384601F054FEB2
:1029300008B10020C0E7032202A9384601F037FFA2
:102940000DB9207838B9D4F8132012B101212046EE
:1029500090470120A072D4F8132012B10221204622
:1029600090470DB10220A7E70120A5E770B5044606
:102970000D460026002C1DD00020A080E080FD2DFB
:102980001BD0FE2D26D0FF2D2ED0D4F8132012B14F
:102990000A212046904765706078FF2808D3D4F854
:1029A000132012B1FF21204690470120A07201267A
:1029B000304670BD4FF0FF3070BDD4F8132012B117
:1029C000FD212046904760780028E5D06078401EC1
:1029D0006070E1E7D4F8132012B1FE212046904741
:1029E0006078401C6070D7E7FF206070D4E72DE965
:1029F000F0470446DDF820900D4616461F464FF07E
:102A00000108002F02D00DB1642D03D94FF0FF3023
:102A1000BDE8F08706EB4500473001F049FF01466D
:102A20002060B1B300200870216848702168488098
:102A3000216888802168C880216808812168C1F8E0
:102A40000B702168C1F80F002168C1F8139021684C
:102A500088722168C1F817002168C1F82F0020682A
:102A60006A0000F14701173001F02BFE2068173093
:102A700001F08BFE9EB14721206801EB4501014426
:102A80002F30324601F01DFE20682F3001F07DFE10
:102A900005E0FFE7084601F02FFC6FF00108404613
:102AA000B6E7000010B5164C206816490840B0F192
:102AB000005F02D04FF0FF3010BD134890F8640063
:102AC000032819D002210020FFF78AFD03F0E0F867
:102AD000022003F009F972B600204FF0E0210861EE
:102AE00048618861606809498860216881F30888C5
:102AF00080476FF0020010BD6FF0010010BD0000B4
:102B000000D000080000FE2F000C0020380000203C
:102B10002DE9F04104460F464FF00108154D022CF7
:102B200009D01D4A214614A01268904700242C7138
:102B30004046BDE8F081194E3068C0B1D0F81600AB
:102B4000A8B11748E86001F020FE306800F11601D6
:102B5000A960FFF7CFFC30682861124800686861FF
:102B6000384600F021F80028E1D1401EE1E76FF07F
:102B70000100DEE7840C0020B5B1C7B0CDA8B5C018
:102B80002564CEB4B6A8D2E52CC7EBD6D8D0C2D136
:102B9000A1D4F1CDA8B5C0009C040020B40400204D
:102BA0009C0C0020B004002010B50B49012802D075
:102BB00002280FD108E04FF4487048800120487186
:102BC0000648FFF741FA05E0022048710969044808
:102BD000FEF7E8FE012010BD840C00204800002014
:102BE0007004002038B504460125A078032801D2DE
:102BF000A81E38BD4CB3D4F8031031B3A27804F149
:102C0000160001F06CFDA178D4F80300491E02F013
:102C10005DFB0090D4F80300A1789DF800200144EA
:102C200011F8011C914201D06FF00205002D11DD59
:102C30000178E17141782172A178C91EA172A17A4F
:102C400031B1801CC4F80B0004E06FF0010038BD06
:102C50000020A072284638BD0848027800210D2ABD
:102C600002D04180002070474288521C4280428836
:102C70000A2A00D34180012070470000AC040020E4
:102C80002DE9F74F84B007460C464FF0000BCDF806
:102C90000CB0CDF808B0704EDFF8C091DFF8C0A1DD
:102CA0007079012802D002287ED19DE0DFF8B4813E
:102CB00076E0B06801F0F4FCE0B1B06801F0F0FC3F
:102CC0000290BDF80800BDF80C100844A04203D9DA
:102CD000BDF80C00201A0290BDF80C00BDF80820C9
:102CE0003918B06801F0FBFCBDF80C00BDF8081005
:102CF000084403903878042803D1BDF8080001285F
:102D000016D098F80C00022847D000253179022906
:102D10001BD0012933D0D9F80000400303D5DAF8DD
:102D2000002051A090474FF0FF3007B0BDE8F08F72
:102D3000BDF80C1006980180D9F80000400302D5B8
:102D40004FA002F0D1F80220EFE7BDF80C20306967
:102D50003946FFF7E0FB002815DD3069C179C2294B
:102D600011D1D0F80B1071B1807A03280BD10878FB
:102D7000022808D1B1F801007080012503E0DAF8DB
:102D800000204AA0904745B1CDF804B002208DF84C
:102D90000400FFF709FF01280ED0B8F80400C0B105
:102DA000BDF80C00A04200E004E082D3BDF80C1096
:102DB000069801800120B8E77088ADF8050003226D
:102DC00001A9C32000F0ACF840490120087063203D
:102DD000ABE7D9F80000400303D5DAF800103CA0B7
:102DE00088474FF0FF30A0E73069FFF77FFA0446CD
:102DF000002C0CDD3069C179C22908D150F80B1FB5
:102E0000B1F8011071800068007802280CD0002C05
:102E100008DAD9F80000400304D5DAF8002021468A
:102E200031A09047204680E7CDF804B002208DF80D
:102E300004007088ADF80500032201A9C32000F04A
:102E40006FF8D9F80000400303D502212DA002F04D
:102E50004BF8002069E70000840C00209804002053
:102E6000A004002048000020625570646174613A3B
:102E7000CDA8B5C02564CEB4B6A8D2E50000000048
:102E8000625570646174613A2D2D2D2DBDD3CAD564
:102E9000B5BDB7FBBAC5454F542CBDD3CADCBDE1A7
:102EA000CAF82D2D2D2D0A0D00000000B5B1C7B0B8
:102EB000CDA8B5C02564CEB4BFAAC6F42CC7EBD646
:102EC000D8D0C2D1A1D4F1CDA8B5C00070040020E3
:102ED000625570646174613ABDD3CADCB5C8B4FD93
:102EE000B3ACCAB100000000625570646174613A0D
:102EF000CAFDBEDDBDE2CEF6B4EDCEF32CB4FAC20F
:102F0000EB256400625570646174613AC9E8D6C308
:102F1000C9FDBCB6D0ADD2E9CEAA2564200A0D0009
:102F2000F7B50F46164601241A4D2979022906D015
:102F3000214A19A01268904700242046FEBD6879F6
:102F4000012816D00228F8D19DF80010F9B1F3B28B
:102F50003A466869FFF749FA0446002CEDDD6969D5
:102F60008A78C91CE86801F022FCFEF717FF0120EF
:102F7000FEBD01226946E86801F019FC26B132461F
:102F80003946E86801F013FCFEF708FFD5E74FF07B
:102F9000FF30FEBD840C0020B5B1C7B0CDA8B5C0D0
:102FA0002564CEB4BFAAC6F42CC7EBD6D8D0C2D104
:102FB000A1D4F1CDA8B5C000A404002070B5054689
:102FC0000B4C6068002810D013460A462946FFF7CC
:102FD0000CFA00280ADD61688A78C91C054801F0EE
:102FE000E6FBBDE87040FEF7D9BE002070BD0000D2
:102FF000AC0400209C0C0020002803D00D48808ADF
:10300000400502D44FF0FF3070470B48006820B1F4
:103010000A480079022803D007E06FF002007047E9
:10302000074800680078052801D0012070476FF03C
:1030300004007047680C00209C0C0020840C0020C9
:103040003C00002070B504460D460126002C00D03F
:103050000DB94FF0FF3601202070AEB141F2707013
:10306000A0804FF47A70E080E879C52814D0C72892
:1030700040D0C82843D024480068C00204D5E9796C
:103080002A4A22A012689047002E03DC0421204621
:1030900003F0A2FB304670BD6078012802D1287A87
:1030A000012808D16078297A401E884203DC6078C4
:1030B000297A884202D26FF00206E5E76078297A21
:1030C000884202D06FF00306DEE7207A012808D19B
:1030D000287A012805D1A06980470221204603F003
:1030E0007BFBA97A6269D5F80B0090476078401C99
:1030F0006070C9E70321204603F06EFBC4E704219A
:10310000204603F069FBBFE7980400206242616932
:103110004B7550726F746F3ACEB4B6A8D2E5B5C491
:10312000D6B8C1EE3078257800000000A004002059
:1031300010B5D0F80B100978807A032801D1022944
:1031400002D36FF0090010BD0D4CA068D0F80B0041
:1031500001780220FFF7DCFC002802DC6FF00A0097
:1031600010BDA068D0F80B100648B1F801104180DE
:103170000022BDE810401146C320FFF71FBF00002A
:10318000AC040020840C00203EB500240294817A17
:10319000052909D0FF200290012202A98920FFF70A
:1031A0000DFF6FF009003EBD827AD0F80B10684623
:1031B000FCF7DCFF9DF8000008B1022823D1DDF800
:1031C0000100B0F1AA3F03D0DDF8010058B11AE0C8
:1031D0000294012202A98920FFF7F0FE01210220BA
:1031E000FFF796FC0FE00294012202A98920FFF765
:1031F000E5FE012000F040FA0146044800231A468B
:103200000068FFF747FB01203EBD00003C000020A6
:1032100010B586B0044661782078002901D00328D3
:1032200002D001280DD014E0A17804F110020A4860
:1032300000F098FD204601F071FB50B1012006B06E
:1032400010BD0523062201A9206B03F0BCFC012060
:10325000F5E70020F3E70000B076000810B501782C
:10326000002907D08078032804D103490120487041
:1032700001F072F8002010BD0C00002070B505466A
:103280000C46287800280BD10648696800F06AFDD2
:103290002068401C20604FF0FF31686800F0ECFFB0
:1032A000002070BD6C76000870B50B4614460022F5
:1032B000002104E0455C2A44D2B2491C89B29942FB
:1032C000F8D3944201D1012070BD05480068000385
:1032D00003D5214603A001F007FE002070BD0000C9
:1032E00098040020D0A3D1E9B4EDCEF33A63686B23
:1032F0005F76616C313D25642C63616C5F76616C37
:10330000323D25640A0D000010B5144602F0A2F803
:10331000A04201D1012010BD002010BD2DE9F047D1
:1033200088B004460F460025A046E9461CE004F19B
:1033300020008246B84201D2202600E03E1B3246E1
:103340006946204600F046FD00200AE0FF2D05D02A
:1033500019F80010FF2901D104EB000819F80050FA
:10336000401CB042F2D35446BC42E0D3FF2D03D000
:10337000384608B0BDE8F08708F1030828F00300DC
:10338000F7E700002DE9F0418CB006460F46904665
:103390001C460020019075693846FCF725FF20285F
:1033A00007D920215AA000F0DDFC04200CB0BDE8B4
:1033B000F081FF22282102A8FCF7F8FE5F48079061
:1033C0003846FCF711FFC0B28DF828000B94C01CE2
:1033D00020F003010B98C01C20F0030008442830A3
:1033E0000890089840F2DC71884204D954A000F09B
:1033F000B9FC0620DAE7681C06D13046089901F0CE
:103400000DFB0546401C7DD001AA3046089901F00D
:10341000C1FF0446CCBBFF20009008220AA900206F
:1034200000F08EFB09909DF828203946099800F09D
:1034300087FB09909DF82800C11C21F003010C1A9C
:1034400005E001226946099800F07AFB0990641EA4
:10345000601CF6D141460B9A099800F071FB099067
:103460000B980B99C01C20F00300441A05E00122C0
:103470006946099800F064FB0990641E601CF6D14F
:1034800002A9284603F08AFB0446FCB99DF82820CF
:10349000394605F12800FEF70CFA04469DF80400B1
:1034A00070B99DF82800C01C20F0030041190B984A
:1034B000C01C20F0030001442831706801F098FF1F
:1034C0009DF828102A46384601F00EFF5CB99DF899
:1034D00028004146C01C20F00300284428300B9AE5
:1034E000FEF7E7F9044634B90223062202A928466A
:1034F00003F069FB04464CB99DF8040030B101208B
:10350000174900E001E0487000E0062420464DE73E
:103510004572726F723A2054686520454E56206E8F
:10352000616D65206C656E677468206973206D6FCE
:103530007265207468616E2025640A004B56343031
:103540004572726F723A2054686520454E5620735A
:10355000697A6520697320746F6F206269670A0059
:103560000C0000202DE9F04194B007460C461546AA
:10357000002C05D101A9384600F0C2FC68B101ACAD
:10358000224E75B1042306220FA9206B03F01BFB0A
:103590000546F07828430ED020E0042014B0BDE8A2
:1035A000F081032306220FA9206B03F00CFB0546D4
:1035B0000120F07014E04FF0FF3847B13846FCF7B7
:1035C00013FE01464246384601F08EFE06E02CB15D
:1035D000A178424604F1100001F086FE0020F07050
:1035E000206BC40AE4020C346DB904220FA92046F2
:1035F00001F052FC012806D1022304220FA9204623
:1036000003F0E1FA05462846C8E700000C00002058
:1036100030B591B004462078002829D0A07802283F
:1036200001D0032824D1606803230C3004226946AA
:1036300003F0C9FA4FF0FF350F950EE003A801F033
:1036400011FB9DF80D0040B19DF80C00022801D03F
:10365000032802D103A801F061F903A9204600F074
:10366000FDFE0F90401CE9D12946606800F004FE81
:1036700011B0002030BD000070B5354D354C00282C
:1036800036D12846FEF7FEFF41B2002907DC20783C
:10369000800702D530A001F027FC032070BD364B17
:1036A000186EFEF78FF918B3186EB0F1883F0FD17E
:1036B00093F8650005280BD293F86400032807D01F
:1036C0002078800702D52DA001F00EFC022070BDED
:1036D000186EB0F1AA3F19D093F86500052803D3FE
:1036E00093F86500FF2811D193F8640003280DD0EA
:1036F0002846FFF71BF8014600290FDC20788007D9
:1037000002D522A001F0F0FB032070BD20788007D5
:1037100002D527A001F0E8FB052070BD2846FFF781
:103720003DF841B2002907DC2078800702D523A0AC
:1037300001F0DAFB032070BD2078800706D502F087
:1037400053FE26A001F0D0FBFEF728FB022070BD3F
:10375000287600089804002062426F6F74496E66F4
:103760006F3AB2CECAFDB6C1C8A1CAA7B0DC20B4B8
:10377000FAC2EB25640D0A00000C0020CCF8D7AA91
:10378000415050C8CECEF1210D0A000062426F6F49
:1037900074496E666F3AB2CECAFDB3F5CABCBBAF10
:1037A000CAA7B0DC20B4FAC2EB25640D0A00000001
:1037B000C9FDBCB6C8CECEF1210D0A0062426F6FC2
:1037C00074496E666F3AB2CECAFDB8FCD0C2CAA7C1
:1037D000B0DC20B4FAC2EB25640D0A0062426F6FC0
:1037E00074496E666F3AB2CECAFDD6D8D6C3B3C995
:1037F000B9A60D0A00000000012201290BD0022900
:1038000009D000290BD00CDA02704FF00001418082
:103810004FF00200704702704FF003007047407B8A
:103820007047027041F27071C1804FF47A7101816A
:103830004FF00000704700002DE9F04704465A4D54
:103840005A4E002C2868336813D06188B9B1E27AE7
:10385000DAB14FF00509A17B01291BD002291FD045
:10386000042915D0000301D551A098470020BDE8D8
:10387000F087000301D555A098470220F7E7000321
:1038800001D559A098470020F1E74FF00409E2E77D
:103890000320ECE780274FF0840C4FF0850805E00B
:1038A0004FF4806740F2044C40F2054809EB0701F1
:1038B00089B2B4F80290894506D0000302D5628827
:1038C00050A098470020D2E7E17B94F8109011EACD
:1038D000090F06D0000302D54A4653A0984700209E
:1038E000C5E794F80190B9F1010F01D1012909D17F
:1038F00094F80190A9F10109894503DC94F801903D
:10390000894508D2000304D560780A4601464EA0D6
:1039100098470220ABE73AB1012A05D0000301D550
:1039200053A098470220A2E704F111095AB104EB11
:103930000800417B007B41EA002239464846FFF7F8
:10394000E3FCC0B107E004EB0C003946427B48467B
:10395000FFF7AAFC38B16178E07B814222D1217B5C
:10396000012910D014E02868000302D5316848A06E
:10397000884700207BE72868000302D531684DA006
:103980008847002073E7012802D1D4F8200480473B
:10399000D4F81C243946484690476078401C607033
:1039A000012064E7002062E7980400209C040020C6
:1039B00062586D6F64656D3ABDE2CEF6D0ADD2E966
:1039C000B5C4D6A1CDB7B4EDCEF3000062586D6F8B
:1039D00064656D3ABDE2CEF6D0ADD2E96F626AB6EB
:1039E000D4CFF3B7C7B7A80062586D6F64656D3A5E
:1039F000BDE2CEF6D0ADD2E9B5C4B3A4B6C8CEAA66
:103A00003000000062586D6F64656D3ABDE2CEF61D
:103A1000D0ADD2E9B5C4D6A1B3A4B4EDCEF32C2079
:103A200025642C202564000062586D6F64656D3A32
:103A3000BDE2CEF6D0ADD2E9B0FCD0F2BAC5B4ED5D
:103A40002C25642C2564000062586D6F64656D3A06
:103A5000BDE2CEF6D0ADD2E9B5C4D6A1D0F2BAC59A
:103A6000B4EDCEF3A3AC25642C2025640000000047
:103A700062586D6F64656D3ABDE2CEF6D0ADD2E9A5
:103A8000B5C4C4A3CABDD3D0B4EDCEF300000000CA
:103A900062586D6F64656D3ABDE2CEF6D0ADD2E985
:103AA000B5C4C0DBBCD3BACDD0A3D1E9B4EDCEF35D
:103AB0000000000062586D6F64656D3ABDE2CEF69D
:103AC000D0ADD2E9B5C44352433136D0A3D1E9B425
:103AD000EDCEF3007CB5002001900D4D2878002834
:103AE00001D000207CBD01A9684600F05DF90446C4
:103AF00024B9DDE9000100F037F804462CB105A136
:103B000006A000F02FF920467CBD01202870FAE7BE
:103B100008000020342E312E3939000045617379B8
:103B2000466C6173682056257320697320696E693D
:103B30007469616C697A65206661696C2E0A00009F
:103B400010B5C043074C07E011F8013B4340DBB21E
:103B500054F8233083EA1020521E531CF4D1C04382
:103B600010BD0000286C000870B5002804D0114D6D
:103B70002A7812B1002070BDFEE700220E4C531EC1
:103B800044F83230521C042AFAD300220A4C803CFA
:103B900004EBC2067360521C102AF9D3074A6A600C
:103BA000E860A96000F080F80028E4D101212970C4
:103BB00070BD00000C0000200C0A0020005003081B
:103BC0002DE9F04186B000261F4FF868002807D085
:103BD000B86830B100F0D8F87C684FF0FF380AE0E0
:103BE000FEE7FEE74146204600F046FB0646300071
:103BF00023D104F50064786800F520508442F1D3A5
:103C0000002417E0F86804EB440500EB85008368A6
:103C10001BB94068FCF7E8FA0346CDF81480F86851
:103C200000EB85014A6850F825106846FFF7AAFBAB
:103C30001EB9641CB8688442E4D300F0A7F806B04B
:103C40003046BDE8F08100000C0000202DE9F04175
:103C500005460E46174698460B4C2478002C0DD08E
:103C600000F092F843463A463146284600F098FB69
:103C7000044600F08BF82046BDE8F08103A000F078
:103C800071F80020F8E700000C000020454E562097
:103C900069736E277420696E697469616C697A65ED
:103CA000204F4B2E0A00000070B598B0002600256A
:103CB0000395184C0120A0701748CDE9000500239A
:103CC00003AA194604A801F03BFA0398052804D179
:103CD00012A000F047F8FFF773FF00F055F81F48F7
:103CE000CDE9000500231A46194604A801F028FA78
:103CF00000221B4B11460AA800F0B8F8617811B1F8
:103D000000F02AFBF4E7A57000F040F818B0304648
:103D100070BD00000C0000207D3200085761726EFB
:103D2000696E673A20416C6C20736563746F722012
:103D300068656164657220636865636B20666169AC
:103D40006C65642E2053657420697420746F206440
:103D5000656661756C742E0A000000005D32000813
:103D6000113200080FB410B503AA05480299FDF7F7
:103D70002BF9034903A001F0B7F810BC5DF814FB60
:103D8000000B00202573000072B6704762B67047C2
:103D900010B50024420500D0FEE70144FDF730FED7
:103DA00000B90124204610BD70B505460E4600241A
:103DB0000648FEF7BBFC002800DC07240448286006
:103DC00001F046FB3060204670BD000028760008F8
:103DD0005076000810B5002401F06AFD204610BDA1
:103DE0002DE9F04106460F4615460024A80000F0D4
:103DF0005FFD80462A4639464046FCF7B7F92A4619
:103E000039463046FDF780FE00B90324404600F0F5
:103E100073FA2046BDE8F08170B504460D4616469B
:103E20000A4B1B78002B0BD0FFF7AEFF324629461A
:103E3000204601F0C5F90446FFF7A8FF204670BDF3
:103E400003A0FFF78FFF072070BD00000C000020CB
:103E5000454E562069736E277420696E69746961D6
:103E60006C697A65204F4B2E0A0000002DE9F04165
:103E700086B005460F4690461C464FF0FF36019629
:103E80001DE00022694600F061FFC0B9BCB19DF899
:103E90000100022801D0032811D12E6308E0284632
:103EA00000F0E0FE424639462846A04700280BD1E4
:103EB0002946684600F0D2FA2863401CEFD16846D4
:103EC00000F0F8FA411CDCD106B0BDE8F08100003A
:103ED00002490A6882430A607047000000040140FA
:103EE0000149086070470000140401400349096853
:103EF000014201D0012070470020704714040140A6
:103F00002DE9F04106460C463046FCF76DF90746B0
:103F100004F130023946304600F062FA28B12046FA
:103F200000F0A0FE0120BDE8F0812146304600F0FF
:103F300027F8054625B139463046226B01F0D4F901
:103F40002846F0E770B50446084615460646304652
:103F5000FCF74AF90246A078904201D0002070BDDB
:103F6000607840B12078022805D1314604F1100074
:103F7000FCF74FF908B1002070BD0120287070BD1A
:103F800038B505460C4600200090044B6A46294689
:103F90002046FFF76BFF9DF8000038BD453F000845
:103FA0002DE9F04389B004460D462646E00AC002DA
:103FB000694600F099FA4FF0FF3770B300988442D9
:103FC0002BD1384609B0BDE8F083202201A9204654
:103FD000FFF700FF002201A9DFF848C017E08818AA
:103FE00011F8028090F8019008EB092890F80290EF
:103FF000C0784FEA094909EB00604044604505D1AB
:10400000143BB34202D3A0181438DBE7521C1C2A1D
:1040100002D2A318AB42E2D31C34AC42D5D338460B
:10402000D0E700004B56343000B5034600F00AF8E4
:104030005B1E012801D1002BF8D1012800D10420FA
:1040400000BD000000200849CA68D20701D0012045
:104050007047CA68D20601D503207047C96849076E
:10406000FBD50220704700000020024000B5034647
:1040700000F00AF85B1E012801D1002BF8D10128BD
:1040800000D1042000BD000000200849CA6CD207FE
:1040900001D001207047CA6CD20601D503207047B9
:1040A000C96C4907FBD50220704700000020024080
:1040B000054901EB90110A6800F01F0301209840A8
:1040C00002430A607047000000200240074801696F
:1040D00041F08001016106490988B1F5007F03D9EB
:1040E000016D41F080010165704700000020024031
:1040F000E0F7FF1F70B504462748284D284E00887A
:10410000B0F5007F32D92748844215D23046FFF7F8
:104110008BFF00280FD1286940F0020028616C61F4
:10412000286940F0400028613046FFF77DFF29698B
:1041300021F00201296170BD3046FFF797FF00288A
:10414000F9D1286D40F0020028656C65E8698007A8
:1041500000D56C61286D40F0400028653046FFF7BF
:1041600085FF296D21F00201296570BD3046FFF7FA
:104170005BFF0028F9D1286940F0020028616C61DA
:10418000286940F0400028613046FFF74DFF29695B
:1041900021F00201296170BDE0F7FF1F00200240FD
:1041A0000000FF0FFFFF070809480169094A0B06D5
:1041B000094901D542604160084B1B88B3F5007F77
:1041C00004D9036D1B0601D54264416470470000A9
:1041D0000020024023016745AB89EFCDE0F7FF1FC8
:1041E000F0B504460D462048204E214F0088B0F51A
:1041F000007F26D91F48844211D23846FFF714FFAA
:1042000000280BD1306940F001003061256038464C
:10421000FFF70AFF316921F001013161F0BD384635
:10422000FFF724FF0028F9D1306D40F00100306520
:1042300025603846FFF71AFF316D21F00101316525
:10424000F0BD3846FFF7F0FE0028F9D1306940F0A4
:104250000100306125603846FFF7E6FE316921F044
:1042600001013161F0BD0000E0F7FF1F00200240B6
:104270000000FF0FFFFF070870B58AB004460E4626
:10428000600500D0FEE74FF400612046FFF780FD97
:104290000546FDB9FF22242101A8FBF787FF012273
:1042A000042101A800F0D4FF0122042104A800F099
:1042B000CFFF0A48079008964FF0FF30099024225C
:1042C00001A92046FFF78CFD054604F50061204654
:1042D00001F08EF80AB0284670BD00004546343023
:1042E00010B50446224603A10020FCF749FB2046F6
:1042F00010BD00002564000010B5002821D0114B2E
:104300000022001F196803E0814203D80A46496869
:104310000029F9D152B11368841A9C4204D1006873
:1043200018441060104602E0506000E0186039B197
:1043300002680B1A934203D10B681A440260496861
:10434000416010BDCC0400200078002802D008682D
:10435000401C08600020704710B58AB00024039408
:104360000C48CDE90004002303AA012104A800F0B1
:10437000E7FE0398012808D80748CDE90004002388
:104380001A46194604A800F0DBFE044844700AB03F
:1043900010BD000049430008113600080C00002041
:1043A000F0B58FB00F4616461C46002501A9FFF751
:1043B000A7FD78B10CB1049820600498B04201D2F6
:1043C000049D00E0354647B12A4639460E98FFF76E
:1043D00001FD02E00CB1002020600FB02846F0BDC6
:1043E0002DE9F04788B081468A46904652464946B4
:1043F0000020FFF7A5FB060C0024174F07EBC405B0
:104400006868411C0ED037F83410B1420AD1283008
:1044100020226946FFF7DEFC524669464846FBF714
:10442000F8FE30B1641C102CE8D3002008B0BDE8C1
:10443000F08707EBC4004068C8F8000068884FF6B2
:10444000EF71884203D34FF6FF70688001E01030AF
:1044500068800120EAE700008C09002070B504465E
:104460000D464FF0FF36607801280CD0286B411CB8
:104470000BD0616801F50062904218D86A783AB1B1
:10448000AA68104405E0304670BD6068243070BDF5
:10449000001D01F2DC71FFF783FD616801F5006129
:1044A000814202D3A9680029F1D1304670BD30465F
:1044B00070BD000002460B4950684968431C0BD090
:1044C000D268531C0AD000EBC22001F5205188426B
:1044D00001D34FF0FF3070470846704700F5006089
:1044E000F3E700000C00002010B50022084B53F841
:1044F0003240844206D119B103EBC2004068086023
:10450000012010BD521C042AF1D3002010BD000070
:104510000C0A002010B50022491E0C4605E04B0194
:1045200000EBD3031B781BB1521C491E4B1CF6D168
:10453000A01A10BD2DE9F04301F00F04CD0602D5FD
:10454000042A18D0144300224FF00F0C012707FA59
:1045500002F51D401AD0D0F8009096000CFA06F82B
:1045600029EA080904FA06F848EA0908282908D0BF
:10457000482908D008E044F00304C26B1A43C26320
:10458000E1E7456100E00561C0F80080521C92B28D
:10459000082ADCD3082207FA02F51D4016D0D0F80D
:1045A0000490A2F10806B6000CFA06F829EA0809F8
:1045B00004FA06F848EA0908282902D0482902D056
:1045C00002E0456100E00561C0F80480521C92B22F
:1045D000102AE0D3BDE8F0832DE9F05F0746DDF84F
:1045E00028B08A4691461E464FF00008002F19D089
:1045F0003868B8B17868A8B1BAF1000F12D0B9F133
:10460000000F0FD0BBF1000F0CD00020CBF8000042
:10461000384600F045F809EB0601814204D9002034
:10462000BDE8F09F0020FBE7B968A0EB09021EE09F
:104630004FF001088C197868A04200D8241A002590
:104640000DE03B681AF805C01B5D634502D04FF0D2
:10465000000806E0641C844200D300246D1C4D4514
:10466000EFD3B8F1000F01D0CBF80060761CB8F1A1
:10467000000F01D19642DBD94046D1E700280AD08D
:10468000016841B1426832B1C1688068814204D397
:10469000081A101A02E000207047401A401E7047A6
:1046A000002809D0016839B142682AB1C168806820
:1046B000814203D3081A704700207047401A101A2D
:1046C0007047002809D041B13AB10023036142602C
:1046D0000160C360836001207047002070471CB5F3
:1046E00000230193009301AB00F005F808B1019895
:1046F0001CBD00201CBD2DE9F0471F46089B044649
:1047000016468946002C10D0206870B1606860B1F0
:1047100059B156B12046FFF7C3FF18B1B04206D2D7
:10472000D90704D00020BDE8F0870020FBE7B042A5
:1047300000D20646D4F808806068A0EB0805B542B0
:1047400000D3354620682A4600EB08014846FBF7AF
:104750000DFD09EB050308EB0500761B2EB1324673
:1047600018462168FBF702FD30466168814200D897
:104770000020A06023691BB1AA1900212046984798
:104780000FB1A81938600120CDE700280ED00168CC
:1047900000290BD04168002908D00021C160816048
:1047A0000369002B02D000220221184770471CB574
:1047B00000230193009301AB00F005F808B10198C4
:1047C0001CBD00201CBD2DE9F0471F46089B044678
:1047D00016468946002C10D0206870B1606860B120
:1047E00059B156B12046FFF749FF18B1B04206D281
:1047F000D90704D00020BDE8F0870020FBE7B042D5
:1048000000D20646D4F80C806068A0EB0805B542DB
:1048100000D3354620682A4640444946FBF7A6FCAB
:1048200009EB050108EB0500761B26B1324620682E
:10483000FBF79CFC30466168814200D80020E060B4
:1048400023691BB1AA190121204698470FB1A81965
:1048500038600120CFE7000001F098F801F0B8FAC5
:1048600000F0FEFF002000F0EBFF0E4E0E4C0F4D4F
:104870000027207818B930680078052802D1002078
:1048800001F03AFA207818B12770002001F01AF9E7
:10489000287810B12F7001F075FB002001F006FAA6
:1048A000E7E700003C00002020000020210000205D
:1048B000F0B50B30154D20F007010024144A0FE02D
:1048C00003688B420BD38B4205D95E1A43184768A5
:1048D000C3E9006700E04368136002C004E0021D02
:1048E00010680028ECD12046002802D1286808B1C1
:1048F0000020F0BD064A07481060074A121A22F04D
:104900000702C0E9002401202860D7E7D004002076
:10491000CC040020EC100020E83000202DE9F04706
:10492000A2B005464FF0000A2878022804D10022E0
:1049300029461046FEF716FE17A8A968FCF7E0FF07
:104940008046401C13D0344805F11009807890B19E
:1049500024216846FBF731FCAA7849466846FBF7F4
:1049600037FC09A96846FFF70BFBE8BB03E006200C
:1049700022B0BDE8F087A9680F46002217A800F012
:1049800009FD012306221DA9404602F01CF9143F2F
:10499000002419E004F12000B84201D2202600E0F2
:1049A0003E1BF01C20F00302296B04F114000844A4
:1049B0000FA9FFF70FFA08EB0400143032460FA9D5
:1049C000FFF70EFA82463444BC42E3D302230622A8
:1049D0001DA9404602F0F7F8A878C01C20F003009B
:1049E00000EB0801E86800E00FE0C01C20F00300C5
:1049F00001444FEAD82028314FEAC02000F0F8FCEB
:104A0000A9784246484600F06FFC01222946002062
:104A1000FEF7A8FD5046ABE70C0000202DE9F04161
:104A200006460F460024094D39463046FCF768FF1C
:104A30000146401C02D1687800B114B10846BDE8B7
:104A4000F081FFF789FC0124EEE700000C00002054
:104A5000C91CD21C21F0030122F0030211442831A9
:104A6000FFF7DCBF70B505460E460023002423483F
:104A70000168C1F30221072932D00168C1F3022184
:104A800006292FD00168C1F3022105292DD0016824
:104A9000C1F3022104292BD00068C0F302200328AF
:104AA00029D04FF4A06000F02BF802230224C3F1B8
:104AB00004008640C4F104010F20C8401040304378
:104AC000000105F1E02181F8000405F01F0101203B
:104AD00088406909890001F1E021C1F8000170BD39
:104AE0000424E4E701230324E1E702230224DEE7B0
:104AF00003230124DBE70423D9E700000CED00E0E9
:104B00000249084302490860704700000000FA05A6
:104B10000CED00E070B588B00346002035A104AE6E
:104B200091E83400C96834C6079133A106C9CDE9BC
:104B3000021231A106C9CDE90012324C6168C1F3FD
:104B40008101314A002930D001292ED002292CD1EF
:104B5000616801F48031B1F5803F11D05210616875
:104B6000C1F3834165682D0101D541F010016568ED
:104B70006D0001D541F020010F290ED2891C13E0F0
:104B8000E16A01F0804101B1204A616801F400311D
:104B9000B1F5003FE3D15208E1E7A1F10F052F2D58
:104BA00001D8491C00E03F214A436168C1F3031169
:104BB00004AD695C22FA01F16568C5F3022502AE15
:104BC000755D21FA05F56468C4F3C2241DF804403C
:104BD00021FA04F443B1012B08D0022B08D0032B97
:104BE00000D1204608B070BD1046FBE70846F9E743
:104BF0002846F7E70000000000000000010203045F
:104C0000060708090010024000127A00006CDC025E
:104C1000054901EB90110A6800F01F03012098403C
:104C200002430A607047000000100240054901EB92
:104C300090110A6800F01F030120984082430A6027
:104C40007047000000100240054901EB90110A680E
:104C500000F01F030120984002430A6070470000E3
:104C6000001002402DE9F04792B004464FF00008D2
:104C7000C146282208A9206BFFF7ACF8062108A836
:104C8000FFF748FCC0B220700E9FA760791CC24697
:104C900004D0B7F5205F01D8202F11D22821A160C0
:104CA000052807D0052020700523062208A9206BBF
:104CB00001F089FF84F801A0022012B0BDE8F0875E
:104CC000A7F2DD7042F22301884200D2FEE7203FC6
:104CD000002515E005F12000B84201D2202600E0B1
:104CE0007E1BF11C21F00302216B08446946FFF78B
:104CF00071F8324669464046FEF722FF8046354449
:104D0000BD42E7D30F98404504D084F801A04FF08E
:104D1000020919E001206070256B28359DF84000DC
:104D200004F11001C01C20F003022846FFF752F8DE
:104D30009DF84000C01C20F00300284460631198D7
:104D4000E0609DF84000A0704846B6E72DE9F043CA
:104D500097B007460C4691460025780500D0FEE73F
:104D6000A4B124220EA93846FFF734F867601498DE
:104D7000A0603C4900264FF0FF38884207D02670DB
:104D8000C4F80C80072017B0BDE8F083FEE70120CF
:104D900020701598E06004210EA8FFF7BBFB60703F
:104DA000042111A8FFF7B6FBA070B9F1000F56D08F
:104DB0002661606824306061607840F2DC79012807
:104DC00002D0022803D04AE0C4F8109047E004F172
:104DD00014013846FFF788FB38B161686069401AF2
:104DE000C0F5006020612846CDE7C4F81090CDF8EA
:104DF00030801AE06846FFF735FF9DF8010060B982
:104E00009DF80000012808D0052806D016A00C99AE
:104E1000FEF7A8FF266102250EE0606902990844AA
:104E2000606120690299401A206169462046FFF7B7
:104E300015FB0C90401CDDD16168606901F50061D3
:104E4000FEF76CFA6169814205D060616168401AC1
:104E5000C0F5006020616169606800F0C9FA284609
:104E600091E70000454634304572726F723A205423
:104E7000686520454E56202840307825303858291E
:104E800020435243333220636865636B2066616957
:104E90006C6564210A00000070B503460D46144697
:104EA000002D0ED0601E072101EB4010C2082946DC
:104EB0001846FEF78FFF21462846BDE87040FFF7F1
:104EC00029BBFEE702490A6882430A607047000076
:104ED0000428004003490968014201D001207047BD
:104EE00000207047042800400FB438B50498FEF73E
:104EF00083F800280BDD05AC23460094002108460A
:104F0000049AFCF747F8002804DA6FF0030038BC75
:104F10005DF814FBB0F5807F02DD6FF00400F6E76A
:104F2000224607480499FCF74FF8044622460449F4
:104F30000448FFF73CFCFCF731FF2046E7E70000A0
:104F4000B40E00209C0C00200FB430B585B008983A
:104F5000FEF752F800280ADD09AB04930021084649
:104F6000089AFCF717F8002805DA6FF0030005B07F
:104F700030BC5DF814FBB0F5807F02DD6FF00400FB
:104F8000F5E715A003C8CDE9020102A8FBF72CF94B
:104F900005462A4602A91248FFF709FC1148049A5F
:104FA0000899FCF711F8044622460E490C48FFF711
:104FB000FEFB2C440CA003C8CDE900016846FBF7BA
:104FC00013F905462A4669460548FFF7F0FB2C44CD
:104FD000FCF7E4FE2046CAE71B5B33313B000000D0
:104FE0009C0C0020B40E00201B5B306D200D0A00CD
:104FF0000FB430B585B00898FDF7FEFF00280ADD34
:1050000009AB049300210846089AFBF7C3FF002868
:1050100005DA6FF0030005B030BC5DF814FBB0F5A5
:10502000807F02DD6FF00400F5E715A003C8CDE92D
:10503000020102A8FBF7D8F805462A4602A9124841
:10504000FFF7B5FB1148049A0899FBF7BDFF04462A
:1050500022460E490C48FFF7AAFB2C440CA003C8BB
:10506000CDE900016846FBF7BFF805462A466946C8
:105070000548FFF79CFB2C44FCF790FE2046CAE74E
:105080001B5B33323B0000009C0C0020B40E002060
:105090001B5B306D200D0A000FB430B585B0089849
:1050A000FDF7AAFF00280ADD09AB0493002108469A
:1050B000089AFBF76FFF002805DA6FF0030005B0D0
:1050C00030BC5DF814FBB0F5807F02DD6FF00400AA
:1050D000F5E715A003C8CDE9020102A8FBF784F8A3
:1050E00005462A4602A91248FFF761FB1148049AB7
:1050F0000899FBF769FF044622460E490C48FFF762
:1051000056FB2C440CA003C8CDE900016846FBF710
:105110006BF805462A4669460548FFF748FB2C44CC
:10512000FCF73CFE2046CAE71B5B33333B00000024
:105130009C0C0020B40E00201B5B306D200D0A007B
:105140002DE9F0470646DDE908570C46904699469A
:105150004FF0FF30706015E0002231465046FFF7F7
:10516000F5FD14B17078A0420CD127B13A46314612
:105170005046FFF7EBFD2DB14A4641463046A84761
:10518000002805D13046FFF795F98246401CE3D14F
:10519000BDE8F08710B50378002B02D04478012CCD
:1051A00004D053B14078022804D006E00868401CBF
:1051B000086002E01068401C1060002010BD000074
:1051C0002DE9F04107460E4690460024002E19D0E6
:1051D0003846FBF709F8014642461B48FFF738FC02
:1051E000401C16D0184938463839FEF789FE054666
:1051F00035B11549002238393846FEF7B3F904466F
:1052000054B110E0012200213846FEF7ABF9044604
:1052100017E00620BDE8F0814346324639460A4889
:10522000FEF7B0F804463DB134B9074901223839D8
:105230003846FEF797F904460448407808B1FFF76E
:105240008BF82046E6E70000E80A00200C0000206A
:1052500070B5064615464FF0FF34491E072000EB97
:105260004110C108FF223046FAF7A0FF1DB16D1EA4
:10527000AC0000203055204670BD000000201149D0
:105280000A6842F001020A604FF4A063401C0A68F9
:1052900002F002020AB99842F8D10868800700D4E7
:1052A000FEE74868486048684860486840F48060A5
:1052B0004860486820F003004860486848604868D3
:1052C0007047000000100240FFF7D8BF10B5002360
:1052D000002203E0845C2344DBB2521C8A42F9DBE7
:1052E000D843401CC0B210BD2DE9F0471746102529
:1052F00010260A4601460020FEF722FC010C4FF65C
:10530000FF7C0024DFF88880A146781C1DD038F887
:105310003400884204D108EBC4004760BDE8F08740
:1053200008EBC4004268531C01D1102D0BD0521C55
:1053300017D042880AB1521E42804388634510D27A
:1053400026469C460DE025460BE038F8340088429E
:1053500007D108EBC4004FF0FF314160A0F8029084
:10536000DCE7641C102CD0D3102D07D208EBC5004D
:10537000476028F83510A0F80290CFE7102ECDD264
:1053800008EBC600476028F83610A0F80290C5E781
:105390008C090020FEB504461546002660780128D9
:1053A00002D0022808D020E0022304226946606867
:1053B00001F009FC064618E02069482802D3401A8B
:1053C00048280FD2032304226946606801F0FBFBE2
:1053D0000646606800F5006100F00AF82DB1012072
:1053E000287002E00DB1002028703046FEBD00009C
:1053F00070B504230022154D00F50066814211D9D5
:10540000B1420FD255F83240844205D145F83200FE
:1054100005EBC200416070BD641C0CD1042B0AD1A5
:10542000134608E055F83240844204D14FF0FF3073
:1054300045F8320070BD521C042ADFD3042BF9D288
:1054400045F8330005EBC300416070BD0C0A002035
:105450000220704770B5044600200022064D08E087
:10546000A65CC3B2734035F8133083EA1020521C97
:1054700092B28A42F4D370BD28720008C17A807A51
:10548000002903D040B140F20540704710B140F20E
:1054900004407047842070478520704770B50446EB
:1054A0000D460020174BE21A1E159C4216D008DC50
:1054B000154962180ED0B24217D10220FFF72AFB1D
:1054C00013E0B2420ED0B2F56C4F0ED10320FFF7BD
:1054D00021FB0AE00220FFF71DFB06E00220FFF798
:1054E00019FB02E00220FFF715FB00EB5500B0FBB3
:1054F000F5F04FF6F071014000F00F021143A1608A
:1055000070BD0000004C004000BCFFBF10B5214A38
:10551000811A1315904228D00EDC1F4940181AD06A
:10552000984236D140F212442046FFF78DFB2046C8
:10553000BDE81040FFF77ABB994220D0B1F56C4F1F
:1055400027D140F20E342046FFF77EFB2046BDE80F
:105550001040FFF76BBB40F211442046FFF774FB8D
:105560002046BDE81040FFF761BB40F213442046DF
:10557000FFF76AFB2046BDE81040FFF757BB40F23B
:1055800014442046FFF760FB2046BDE81040FFF7BB
:105590004DBB10BD004C004000BCFFBFC16841F4D2
:1055A0000051C1607047426922F400724261426951
:1055B00001F400710A4342617047426922F480722B
:1055C0004261426901F480710A434261704700EB15
:1055D0009110026801F01F03012199408A43026083
:1055E000704700EB9110026801F01F030121994000
:1055F0000A4302607047C1F3044301229A4000EB62
:105600009150D2430260704730B5C1F3891282587D
:1056100001F01F04012505FA04F31A4000EB915034
:105620000068C1F3044105FA01F31840002802D0D4
:105630000AB1012030BD002030BDC26822F4C06232
:10564000C260C2680A43C2607047C26822F00402A6
:10565000C260C26801F004010A43C2607047026977
:1056600022F44052026102690A4302617047C26833
:1056700022F00802C260C26801F008010A43C26059
:105680007047C26822F48052C260C2680A43C26096
:105690007047000070B504460D46002C7DD0414E89
:1056A000217A306806297BD2DFE801F00309264E13
:1056B0005B6A2046BDE87040012101F08DB8C4212D
:1056C0002046FCF719FD0022236911461046984731
:1056D000002805DD29462046BDE87040FDF7B2BC34
:1056E000A08800285CD1E169022088472046BDE8F7
:1056F0007040052101F070B8A08820B1C621204675
:10570000FCF7FAFC03E0C4212046FCF7F5FC00227C
:105710002369114610469847002805DD2946204692
:10572000BDE87040FDF78EBCE088002838D13068B5
:10573000C00203D524491CA0096888472046BDE85B
:105740007040042101F048B8C6212046FCF7D4FC83
:10575000E2690020904729462046BDE87040FCF7EA
:1057600021B9C00202D519A0FFF7BEFBC82120460F
:10577000FCF7C2FC2046BDE87040052101F02CB8C2
:10578000C00202D51AA0FFF7AFFBE16901208847EC
:1057900029462046BDE8704000E001E0FCF702B970
:1057A00070BD000098040020624261694B75507220
:1057B0006F746F3AB5C8B4FDB3ACCAB12CCDA3D6E3
:1057C000B9C9FDBCB6000000A004002076426169A2
:1057D0004B7550726F746F3A4241494B555F535449
:1057E0004154455F43414E43454C0D0A00000000C3
:1057F000764261694B7550726F746F3A4241494B02
:10580000555F53544154455F53544F50200D0A0087
:10581000002813D0418831B14188491E4180418818
:1058200009B901210170818811B18188491E8180E7
:10583000C188002902D0C188491EC180704700007C
:1058400010B500F09BFAFCF7D9FA10B90349002013
:105850000860BDE8104000F019BA0000980400206C
:1058600010B500F093F8FCF7ADF900F017FAFEF769
:1058700031F9014611B104A0FBF77CFBFCF7DAFB20
:10588000BDE81040FBF758B945617379466C617308
:105890006820696E6974206661696C2C20456645D4
:1058A0007272436F6465203D2025642E720A0000E9
:1058B0002DE9F04105460F469046144E30784007DA
:1058C00006D5294612A0FFF70FFB18A0FFF70CFB27
:1058D00000240BE0296847F824103078400702D5EF
:1058E00013A0FFF701FB2D1D641CE4B2B4EB980F6D
:1058F000F0D33078400707D50FA0FFF7F5FABDE8E1
:10590000F0410AA0FFF7F0BABDE8F081980400204A
:105910000D0A5265616420646174612066726F6D66
:10592000203078253032580A000000000D0A0000AF
:1059300030782578202000000D0A526561642065CA
:105940006E640A0010B509480078400702D508A027
:10595000FFF7CAFA0B490A48086048600022CA608B
:10596000BDE810400849FCF753BF00009804002030
:10597000696E697420666C617368200D0A200000EE
:1059800000D00008B4100020FF4F03082DE9F041BB
:1059900040F202642046FFF73BF9601CFFF738F93C
:1059A000A61C3046FFF734F9E01CFFF731F9201D43
:1059B000FFF72EF9601DFFF72BF9A01DFFF728F95F
:1059C000234D4FF6FF773B46022200212846FEF783
:1059D000B1FD3B46022200211E48FEF7ABFDDFF879
:1059E00078803B46022200214046FEF7A3FD3B465D
:1059F000022200211948FEF79DFD3B4602220021AC
:105A00001748FEF797FD3B46022200211548FEF796
:105A100091FD3B46022200211348FEF78BFD3046E4
:105A2000FFF7F6F86B14022248214046FEF782FD8C
:105A30002046FFF7EDF8AC15234602221021284638
:105A4000FEF778FD024810300460BDE8F0810000E8
:105A500000080140000C014000100140001401400A
:105A600000180140001C01400020014003490020B3
:105A700088800A210248FAF7A0BB0000BC0400207D
:105A8000C410002010B502220749FCF70DF930B10F
:105A900006480078400602D505A0FFF725FABDE8C4
:105AA0001040FFF7E3BF000068760008980400206C
:105AB0004B65795F5461736B3ABFAAB9D8BBFA20C2
:105AC0000D0A00002DE9F041654F387D000771D5C2
:105AD00064480068007805286CD0634C0026667026
