:020000040800F2
:10000000E034002049010008FF07000873080008D9
:1000100077080008C7070008590D00080000000015
:10002000000000000000000000000000C50B0008F8
:10003000CB07000800000000A5080008150C000808
:100040006301000863010008630100086301000800
:100050006301000863010008CD0700086301000880
:1000600061080008630100086301000863010008DB
:1000700063010008630100086301000863010008D0
:1000800063010008630100086301000863010008C0
:1000900063010008630100086301000863010008B0
:1000A00063010008630100086301000863010008A0
:1000B0006301000863010008630100086301000890
:1000C0006301000863010008630100086301000880
:1000D00063010008C50C0008630100086301000803
:1000E000E9070008A7080008630100086301000889
:1000F0006301000863010008630100086301000850
:10010000630100086301000863010008630100083F
:10011000630100086301000863010008630100082F
:10012000630100086301000863010008630100081F
:10013000DFF810D000F0FAFA004800472950000814
:10014000AFF30080E03400200648804706480047AF
:10015000FEE7FEE7FEE7FEE7FEE7FEE7FEE7FEE777
:10016000FEE7FEE71D0C00083101000810B5431A38
:10017000934209D28318881803E010F8011D03F890
:10018000011D521EF9D210BD40EA01039B0703D0A6
:1001900009E008C9121F08C0042AFAD203E011F8C6
:1001A000013B00F8013B521EF9D210BDD2B201E072
:1001B00000F8012B491EFBD270470022F6E710B56C
:1001C00013460A4604461946FFF7F0FF204610BDC5
:1001D00010B5044604E00B7800F8013B03B1491C5C
:1001E000521EF8D2204610BD421C10F8011B0029F7
:1001F000FBD1801A704710B5002200E0521C835CCE
:100200008C5CA34201D1002BF8D1D8B2E1B2401AE4
:1002100010BD30B505460020034600E05B1C93424C
:1002200005D2EC5CC85C201A01D1002CF6D130BD9F
:100230002DE9FE4F804681EA0300C00F0C46009076
:1002400021F0004123F00045B8EB0200A94105D29E
:100250004046214690461C460B46024623F000408D
:10026000104347D0270DC7F30A00C3F30A51029089
:10027000401A019040286BDAC3F3130040F4801B4E
:100280000098924620B10023D2EB030A63EB0B0BDC
:1002900001985946C0F14002504600F098F90646D0
:1002A0000D4650465946019A00F0A0F910EB08009F
:1002B0006141002487EA115284EAE7731A4340D06F
:1002C000009A62B3019A012A4FEA075215DC001B1B
:1002D00061EB02014FF0004202EA0752CDE9004211
:1002E000001C41F5801132462B4600F0A0F903B006
:1002F000BDE8F08F40462146F9E7001B61EB0201A3
:10030000001C41F5801300185B412018A2F500176E
:1003100047EB030140EAD570B6196D4111E06D0855
:100320004FEA360645EAC0754FEA0752001B61EBFB
:100330000201001C41F5801149084FEA3000001904
:10034000514132462B4603B0BDE8F04F00F060B992
:100350000098012240000023D0EB020263EBE0731F
:10036000009821464FEAE074B8EB000061EB04010D
:10037000E9E783F000435BE781F0004158E72DE9AE
:10038000FE4F81EA030404F0004421F00041009490
:100390004FF0000B23F0004350EA01045ED052EA14
:1003A00003045BD0C3F30A54C1F30A552C44A4F2EE
:1003B000F3340194A0FB0254C1F3130141F4801102
:1003C000C3F3130343F4801301FB024400FB034E09
:1003D000840A970A44EA815447EA8357A4FB0768D2
:1003E00002958D0A05FB07854FEA932C04FB0C54FC
:1003F0002705029D4FEA065847EA1637B5EB080570
:100400006EEB070C870E920E47EA811742EA8312C1
:10041000A7FB0201B6EB0B0164EB00042B0D43EAD2
:100420000C335E1844EB1C50DA465146E7FB0201E0
:10043000C5F313044FEA0B3343EA14534FEA043273
:10044000019C43EA0603A4F10C040294009CCDE94C
:1004500000B400F0ECF803B0BDE8F08F00200146D6
:10046000F9E72DE9F04D81EA030404F0004B21F097
:10047000004514464FF0000A23F0004150EA0502FF
:1004800020D054EA01021DD0C5F30A570246C5F335
:100490001303C1F31300C1F30A5640F4801543F46B
:1004A0008013A7EB0608101BD64608F2FD3873EB45
:1004B000050002D308F1010801E092185B41B8F190
:1004C000000F03DA00200146BDE8F08D00204FF454
:1004D0008011064684460EE0171B73EB050705D313
:1004E000121B63EB050306434CEA010C49084FEA73
:1004F000300092185B4150EA0107EDD152EA030047
:1005000012D082EA040083EA0501084305D0101BDB
:10051000AB4106D20122002306E000224FF0004347
:1005200002E06FF0010253101AEB06004CEB085189
:1005300010EB0A0041EB0B01BDE8F04D00F068B88C
:1005400030B50B46014600202022012409E021FAA3
:1005500002F59D4205D303FA02F5491B04FA02F5A0
:100560002844151EA2F10102F1DC30BD2DE9F05F37
:100570000546002092469B46884606468146402412
:100580001BE0284641464746224600F0E1F8534624
:100590005A46C01A914110D311461846224600F01F
:1005A00016F82D1A67EB01084F462246012000215C
:1005B00000F00DF817EB00094E41201EA4F10104D4
:1005C000DFDC484631462A464346BDE8F09F202AF4
:1005D00004DB203A00FA02F1002070479140C2F19A
:1005E000200320FA03F3194390407047202A06DBCA
:1005F000CB17203A41FA02F043EAE07306E041FAF1
:1006000002F3D040C2F120029140084319467047DE
:1006100010B5141E73F1000408DA401C41F100010A
:1006200092185B411A4301D120F0010010BD2DE961
:10063000F04D92469B4611B1B1FA81F202E0B0FA58
:1006400080F220329046FFF7C2FF04460F4640EA90
:100650000A0041EA0B0153465A46084313D011469B
:1006600053EA010019D0C8F14002504600F070F87A
:1006700005460E46504659464246FFF7A8FF084336
:1006800005D0012004E020463946BDE8F08D002069
:10069000054346EAE0762C4337430A986305E40AAB
:1006A000A0EB08000022FD0A44EA47540A3002D5B4
:1006B00000200146E9E7010510196941DDE9084517
:1006C00000196941BDE8F04DA2E7C1F30A52C1F338
:1006D000130140F2FF3341F480119A4202DA002004
:1006E0000146704740F233439A42A2F2334202DCA1
:1006F000524200F02DB8FFF76ABF000030B5041E6B
:1007000071F1000404DB4FF00044404264EB01014E
:10071000141E73F1000405DB1C464FF000435242E7
:1007200063EB0403994208BF904230BD064C074D6D
:1007300006E0E06840F0010394E8070098471034B1
:10074000AC42F6D3FFF7F8FC248400084484000888
:10075000202A04DB203A21FA02F00021704721FA16
:1007600002F3D040C2F1200291400843194670477D
:1007700070B58C1810F8015B15F0070301D110F863
:10078000013B2A1106D110F8012B03E010F8016B90
:1007900001F8016B5B1EF9D12B0705D40023521E13
:1007A0000DD401F8013BFAE710F8013BCB1A921C7B
:1007B00003E013F8015B01F8015B521EF9D5A14279
:1007C000D8D3002070BD00BFFEE7704710B50120F0
:1007D00003F09CFE20B101200249087003F090FE56
:1007E00010BD00002C00002010B54FF4005003F0A5
:1007F0008DFE18B14FF4005003F082FE10BD70471B
:1008000047323430345F5665725F335F335F31286F
:1008100032333056290000000000000000000000C4
:100820004170722032382032303236000000000031
:1008300000000000000000000000000000000000B8
:1008400031393A35363A34300000000000000000FB
:100850000000000000000000000000000000000098
:1008600010B5042003F052FE10B1042003F048FE3E
:1008700010BD00BFFEE700BFFEE7000010B5002876
:1008800007DA0A07140E054A00F00F031B1FD454A1
:1008900003E00A07130E024A135410BD18ED00E0DE
:1008A00000E400E0704710B5022004F071FF50B181
:1008B000022004F065FF4FF4003003F021FE4FF4F6
:1008C000003003F015FE10BD2DE9F04104460D4641
:1008D000164600BF0E4F3878532801D000F03EFA7C
:1008E00000BFEFF311800746202080F3118800BF7E
:1008F00000BF32462946204600F00CF88046F8B288
:1009000080F3118800BF00BF4046BDE8F0810000C1
:10091000D00400202DE9F047074688461646C24617
:1009200007EB47011B4800EBC109D9F8140020B1BF
:10093000012811D0022826D11EE0484600F046FAD0
:100940000546B54201D2002405E034463246514600
:10095000484600F092FB18E0484600F037FA05469A
:10096000B54201D2284600E03046044622465146B0
:10097000484600F082FB08E032465146484600F007
:1009800041FB044601E0002400BF00BF2046BDE853
:10099000F0870000E80400200FB438B5044606A82C
:1009A00000906A462046059900F007F805460020A9
:1009B0000090284638BC5DF814FB2DE9F04F99B043
:1009C00082460D46144603A814904020159000203E
:1009D0001690CDF860A0179000BF2E786D1C06B958
:1009E000DDE0252E79D100274FF0010900BF2E78D8
:1009F000232E12D02B2E0CD02D2E02D0302E10D123
:100A000003E047F001076D1C0EE047F002076D1C84
:100A10000AE047F004076D1C06E047F008076D1C6C
:100A200002E04FF0000900BF00BFB9F1000FDED1B6
:100A30004FF0000800BF2E78302E01DB392E00DD8C
:100A400007E06D1CA6F1300008EB880100EB4108BF
:100A5000F1E700BF002013902E782E2E12D16D1CCE
:100A600000BF2E78302E01DB392E00DD09E06D1C31
:100A7000A6F13000139901EB810100EB41001390C6
:100A8000EFE700BF2E7800BF6C2E01D0682E02D198
:100A90006D1C2E7800E000E0F6E700BF702E5DD000
:100AA00008DC252E6AD0582E35D0632E09D0642E4E
:100AB00069D113E0732E3CD0752E1DD0782E62D1F3
:100AC00028E02168081D2060D1F8009009F0FF0B94
:100AD000594614A800F074FA56E058E02168081D41
:100AE0002060D1F80090CDE900870A22494614A879
:100AF000139B00F079F947E02168081D2060D1F8C8
:100B00000090CDE900870A22494614A8139B00F003
:100B1000E1F939E000BF2168081D2060D1F800909C
:100B2000CDE900871022494614A8139B00F0D2F9A2
:100B30002AE02168081D2060D1F800B000BF9BF8B2
:100B400000600BF1010B06B906E0314614A800F075
:100B500037FA17980028F2DA00BF15E02168081D5F
:100B60002060D1F80090002008210B461022CDE92A
:100B70000010494614A800F0ADF905E0252114A89D
:100B800000F01EFA00E000BF00BF6D1C03E031461C
:100B900014A800F015FA17980028BFF61EAF00BF82
:100BA000179800280ADD169820B103A95046169A16
:100BB000FFF78AFEDDE9161008441790179819B060
:100BC000BDE8F08F704700001148006820F0080071
:100BD00008300F4908600846006820F00200801CB9
:100BE00008600846006820F00100401C08600846C4
:100BF000006820F04000403008600846006820F09F
:100C0000800008600846006820F004000860704713
:100C10008C04002010B505F059FE10BD08B526481B
:100C2000006840F47000244908602448006840F0DF
:100C300001002249086000BF2048006800F002005F
:100C40000028F9D000BF1D48406840F080001B49D3
:100C500048600020009002E00098401C009000983E
:100C60005028F9D31548406840F090001349486077
:100C70000020009002E00098401C0090009850284E
:100C8000F9D300BF0D48406820F003000B494860CD
:100C9000084600680A490840084908604FF41F00E8
:100CA00088600846006820F48020086000204860C2
:100CB000C86204F0B9FF08BD88ED00E000100240F2
:100CC000FFFFF6FE10B51D491D4805F0A7F970B1EC
:100CD0001A491B4805F099F91A48006838B10122F1
:100CE0001749091D17480068163004F02FF91649F6
:100CF000134805F093F900B31349114805F085F93D
:100D0000124800881249098888420CDA11480F49B4
:100D10000988405C0A49091D08600C480088401C8D
:100D20000A49088009E040F20731054805F053F907
:100D30000020064908800649088010BD050305000B
:100D400000380140AC04002007030700A60400207F
:100D5000A4040020B00F002000BFFEE770B5144CC3
:100D6000A8212046FFF729FA03202061606111A025
:100D7000A0611349E1614FF4806121620021A16209
:100D80006162E1620BA020660E4961661021A166D6
:100D900000212167E1666167002505E0C5F10F00CC
:100DA0000949085C60556D1C102DF7D370BD00001B
:100DB000D00400205465726D696E616C0000000003
:100DC00078050020780900202A79000810B501462E
:100DD0000A69CB689A4204D88C68641EE41AA01889
:100DE00001E0D41A601E10BD2DE9FC5F06460F46D7
:100DF00092469846DDE90C45002F01DA784200E082
:100E0000384683464FF0010903E09BFBFAFB09F1EA
:100E10000109D345F9DAC84500D9C14634B1002FDC
:100E200003DB05F00400042800D1641E05F0020075
:100E300010B1B8F1000F11D005F0010070B96CB11C
:100E400008E0641E2021304600F0BAF8F06800285F
:100E500000DA02E00CB1A145F3D300BFF06800282E
:100E600036DB002F05DA7F422D21304600F0A8F84E
:100E700007E005F00400042803D12B21304600F0E0
:100E80009FF8F068002823DB05F00200022814D147
:100E900005F0010088B9B8F1000F0ED16CB108E07F
:100EA000641E3021304600F08BF8F068002800DA2C
:100EB00002E00CB1A145F3D300BFF068002807DBC6
:100EC0004346524639463046CDE9004500F002F827
:100ED000BDE8FC9F2DE9FC5F8046894615461E460D
:100EE0000C9CCDF804900127BB4605E00198B0FBAF
:100EF000F5F001900BF1010B0198A842F6D25E4586
:100F000000D9B3460D9800F00100D0B9CCB10D98CE
:100F100000F00200022803D116B93020009001E051
:100F20002020009009E0641E4046009900F048F837
:100F3000D8F80C00002800DA02E00CB1A345F2D387
:100F400000BFD8F80C00002835DB09E0012E01D9DC
:100F5000761E04E0B9FBF7FAAA4500D201E06F4320
:100F6000F4E700BF00BFB9FBF7FA0AFB1799134873
:100F700010F80A10404600F023F8D8F80C000028BA
:100F800000DA03E0B7FBF5F7002FECD100BF0D98B6
:100F900000F0010078B174B109E0641E20214046E0
:100FA00000F00EF8D8F80C00002800DA02E00CB1CE
:100FB000A345F2D300BFBDE8FC9F00003B790008C9
:100FC00070B504460E46A568681C6168814206D368
:100FD00020684655681CA060E068401CE060D4E9C9
:100FE000011088420DD1A26821682069FFF76CFCCE
:100FF000A168884203D04FF0FF30E06001E000209C
:10100000A06070BD2DE9F05F0446894617464FF099
:10101000000AE56800BFD4F81080A84503D9A8EB02
:101020000500461E04E0A5EB0800401CA1680E1A4E
:10103000A068401BB04201D9304601E0A068401BC7
:101040000646BE4201D2304600E038460646606899
:1010500000EB050B324649465846FFF787F8B24485
:10106000B144BF1B3544A068A84200D10025E5600B
:10107000002FD0D15046BDE8F09F2DE9F04704463F
:1010800089461546E668A068871BAF420AD96068A2
:1010900000EB060A2A4649465046FFF767F87019E2
:1010A000E06014E0B846606800EB060A4246494634
:1010B0005046FFF75BF8A5EB0708D4F804A009EB4E
:1010C000070142465046FFF751F8C4F80C80BDE8CE
:1010D000F08700000FB4054B10B503A9044A02982D
:1010E00000F006F910BC5DF814FB000099490008F7
:1010F000040000207CB50C001D461646014601D0B8
:10110000601E00E00020CDE90010064B6A4629462B
:10111000304600F0EDF8002C02D0009A002111704A
:101120007CBD0000F719000837B514460846064B89
:101130006A46214600F0DCF804466946002000F0CB
:1011400065FC20463EBD00000D1A000802E008C8FC
:10115000121F08C1002AFAD170477047002001E031
:1011600001C1121F002AFBD1704700002DE9FF5F6B
:1011700082B00021DDE90430020DDDF840B0034308
:1011800018D044F61050A2F2FF32424315141198C1
:1011900001281FD0A5EB0B00401C5FEA000A4FF0AE
:1011A00000064E4FDFF83891B046504615D5CAF1CB
:1011B000000413E0119801244AA3012801D16FEA29
:1011C0000B010298119AC0E90031C0E9024206B051
:1011D000BDE8F09FCBF10000DFE704460021404A64
:1011E000491842EB0450CDE9001012E0E00707D0A7
:1011F00032463B4640464946FFF7C1F8804689469D
:1012000032463B4610461946FFF7B9F806460F46E8
:101210006410002CEAD1DDE90401DDE90023BAF114
:10122000000F06DAFFF7ABF842464B46FFF7A7F888
:1012300005E0FFF716F942464B46FFF712F9044660
:101240000E460022284BFFF759FA03D84FF0FF3023
:10125000014607E00022254B20463146FEF7E8FF15
:10126000FFF733FA102409E0002C0ADB0A220023DE
:10127000FFF77CF9039B30321A55641E50EA0102D5
:10128000F2D1641C039AC4F111031444119A012A87
:1012900003D0012208430DD10AE0084304D0002006
:1012A0004FF0110B119072E7A3EB0B056D1E0DE0D3
:1012B0005B4504DD4FF0000205F1010504E003DAAF
:1012C0004FF00002A5F10105002AECD00298119917
:1012D000C0E90231C0E9004579E700000000144090
:1012E0000000F03F300000000000F0430000E03F4D
:1012F0002DE9FF4F95B09A46884606460025EEE157
:10130000252877D100242746F94A0121039400E0DB
:10131000044316F8013F203B01FA03F01042F7D1D5
:1013200030782A2811D06FF02F033078A0F13002E6
:10133000092A16D8039A44F0020402EB820203EB56
:1013400042021044761C0390EFE758F8042B0392F6
:10135000002A03DA504244F40054039044F002049B
:10136000761C30782E2816D116F8010F44F00404AC
:101370002A280DD06FF02F023078A0F13003092B0E
:1013800009D807EB870302EB4303C718761CF3E782
:1013900058F8047B761C30786C280FD006DC4C287B
:1013A00017D068280DD06A2814D104E0742810D012
:1013B0007A280FD10DE044F400140AE044F48014BC
:1013C00001E044F440147278824202D104F58014A2
:1013D000761C761C307866280BD013DC582877D022
:1013E00009DC002875D04528F6D04628F4D04728D7
:1013F0001AD193E118E0632835D0642879D06528A4
:1014000012D18BE1702873D008DC6728F1D06928ED
:101410006FD06E280DD06F2806D1ACE073282CD089
:10142000752874D0782853D05246179990476D1C70
:1014300054E1C4F30250022809D003280DD0D8F893
:10144000001004280DD00D6008F1040846E1D8F81A
:101450000010EA17C1E90052F6E7D8F800100D8035
:10146000F2E70D70F0E718F8041B8DF8001000206B
:101470008DF80100EB46012003E058F804BB4FF063
:10148000FF3061074FF0000102D40DE009F10101C6
:101490008946B9420FDA8145F8DB1BF809100029AB
:1014A000F4D108E009F1010189468142FADB1BF819
:1014B00009100029F6D103985346A0EB09072146ED
:1014C0003846179A00F080FA284400EB090507E037
:1014D00044E008E10DE01BF8010B524617999047D4
:1014E000B9F10109F7D2534621463846179AF2E07E
:1014F00039E00A21C4F302524FF0000B0091022A96
:1015000006D058F8040BC117032A09D00AE023E0DB
:1015100008F1070020F00702F2E80201904605E01A
:1015200000B2C117042A01D140B2C117002906DA5E
:101530000A460021404261EB02012D2202E0220511
:1015400004D52B228DF80420012203E0E20701D00C
:101550002022F7E7914657E00A2100E010214FF0E2
:10156000000B00910BE010214FF0000B44F004043D
:101570000827009103E008204FF0000B0090C4F30F
:101580000252022A05D058F8040B0021032A08D081
:1015900008E008F1070020F00702F2E80201904697
:1015A00003E080B2042A00D1C0B24FF00009220744
:1015B0002AD53278702A07D0DDF800C08CF0100CE4
:1015C0005CEA0B0C05D00EE040228DF804200122CD
:1015D00008E050EA010306D030238DF804308DF87E
:1015E000052002229146009B83F0080353EA0B0377
:1015F0000AD150EA010201D1620705D530228DF8E7
:1016000004204FF001097F1E3278582A04D039A2F5
:101610000C920CAA02920BE03BA2F9E75B46009AFF
:10162000FEF7A4FF0C9B9B5C029A521E0292137061
:1016300050EA0102F2D1029804A9081A00F1200B25
:10164000600702D524F4803400E001275F4502DD05
:10165000A7EB0B0000E0002000EB0B0100900398CB
:101660004944401A0390E00306D453462146179A92
:10167000039800F0A9F90544002706E001A85246A6
:10168000C05D179990476D1C7F1C4F45F6DBE0034A
:101690000CD553462146179A039800F095F9054456
:1016A00004E030205246179990476D1C0099481E5F
:1016B00000900029F5DC08E0029802995246007873
:1016C000491C0291179990476D1CBBF10001ABF1C9
:1016D000010BF1DC5BE100F065F90544761C307824
:1016E00000287FF40DAE19B02846BDE8F08F000049
:1016F00009280100303132333435363738396162E8
:1017000063646566000000003031323334353637AB
:10171000383941424344454600000000600700D488
:10172000062708F1070020F00700F0E802238046B2
:1017300003F0004C5FEA0C0001D097A009E02005FF
:1017400001D596A005E0E00701D095A001E0AFF239
:101750004C001390307823F0004365280CD006DC51
:10176000452809D046281DD047287FD13BE0662870
:1017700018D067287AD136E00021112F01DB112023
:1017800000E0781CCDE9000104A90CA8FFF7EEFCED
:10179000DDE90D010C9A4FF0000B07F101091092E1
:1017A00000914EE04FF000400097CDE9011004A9F0
:1017B0000CA8FFF7DBFCDDE90D020C9B0F994FF045
:1017C000000B91461093009211B9791C00EB0109AE
:1017D000B7EB090003D4C0F1FF3B07F10109A9EB06
:1017E0000700019042E0012F00DA01270021112FAC
:1017F00001DD112000E03846CDE9000104A90CA864
:10180000FFF7B4FCDDE90D010C9A00914FF0000BDD
:10181000B946109221070FD4009A4A4503DA91463F
:1018200001E0A9F10109B9F1010F05DD109AA9F153
:101830000101515C3029F4D0B84202DA10F1040FF2
:1018400003DA0121CDE9011010E0002803DC834414
:10185000A9EB000102E0411C494500DD8946A0EBEF
:101860000B00401C01904FF000400290200705D46F
:101870000198484502DB4FF0FF30019000208DF8C1
:101880004B0002980DF14B07B0F1004F25D002201C
:101890000C902B200D90029800280CDA4042029008
:1018A0002D200D9007E00A210298FEF749FE303105
:1018B000029007F8011D0C99481E0C900029F2DCDB
:1018C00002980028EFD1791E0D980870307800F04A
:1018D000200040F0450007F8020D11A8C01BC01DF4
:1018E00002901398007800B1012000EB09010198E3
:1018F00001EBE071029801440398401A401E0390E6
:10190000E00306D453462146179A039800F05CF88A
:1019100005441398007818B15246179990476D1CEA
:10192000E00323D553462146179A039800F04CF85C
:1019300005441BE0BBF1000F07DB0098584504DDB0
:101940001098179910F80B0001E0179930205246B3
:10195000904701980BF1010B401E05F10105019024
:1019600004D12E205246179990476D1CB9F1000101
:10197000A9F10109DEDC05E017F8010B52461799C1
:1019800090476D1C0299481E02900029F4DC5346D2
:101990002146179A03989EE62D0000002B000000B8
:1019A000200000002DE9F041044600251E461746A0
:1019B000880404D405E039462020B0476D1C641E1D
:1019C000F9D52846BDE8F0812DE9F041044600250F
:1019D0001E469046C80301D5302700E02027880422
:1019E00004D505E041463846B0476D1C641EF9D564
:1019F0002846BDE8F0814A68002A06D00A68531CD0
:101A00000B6010704868401E486070470A68531C9D
:101A10000B60107070472DE9F84306460F461446D8
:101A20004FF000084FF00409FF2249466846FEF7D0
:101A3000BDFB24F003052DB12A463946304602F09D
:101A4000CBFC8046651BB8F1000F0FD175B124F0B7
:101A50000300C1192A466846FEF788FB24F00301FB
:101A600088194A46694602F0B7FC80464046BDE800
:101A7000F883000013B586B004464FF0FF300590A0
:101A8000002004900390184903AB04AACDE900108C
:101A90000146204603F0E8FF039848B101201349AE
:101AA00005AB07AACDE900100221204603F0DCFFB8
:101AB0000498B0B10598401C98B90498012802D840
:101AC0000B48007850B10120084905AB07AACDE9C1
:101AD00000100146204603F0C7FF02E00120044940
:101AE0000870059808B010BDC95A0008F51A00081A
:101AF0001900002070B503460C461546187880B1D1
:101B000018692668B0420CD99878012805D09878D1
:101B1000022806D10448007818B9586928600120C5
:101B200070BD0020FCE700001900002070B50446DD
:101B30000D4604B970BD0020207241F27070A08083
:101B40004FF47A70E08001206070284600F042FE79
:101B500000BFEFE701460D4A881A914210D006DC1B
:101B60000B4A104450B1B0F1223F0DD107E00948B3
:101B7000084430B1084A104430B903E000BF00BF48
:101B800000BF00BF012070470020FCE7BBBBAAAA32
:101B90003333222234334444CECDCBCB2DE9F0472E
:101BA00005460E464FF00008701B401C4FEAD02936
:101BB000A5F10060C70A24480078C0F3800028B16E
:101BC00033462A46394621A003F0EEFD02F030FEEE
:101BD00040F2053002F094FD4FF4417002F090FDA8
:101BE00040F2023002F08CFD002420E04FF400614E
:101BF00001FB045002F0AAFD48B913480078C0F375
:101C0000800078B139191DA003F0CEFD0AE04FF035
:101C100001080D480078C0F3800018B139191EA0E2
:101C200003F0C2FD40F2073002F06AFD641C4C452F
:101C3000DCD302F075FDB8F1000F02D00020BDE842
:101C4000F0870120FBE700008C040020624F7065E4
:101C500072466C6173683A457261736525642C61E4
:101C60006464726573733A30782530325820746F2B
:101C700020307825303258200D0A0000624F706500
:101C800072466C6173683ABFAACABCB2C1B3FDB5F3
:101C9000DA2564D2B30D0A00624F706572466C613A
:101CA00073683AB5DA2564D2B3B2C1B3FDCAA7B03E
:101CB000DC0D0A002DE9F04107460C461546214887
:101CC0000078C0F3800010B11FA003F06DFD02F09A
:101CD000AFFD4FF000080BE03846216802F0CAFD66
:101CE00010B10020BDE8F0813F1D241D08F101085E
:101CF000B8EB950FF0D305F0030686B12088C6F146
:101D000004024FF0FF31D14008401FFA80F84146ED
:101D1000384602F0AFFD08B10020E3E700BF40F213
:101D2000073002F0EDFC02F0FBFC06480078C0F33F
:101D3000800028B10AA003F037FD0EA003F034FDA7
:101D40000120CFE78C0400200D0A207374617274A7
:101D500020777269746520464D43200A0000000018
:101D60000D0A577269746520636F6D706C657465D8
:101D7000210A00000D0A00000120704770B50546D9
:101D80000C4600261C480078C0F3800028B11B4890
:101D9000008881B21AA003F007FD1849224608689E
:101DA000294600F0DFFE0646002E1ADD13480068C3
:101DB000204412490860084600681849884202D940
:101DC00017480E4908600C480078C0F3800030B115
:101DD0000A480068411E224612A003F0E5FC0120DB
:101DE00070BD05480078C0F3800018B1314619A0D5
:101DF00003F0DAFC0020F3E78C040020B010002090
:101E0000624F706572466C6173683ABFAACABCB50E
:101E1000D8D6B7307825780D0A000000FF4F0308A8
:101E200000D00008624F706572466C6173683AD0EA
:101E3000B4C8EBB3C9B9A62CBDE1CAF8B5D8D6B7BA
:101E40003D307825782CB4F3D0A13D25642E0D0AC1
:101E500000000000624F706572466C6173683AD092
:101E6000B4C8EBCAA7B0DC2EB4FAC2EB3D25640DB2
:101E70000A00000030B5034607E013F8014B11F8E3
:101E8000015BAC4201D0002030BD101EA2F1010464
:101E9000E2B2F2D10120F7E70448806800F4005074
:101EA00008B9002070470120FCE700000010014045
:101EB0000348008808B1002070470120FCE70000BB
:101EC000A404002010B504460CB9002010BDB4F5E0
:101ED000807F01DD4FF4807422460A490A4802F0EF
:101EE000B4FF0A49088000200949088009490A48C6
:101EF00004F08BF840F20731074804F079F801202C
:101F0000E4E70000B00F0020980C0020A40400209B
:101F1000A6040020070307000038014038B501245B
:101F200009480A4B220208210090094800F018FFD6
:101F30000446002C01DC002038BD0548006808B9C3
:101F40000020F9E70120F7E7356E0008E5240008D6
:101F5000B404002010B56423EF224FF480710548CB
:101F600000F0CBFB0446002C01DC002010BD01205A
:101F7000FCE70000AC04002010B500240C48006809
:101F800008B9002010BDFFF793FF08B90020F9E75A
:101F9000084802F035FF084908800846008820B14B
:101FA00008460088FFF78EFF04462046EAE7000057
:101FB000A8040020980C00209404002010B5EF2203
:101FC0004FF48071044800F0E5FB0446002C01DC6E
:101FD000002010BD0120FCE7A804002010B5FFF789
:101FE000B9FF08B9002010BDFFF7E8FF08B90020CD
:101FF000F9E7FFF793FF08B90020F4E74FF4007208
:102000000349044802F013FF00F082F90120EAE7D7
:10201000B00C0020980C002008B50020164B02469A
:1020200008210090154800F09BFE00280FDC1448A2
:10203000007800F0010020B911480078C0F3C0001A
:1020400018B110A0194909688847002008BD0B483D
:10205000006878B90A48007800F0010020B9084803
:102060000078C0F3C00018B111A010490968884772
:102070000020EBE70120E9E7B92300083800002041
:102080008C040020625379735461736B3A747053FB
:1020900079735461736BC8CECEF1B6D4CFF3B3F578
:1020A000CABCBBAFCAA7B0DC000000009804002087
:1020B000625379735461736B3A74705379735461DA
:1020C000736BC8CECEF1B6D4CFF3B4B4BDA8CAA753
:1020D000B0DC000070B504460D463248407EA04298
:1020E0005DD030484476407E01280CD100022E4954
:1020F00008602E48007800F0010000284FD02CA086
:1021000003F052FB4BE02748407E022809D12748C4
:10211000007800F00100002841D02DA003F044FB1E
:102120003DE02048407E03280ED14FF480701E49C8
:10213000091D08601D48007800F0010000282ED01D
:102140002BA003F031FB2AE01648407E042809D179
:102150001648007800F00100002820D02CA003F0E1
:1021600023FB1CE00F48407E05280CD14FF4807003
:102170000D4908600D48007800F0010078B12CA0EE
:1021800003F012FB0BE00748407E062807D1074802
:10219000007800F0010010B12DA003F005FB012034
:1021A00070BD0000640C0020100801408C04002069
:1021B000625379735461736B3ACFB5CDB3C8CECE49
:1021C000F1D7B4CCACCEAAB3F5CABCBBAF0D0A00F4
:1021D000625379735461736B3ACFB5CDB3C8CECE29
:1021E000F1D7B4CCACCEAAB9D8B1D5D6D00D0A00AF
:1021F000625379735461736B3ACFB5CDB3C8CECE09
:10220000F1D7B4CCACCEAAB9D8B1D50D0A00000034
:10221000625379735461736B3ACFB5CDB3C8CECEE8
:10222000F1D7B4CCACCEAAB4EDCEF30D0A000000C9
:10223000625379735461736B3ACFB5CDB3C8CECEC8
:10224000F1D7B4CCACCEAAC6F4B6AFD6D00D0A0046
:10225000625379735461736B3ACFB5CDB3C8CECEA8
:10226000F1D7B4CCACCEAAB9A4D7F70D0A000000C0
:1022700010B518210248FDF7A0FF012010BD000095
:10228000800C002010B5044604B910BD0020207356
:10229000607341F27070E0804FF47A70208140F2F8
:1022A000054104F10E00FDF788FF00206080012049
:1022B000607000BFE9E702460AB90020704721B10B
:1022C000012908D002291ED10EE002205072002000
:1022D000A2F80F0018E0B2F813004FF4FA6393FB72
:1022E000F0F0A2F80F000FE00F3290884FF47A73ED
:1022F00093FBF0F01080908842F2107393FBF0F0A3
:1023000050800F3A00E000BF00BF51750120D5E7B3
:1023100010B5094802F006FE084800680849086040
:1023200004F030FA0748808A20F4806000F580606D
:102330000449888210BD0000980C0020B4040020DD
:1023400090040020640C002070B504460D462078EF
:1023500008B9002070BD002211462846E36898475E
:10236000002801DC0020F5E7C820608000202070F4
:102370000120EFE770B504460D46207808B900202B
:1023800070BDFE2D05D1E07A08B9152000E063206C
:102390000546002211462846D4F8143498470028F0
:1023A00001DC0020ECE7002060800A20A0800020F3
:1023B00020700120E4E7000010B504460020A07260
:1023C000607020812081E08004F1170002F018FD88
:1023D0003249088008460088032190FBF1F201FB96
:1023E0001200C0B12D480088A8B12D48007800F037
:1023F000010020B92A480078C0F3C00028B127485E
:10240000018828A0304A1268904704F1170002F0B2
:1024100089FD002010BD2D48007D00F0010020B98D
:10242000012020700020608012E01C48008860B10C
:102430000122214604F1170002F007FD0222A11C2F
:1024400004F1170002F001FD02E00020207060801E
:102450002078062818D2DFE800F01803070B0F13C6
:102460001B48C4F80F0015E01A48C4F80F0011E02B
:102470001948C4F80F000DE01848C4F80F0009E02F
:102480001748C4F80F0005E000BF0020C4F80F0093
:10249000608000BF00BF0120BCE7000040000020BA
:1024A0008C040020625379735461736B3AC8CECEAA
:1024B000F1B6D3C1D0B3A4B6C8D2ECB3A320B3A4B1
:1024C000B6C825640000000098040020640C0020B9
:1024D00039760008857400088175000805770008C2
:1024E000B177000838B504460020009004B938BD23
:1024F0000020A0726070A0802081E08004F11700AD
:1025000002F07EFC80B20090BDF80000032190FB39
:10251000F1F201FB120040B1BDF8000028B104F156
:10252000170002F0FFFC0020E1E7BDF8000060B1F9
:102530000122214604F1170002F087FC0222A11CAF
:1025400004F1170002F081FC03E00120207000205C
:1025500060802078012803D10348C4F80F0000BF31
:1025600000BF0120C3E70000057100087CB50446E8
:1025700000254FF400700190002000900CB9801EDF
:102580007CBD04F1160002F03BFC617A88427FD3E7
:10259000607D20B1012855D0022873D16CE0022261
:1025A000694604F1160002F050FC43E09DF800007B
:1025B0002178884222D19DF801006178884207D0B5
:1025C0009DF80100EF2803D09DF80100EE2815D1F9
:1025D00001220DF1020104F1160002F036FC9DF813
:1025E0000200032802DA4FF0FF30C9E79DF802002D
:1025F000607201212046FFF75EFE1CE004F1160028
:1026000002F0FEFB00B916E09DF801008DF8000015
:1026100001220DF1010104F1160002F016FCBDF8D3
:102620000400401E80B20190BDF8040010B96FF0A4
:102630000200A5E7BAE700BF607D10B96FF00300A4
:102640009EE700BF04F1160002F0DAFB617A8842CF
:1026500010D3607AA070204600F09AFC002802DCBB
:102660006FF001008CE702212046FFF724FE02E014
:102670000EE007E00BE000BF012500212046FFF738
:102680001AFE04E000212046FFF715FE00BF00BF40
:10269000284675E72DE9F04104460F4616461D46CB
:1026A0004FF00108FA2D03DD4FF0FF30BDE8F08157
:1026B00014B96FF00100F9E7B8F1000F1BDD2078C5
:1026C000E07061782171E81C6071A7710021E171EF
:1026D00036B12DB12A46314604F10800FDF746FD1A
:1026E000A81DA0706079411EA01D03F0A1FAA17879
:1026F000491EE21C50544046D8E72DE9F0470446F5
:102700000D4616461F464FF00109062D03DA4FF01D
:10271000FF30BDE8F08705F12E08404602F0B6FC18
:102720002060284602F0B2FC2168C1F8030020684E
:1027300020B32068D0F8030000B3AA2021680870F5
:10274000206846702068A0F8137000202168A1F866
:102750000F002168A1F81100226802F12E0102F198
:1027600016002A4602F063FB216801F1160002F010
:10277000D9FB00212068FFF79EFD09E02168D1F810
:10278000030002F015F9206802F012F96FF0010958
:102790004846BEE72DE9F04104460D4616464FF087
:1027A0000108062D03DA4FF0FF30BDE8F081EF1C81
:1027B000384602F06BFC2060AA202168087020686F
:1027C0004670206820B9206802F0F2F86FF0010826
:1027D0004046EAE710B5044614B94FF0FF3010BD8B
:1027E00004F1160002F09EFB00212046FFF763FD76
:1027F0000120F4E72DE9F84304460E4617464FF052
:102800000008002514B9681EBDE8F8830EB1062F34
:1028100002DA6FF00100F7E724E0705D217888426A
:102820001FD1681C305C6178884203D0681C305C22
:10283000EF2816D1A81C305CB84212DC705D207005
:10284000681C305C6070A81C305CA070781BC01ED7
:10285000A178884202DA6FF00200D5E74FF0010854
:1028600003E06D1CF81EA842D7DA00BFB8F1000FD4
:1028700002D16FF00300C7E7A278511EEA1CB0181E
:1028800003F0D6F90090A0782844801C305C9DF8B5
:102890000010884202D06FF00400B5E7A278EB1C6C
:1028A000F118D4F80300FDF761FCD4F803000078B8
:1028B000E071D4F8030040782072A078C01EA072A6
:1028C000A07A28B1D4F80300801CC4F80B0001E002
:1028D0000020A072012097E770B505460C46012D37
:1028E00013D14FF0AA301F49086600231A4605216C
:1028F0001D48006800F072F91C480078C0F34000E1
:10290000B0B11BA002F050FF12E04FF08830154923
:10291000086600231A4602211348006800F05EF999
:1029200012480078C0F3400010B116A002F03CFF3E
:102930000C4880F86440032C01D0012C04D1002104
:10294000084880F8651007E0064890F86500401CCC
:10295000C1B2044880F865100E4800F0B7F840B2E4
:1029600070BD0000FC0B0020380000208C0400200B
:1029700020537461727420557064617461210D0A72
:10298000000000002045786974205570646174610E
:10299000210D0A006783000870B5064616B94FF08E
:1029A000FF3070BD0024002523493046FDF723FC8D
:1029B000D0B96024002322462049214801F028FC98
:1029C0000546A54202D06FF00100EAE70824002383
:1029D00022461A4960311B4801F01AFC0546A542FF
:1029E00022D06FF00200DCE715493046FDF703FC0A
:1029F00040B96024002322461049114801F008FC28
:102A0000054611E00F493046FDF7F5FB48B90824AB
:102A100000232246094960310A4801F0F9FB0546C6
:102A200002E06FF06200BCE7A54202D06FF0270021
:102A3000B7E70120B5E700004C830008FC0B00203D
:102A40005A8300086783000810B504461A492046D7
:102A5000FDF7D1FB78B9602218491948FDF786FBCC
:102A60004FF08830164908660021154880F8641038
:102A700080F865101DE013492046FDF7BCFB28B91E
:102A800060220E490E48FDF771FB12E00E49204608
:102A9000FDF7B1FB50B94FF08830094908660021B5
:102AA000074880F8641080F8651002E06FF062005B
:102AB00010BD0120FCE700004C830008000800085E
:102AC000FC0B00205A8300086783000870B5044699
:102AD00014B94FF0FF3070BD002517492046FDF7AF
:102AE0008AFB20B901F02EFB18B3A81EF3E71349A7
:102AF0002046FDF780FB48B960252A46104920464C
:102B000001F08CFCA8B16FF00900E4E70D49204604
:102B1000FDF771FB50B908252A4609496031204666
:102B200001F07CFC28B16FF00A00D4E76FF062007E
:102B3000D1E70120CFE700004C8300085A8300084A
:102B4000FC0B00206783000870B504460D4629463B
:102B50002046FFF723F810B94FF0FF3070BD012079
:102B6000FCE700002DE9F04107460D46144605B18B
:102B700014B90020BDE8F081224629463846FFF707
:102B800099F810B94FF0FF30F4E70B480078C0F324
:102B9000800078B1214609A002F006FE002604E07C
:102BA000A95D0CA002F000FE761CA642F8D30AA094
:102BB00002F0FAFD0120DDE78C0400200D0A20D090
:102BC000B4C8EBB5C4CAFDBEDD20B3A4B6C83D2071
:102BD00025642000257820000D0A0000FFB583B091
:102BE00004460F461E460020029014B9801E07B00E
:102BF000F0BD2078B84206D16088BDF81410884234
:102C000001D10020F3E75EB104F1170002F08AF968
:102C1000D4F8130020B1D4F81320002120469047A7
:102C20008DF80870BDF81400ADF8090004F1170024
:102C300002F0E6F885B24DB3032095FBF0F100FBFE
:102C4000115030B104F1170002F06CF96FF002007E
:102C5000CDE7032D0CDD01A8EB1E032202A9009095
:102C600004F1170002F057F800280EDD0020BEE73F
:102C700001A80023032202A9009004F1170002F02A
:102C80004AF8002801DD0020B1E700BF032202A9B5
:102C900004F1170002F05AF90EB9207848B9D4F8B7
:102CA000130020B1D4F813200121204690470120C1
:102CB000A072D4F8130020B1D4F8132002212046CA
:102CC00090470EB1022092E7012090E770B50446CC
:102CD0000D4600260CB9701E70BD0020A080E0805B
:102CE000FD2D04D0FE2D11D0FF2D1ED11AE0D4F8F9
:102CF000130020B1D4F81320FD21204690476078BE
:102D0000002802DD6078401E607018E0D4F81300DF
:102D100020B1D4F81320FE21204690476078401C53
:102D200060700CE0FF20607009E0D4F8130020B15F
:102D3000D4F813200A2120469047657000BF00BFD9
:102D40006078FF280ADBD4F8130020B1D4F81320F0
:102D5000FF21204690470120A07201263046BBE7A4
:102D60002DE9F04704460D4616461F46DDF8209033
:102D70004FF0010A17B10DB1642D03DD4FF0FF30A4
:102D8000BDE8F087472000EB450000EB0608404611
:102D900002F07CF92060206800283DD000202168E6
:102DA00008702168487021684880216888802168FF
:102DB000C880216808812068C0F80B700020216855
:102DC000C1F80F002068C0F81390002021688872B5
:102DD0002168C1F817002168C1F82F006A00236834
:102DE00003F1470103F1170002F021F8216801F116
:102DF000170002F097F8A6B12268473202EB4501AE
:102E0000226802F12F00324602F011F8216801F128
:102E10002F0002F087F804E0206801F0C9FD6FF090
:102E2000010A5046ACE7000010B5002417480068BE
:102E300017490840B0F1005F01D0601E10BD154871
:102E400090F86400032801D1401FF7E70221002019
:102E5000FFF742FD03F088FC022003F0D1FC72B6BC
:102E600000204FF0E021086148618861074844680C
:102E7000094804600549086880F3088800BF0648CF
:102E8000006880476FF00200D8E7000000D000081B
:102E90000000FE2FFC0B00203C00002070B5044613
:102EA0000D460126022C28D11A48006820B1194885
:102EB0000068D0F8160010B96FF0010070BD164818
:102EC0001649C860C86802F02DF81248006816302C
:102ED000124988600F480068FFF77CFC0D480068C5
:102EE0000E4908610E4800684861284600F02CF839
:102EF00010B94FF0FF30E1E706E0214609A0114A82
:102F000012689047002400BF00BF04480471304697
:102F1000D4E70000AC040020980C0020800C0020B6
:102F2000A8040020B5B1C7B0CDA8B5C02564CEB403
:102F3000B6A8D2E52CC7EBD6D8D0C2D1A1D4F1CD5A
:102F4000A8B5C0009804002010B50446012C02D09A
:102F5000022C13D109E04FF448700A49488001203F
:102F600048710948FFF78EF909E0022005494871C8
:102F7000084601690548FEF7D9FD00E000BF00BF23
:102F8000012010BD800C0020440000206C040020B3
:102F900038B504460125A078032801DAA81E38BDFB
:102FA00014B1D4F8030010B96FF00100F7E7002D59
:102FB00030DDA278D4F8031004F1160001F045FFCB
:102FC000A278511ED4F8030002F032FE0090D4F82B
:102FD0000310A078401E085C9DF80010884201D0C4
:102FE0006FF00205002D14DDD4F803000078E071C5
:102FF000D4F8030040782072A078C01EA072A07A96
:1030000028B1D4F80300801CC4F80B0001E00020B4
:10301000A07200BF2846C2E70A4800780D2803D0F6
:10302000002009490880704707480088401C06496D
:103030000880084600880A2801DB0020088001205B
:10304000F1E70000B0040020B20400202DE9FE43A7
:1030500004460D461746002002900190002688483D
:103060004079012802D0022872D1C1E0B7E084493A
:10307000886801F0C5FE08B38149886801F0C0FE88
:1030800080B20190BDF80400BDF808100844A842C1
:1030900004DDBDF80800281A80B20190BDF80820B0
:1030A000A118774A9068BDF8042001F0CEFEBDF863
:1030B0000800BDF80410084480B20290207804286B
:1030C00011D1BDF8040001280DD1BDF808003880E9
:1030D0006C480068C0F3804010B16BA002F064FB44
:1030E0000220BDE8FE837348007B022868D04FF0C1
:1030F00000086348007902282BD16149BDF80820F7
:1031000008692146FFF776FB00283BDD5C48006933
:10311000C079C22836D15A480069D0F80B0000287F
:1031200030D057480069807A03282BD15448006971
:10313000D0F80B000078022824D151480069D0F85B
:103140000B104F48B1F8011041804FF0010819E011
:1031500091E04B480079012806D14948017956A0F1
:103160005D4A126890470DE046480068C0F3804011
:1031700028B14348017959A0574A126890474FF047
:10318000FF30AEE7B8F1010F19D100200090022006
:103190008DF800009DF80000FFF7D6FE01280DD144
:1031A00037484088ADF8010003226946C32000F08B
:1031B000CBF801204F490870632092E700BF00BFA1
:1031C0003C48808858B92F480068C0F3804018B147
:1031D00049A04149096888474FF0FF3081E7BDF8B1
:1031E0000800A842FFF643AFBDF80800388043E06E
:1031F00023490869FFF7BAF90646002E2DDD20485D
:103200000069C079C22827D11D480069D0F80B1089
:103210001B48B1F8011041800069D0F80B0000781C
:10322000022818D10020009002208DF800001448D8
:103230004088ADF8010003226946C32000F084F8FD
:1032400010480068C0F3804018B1022130A002F09D
:10325000ABFA002045E700BF00BF002E09DA09489D
:103260000068C0F3804020B1314630A01A4A12688D
:103270009047304635E700BF00BF012031E700002E
:10328000800C00208C040020625570646174613AE7
:103290002D2D2D2DBDD3CAD5B5BDB7FBBAC5454F14
:1032A000542CBDD3CADCBDE1CAF82D2D2D2D0A0D3D
:1032B0000000000044000020B5B1C7B0CDA8B5C0E3
:1032C0002564CEB4BFAAC6F42CC7EBD6D8D0C2D1E1
:1032D000A1D4F1CDA8B5C0009C0400206255706453
:1032E0006174613ACDA8B5C02564CEB4B6A8D2E564
:1032F000000000006C040020625570646174613A43
:10330000BDD3CADCB5C8B4FDB3ACCAB1000000007F
:10331000625570646174613AC9E8D6C3C9FDBCB630
:10332000D0ADD2E9CEAA2564200A0D0062557064A2
:103330006174613ACAFDBEDDBDE2CEF6B4EDCEF3F6
:103340002CB4FAC2EB256400F7B50D4614460126ED
:1033500024480079022839D122484079012802D036
:10336000022830D10FE01F490122C868694601F0E8
:10337000EDFD2CB11B492246C868294601F0E6FD47
:10338000FEF7FAFD20E09DF8000010B94FF0FF3085
:10339000FEBDE3B213492A4648699DF80010FFF7C5
:1033A00079F90646002E0DDD0E4B5B699A780D4BC0
:1033B0005B69D91C0B4BD86801F0C8FDFEF7DCFD3A
:1033C0000120E5E700E000BF00BF07E00548017904
:1033D00005A00D4A12689047002600BF00BF304686
:1033E000D6E70000800C0020B5B1C7B0CDA8B5C0AD
:1033F0002564CEB4BFAAC6F42CC7EBD6D8D0C2D1B0
:10340000A1D4F1CDA8B5C000A00400202DE9F04161
:1034100004460D46164600270E48006810B90020E5
:10342000BDE8F08133462A4621460A480068FFF786
:1034300031F90746002F0BDD064800688278054801
:103440000168C91C044801F081FDFEF795FDE7E71E
:103450003846E5E7A8040020980C0020014621B179
:103460000D48808AC0F3802010B94FF0FF307047BC
:103470000A48006810B96FF00200F8E708480079C0
:10348000022806D1074800680078052801D140428B
:10349000EDE70120EBE70000640C0020980C002011
:1034A000800C00203800002070B504460D4601262F
:1034B00004B10DB94FF0FF3601202070002E51D01D
:1034C00041F27070A0804FF47A70E080E879C528EE
:1034D00004D0C72830D0C82838D132E0607801281D
:1034E00002D1287A012808D16078401E297A8842C2
:1034F00003DC6078297A884202DA6FF0020630E055
:103500006078297A884202D06FF0030629E0207A99
:10351000012808D1287A012805D1A0698047022115
:10352000204603F081FFA97AD5F80B006269904725
:103530006078401C607014E00321204603F074FFA3
:103540000FE00421204603F06FFF0AE009480068FD
:10355000C0F3005020B1E97907A00F4A12689047E4
:1035600000BF00BF002E03DC0421204603F05CFFF7
:10357000304670BD8C040020624261694B75507208
:103580006F746F3ACEB4B6A8D2E5B5C4D6B8C1EE62
:1035900030782578000000009C04002070B50446B7
:1035A000D4F80B000578A07A032801D1022D02DBA4
:1035B0006FF0090070BD0D480068D0F80B0001786D
:1035C0000220FFF76BFC002802DC6FF00A00F1E735
:1035D00006480068D0F80B100548B1F8011041808A
:1035E00000221146C320FFF711FFE3E7AC040020DF
:1035F000800C00203EB5044600200290A07A0528E9
:1036000009D0FF200290012202A98920FFF7FEFEC7
:103610006FF009003EBDA27AD4F80B106846FCF7A3
:10362000A5FD9DF8000018B19DF80000022826D1E4
:10363000DDF80100B0F1AA3F0BD100200290012279
:1036400002A98920FFF7E2FE01210220FFF726FCF4
:1036500015E0DDF8010090B900200290012202A9D6
:103660008920FFF7D3FE012000F06CFA0546002305
:103670001A46294603480068FFF7B0FA00BF012048
:10368000C8E700003800002070B586B004460D463B
:103690001646607878B1207803280CD1A17804F11F
:1036A00010020C4800F048FE204601F025FD70B1E4
:1036B000012006B070BD2078012807D1052306221D
:1036C00001A9206B04F006F90120F2E700BF0020F9
:1036D000EFE70000D883000870B504460D46164693
:1036E000207838B1A078032804D10120024908705D
:1036F00001F092F9002070BD190000202DE9F04181
:1037000004460D461746207868B92E46074861687A
:1037100000F012FE3068401C30604FF0FF316068EE
:1037200001F004F900BF0020BDE8F0819483000897
:103730002DE9F04107460E4614460025002004E01E
:10374000395C2944CDB2411C88B2B042F8DBAC42AE
:1037500002D10120BDE8F08105480068C0F3C040F7
:1037600020B12A46214603A002F01EF80020F1E70E
:103770008C040020D0A3D1E9B4EDCEF33A63686B9A
:103780005F76616C313D25642C63616C5F76616CA2
:10379000323D25640A0D000070B505460E461446FC
:1037A0003146284602F044FBA04201D1012070BD01
:1037B0000020FCE72DE9F04389B004460D460027C0
:1037C000A1461DE004F12000A84202D24FF02008DB
:1037D00001E0A5EB0408424601A9204600F0EEFDF9
:1037E00000260AE0FF2F05D001A8805DFF2801D147
:1037F00004EB060901A8875D761C4645F2D3203408
:10380000AC42DFD3FF2F06D109F1030020F0030003
:1038100009B0BDE8F0832846FAE700002DE9F0473B
:103820008CB00646884691469A46002400200190B6
:1038300075694046FCF7D8FC202807D9202161A0F3
:1038400000F07AFD04200CB0BDE8F087FF222821AB
:1038500002A8FCF7ABFC664807904046FCF7C4FCA6
:10386000C0B28DF82800CDF82CA09DF82800C01C0F
:1038700020F0030128310B98C01C20F003000844FD
:10388000089040F2DC710898884204D959A000F0F1
:1038900053FD0620D7E7681C38B93046089901F077
:1038A000AFFC0546401C00287DD02CB901AA30464B
:1038B000089902F051FA0446002C3ED1FF200090F6
:1038C00008220AA9002000F0E5FB09909DF82820B5
:1038D0004146099800F0DEFB09909DF82800C01CC5
:1038E00020F003009DF82810471A05E001226946E0
:1038F000099800F0CFFB0990381EA7F10107F5D118
:1039000049460B9A099800F0C5FB09900B98C01C1A
:1039100020F003000B99471A05E001226946099837
:1039200000F0B8FB0990381EA7F10107F5D102A9F4
:10393000284603F0B7FF044600BF04BB9DF82820CB
:10394000414605F12800FEF766F804469DF804009C
:1039500078B99DF82820D21C22F0030305F1280233
:1039600013440B9AD21C22F003029918706802F0DB
:1039700023FA9DF828102A46404602F06BF964B9F4
:103980009DF82810C91C21F0030305F128015818DF
:1039900049460B9AFEF73FF8044644B90223062233
:1039A00002A9284600E00AE003F094FF04462CB97F
:1039B0009DF8040010B101201649087000E00624AB
:1039C000204640E74572726F723A20546865204580
:1039D0004E56206E616D65206C656E677468206957
:1039E00073206D6F7265207468616E2025640A0013
:1039F0004B5634304572726F723A205468652045D8
:103A00004E562073697A6520697320746F6F206247
:103A100069670A00190000202DE9F04393B00646BB
:103A20000C46174600255CB96946304600F07AFD21
:103A300008B16C4603E0042013B0BDE8F08300BF7A
:103A400057B9032306220EA9206B03F043FF054656
:103A500001201D49087021E0042306220EA9206BD5
:103A600003F038FF054618480078A0B99DB956B153
:103A70003046FCF7B9FB81464FF0FF3249463046ED
:103A800002F0E8F807E034B1A1784FF0FF3204F11A
:103A9000100002F0DFF800200B490870206B6FF374
:103AA0000A0000F10C086DB904220EA9404601F08D
:103AB00051FE012806D1022304220EA9404603F03C
:103AC00009FF05462846B7E71B00002070B592B0F5
:103AD00004460D461646207880B3A078022802D00E
:103AE000A07803282AD1616801F10C000323042285
:103AF00001A903F0EFFE4FF0FF30109010E004A892
:103B000001F0F6FC9DF8110050B19DF8100002285C
:103B100003D09DF81000032802D104A801F0ECFAAC
:103B200004A9204601F016F81090401C0028E6D1A8
:103B30004FF0FF31606800F0F9FE00BF002012B0C6
:103B400070BD000070B505460024414E012D00D126
:103B50004EE03046FEF720FF44B2002C0ADC3D4820
:103B60000078C0F3400018B121463BA001F01CFED4
:103B7000032070BD4049086EFDF7ECFF00B937E047
:103B80003D48006EB0F1883F13D13B4890F8650086
:103B900005280EDA384890F86400032809D02D482B
:103BA0000078C0F3400010B134A001F0FDFD022008
:103BB000DFE73148006EB0F1AA3F0ED02E4890F8F2
:103BC0006500052804DB2C4890F86500FF2804D127
:103BD000294890F86400032809D11E480078C0F3F2
:103BE000400010B129A001F0DFFD0520C1E700BFB2
:103BF0003046FEF729FF0446002C0ADC1548007801
:103C0000C0F3400018B1214623A001F0CDFD0320F0
:103C1000AFE73046FEF75AFF44B2002C0ADC0D48ED
:103C20000078C0F3400018B1214624A001F0BCFD8B
:103C300003209EE707480078C0F3400030B103F04E
:103C4000E1F926A001F0B0FDFEF796F9022090E719
:103C50004C8300088C04002062426F6F74496E66CA
:103C60006F3AB2CECAFDB6C1C8A1CAA7B0DC20B4B3
:103C7000FAC2EB25640D0A00FC0B0020CCF8D7AA91
:103C8000415050C8CECEF1210D0A0000C9FDBCB68E
:103C9000C8CECEF1210D0A0062426F6F74496E6684
:103CA0006F3AB2CECAFDB3F5CABCBBAFCAA7B0DC8F
:103CB00020B4FAC2EB25640D0A00000062426F6F67
:103CC00074496E666F3AB2CECAFDB8FCD0C2CAA7BC
:103CD000B0DC20B4FAC2EB25640D0A0062426F6FBB
:103CE00074496E666F3AB2CECAFDD6D8D6C3B3C990
:103CF000B9A60D0A000000000246012901D00229E0
:103D000003D1012010700320704709B9507BFBE7F5
:103D1000002905DA01201070002050800220F3E70E
:103D20000120107041F27070D0804FF47A701081D1
:103D30000020E9E72DE9F04104465CB96E480068CF
:103D4000C0F3C04018B16DA07349096888470220CC
:103D5000BDE8F081608850B967480068C0F3C04092
:103D600018B16EA06C49096888470020F0E7E07A36
:103D700008B9042000E0052005460026B0460027CB
:103D8000A07B012805D0022808D004280CD10320EC
:103D9000DEE780264FF08408852710E04FF4806628
:103DA00040F20448771D0AE053480068C0F3C04061
:103DB00018B161A05849096888470020C8E700BFCA
:103DC000A81985B26088A8420CD04B480068C0F39F
:103DD000C04028B1628829465EA04F4B1B689847B7
:103DE0000020B5E7E07B217C084060B142480068D4
:103DF000C0F3C04028B1227CE17B5FA0464B1B682A
:103E000098470020A4E76078012802D1E07B0128D0
:103E100008D16078401EE17B884203DC6178E07B5A
:103E200081420CDA34480068C0F3C04028B1E27B1C
:103E3000617859A0384B1B689847022088E7E07AE0
:103E400010B1E07A01284BD1E07AA8B9A8F10100BD
:103E500004F10E010A5C314604F11100FFF768FC21
:103E600018BB25480068C0F3C04018B154A02A49C7
:103E70000968884700206BE7781E04F10E010B5C8F
:103E8000B81E085C43EA0022314604F11100FFF736
:103E900083FC50B918480068C0F3C04018B151A065
:103EA0001D4909688847002052E76178E07B81421C
:103EB00012D1207B012805D1E07B012802D1D4F862
:103EC00020048047314604F11100D4F81C249047A7
:103ED0006078401C607001E0002039E7012037E77E
:103EE00005480068C0F3C04018B146A00A490968F7
:103EF000884702202CE700008C04002062586D6F78
:103F000064656D3ABDE2CEF6D0ADD2E96F626AB6B5
:103F1000D4CFF3B7C7B7A8009804002062586D6FDC
:103F200064656D3ABDE2CEF6D0ADD2E9B5C4B3A4B6
:103F3000B6C8CEAA3000000062586D6F64656D3A55
:103F4000BDE2CEF6D0ADD2E9B5C4D6A1CDB7B4EDC1
:103F5000CEF3000062586D6F64656D3ABDE2CEF637
:103F6000D0ADD2E9B5C4D6A1B3A4B4EDCEF32C2024
:103F700025642C202564000062586D6F64656D3ADD
:103F8000BDE2CEF6D0ADD2E9B0FCD0F2BAC5B4ED08
:103F90002C25642C2564000062586D6F64656D3AB1
:103FA000BDE2CEF6D0ADD2E9B5C4D6A1D0F2BAC545
:103FB000B4EDCEF3A3AC25642C20256400000000F2
:103FC00062586D6F64656D3ABDE2CEF6D0ADD2E950
:103FD000B5C4C0DBBCD3BACDD0A3D1E9B4EDCEF328
:103FE0000000000062586D6F64656D3ABDE2CEF668
:103FF000D0ADD2E9B5C44352433136D0A3D1E9B4F0
:10400000EDCEF30062586D6F64656D3ABDE2CEF699
:10401000D0ADD2E9B5C4C4A3CABDD3D0B4EDCEF3FC
:10402000000000001CB50020019000240D4800781D
:1040300008B100201CBD01A9684600F0A9F904469A
:1040400024B9DDE9000100F03BF804461CB9012069
:104050000449087003E004A105A000F06DF92046B2
:10406000E8E7000008000020342E312E3939000026
:1040700045617379466C61736820562573206973B6
:1040800020696E697469616C697A65206661696C22
:104090002E0A000030B503460C46DB4308E014F856
:1040A000010B5840C0B2054D55F8200080EA13239B
:1040B000101EA2F10102F2D1D84330BD4C790008A4
:1040C0002DE9F04105460E4600270DB900BFFEE779
:1040D0001548007810B10020BDE8F081002405E00B
:1040E0004FF0FF30114941F83400641C042CF7D321
:1040F000002406E04FF0FF300D4901EBC401486099
:10410000641C102CF6D30B480B4908600B48056063
:104110000B48066000F0AAF8074617B901200249CB
:1041200008703846D8E7000018000020080A002070
:1041300088090020005003080C0000201000002017
:1041400014000020F0B587B000262E48006808B99A
:1041500000BFFEE72C48006808B900BFFEE700F08A
:1041600001F92A48056809E04FF0FF31284600F0C0
:10417000DDFB064606B13FE005F500652348006813
:1041800000F520508542EFD3002430E004EB4400DA
:104190001C49096801EB8000806850B904EB4401B8
:1041A000184A126802EB81014868FCF71DF80746BF
:1041B00006E004EB44001349096801EB80008768BE
:1041C0004FF0FF30069004EB44000E4B1B6803EBEE
:1041D0008000426804EB44000A4B1B6853F820102F
:1041E0003B4601A8FFF71AFB06B105E0641C064830
:1041F00000688442CAD300BF00F0B6F8304607B06A
:10420000F0BD000010000020140000200C00002071
:104210002DE9F04104460D4616461F464FF00008B2
:104220000A48007828B90AA000F086F80020BDE806
:10423000F08100F097F83B4632462946204600F0D0
:1042400011FC804600F090F84046F0E7180000208E
:10425000454E562069736E277420696E69746961D2
:104260006C697A65204F4B2E0A00000010B598B09B
:1042700000240020039001201A49087000201A49E8
:10428000034603AACDE90010014604A801F0ECFBA7
:104290000398052804D115A000F04EF8FFF752FF4F
:1042A00000F060F80020214903460246CDE90010E5
:1042B000014604A801F0D8FB00BF1D4B00221146A7
:1042C0000AA800F0D7F81B48007810B100F0A4FB52
:1042D000F3E700200349087000F046F8204618B0C4
:1042E00010BD00001A000020FD3600085761726EF4
:1042F000696E673A20416C6C20736563746F72203D
:1043000068656164657220636865636B20666169D6
:104310006C65642E2053657420697420746F20646A
:10432000656661756C742E0A00000000D9360008BD
:1043300089360008190000200FB408B503A80090C2
:104340000648009A0299FCF7EFFE0020009003490E
:1043500003A001F029FA01B05DF814FBFC0A00206B
:104360002573000072B6704762B6704770B5044698
:104370000D460026C4F30A0008B100BFFEE761192C
:104380002046FDF70BFC00B90126304670BD000049
:1043900070B504460D4600260648FEF755FB00287A
:1043A00000DC07260448206001F040FD286030460C
:1043B00070BD00004C830008748300082DE9F041B3
:1043C00004460D461646002732462946204601F08F
:1043D0007FFF3846BDE8F0812DE9F0470746884663
:1043E00014464FF0000AA1464FEA890000F04EFE45
:1043F0000646224641463046FBF7B8FE2246414675
:104400003846FDF757FC08B94FF0030A55463046C9
:1044100000F0CEFA2846BDE8F08700002DE9F04113
:1044200004460D46164600270A48007828B90AA017
:10443000FFF782FF0720BDE8F081FFF793FF3246C8
:104440002946204601F058FB0746FFF78DFF384606
:10445000F1E7000018000020454E562069736E27D2
:104460007420696E697469616C697A65204F4B2E9E
:104470000A0000002DE9F04186B004460E461746BA
:104480001D464FF0FF30019028E00022694640466B
:1044900001F0AEF800B121E005B91FE09DF8010080
:1044A000022803D09DF80100032816D14FF0FF30F9
:1044B00020630AE0204601F01BF83A4631462046C8
:1044C000A84710B106B0BDE8F0812146684600F06B
:1044D00041FB2063401C0028ECD100BF684600F07F
:1044E0006FFB8046401C0028CFD100BFEAE70000E8
:1044F000024909688143014A116070470004014084
:104500000149086070470000140401400146044856
:104510000068084008B1012070470020FCE7000057
:10452000140401402DE9F04106460C4600253046B2
:10453000FBF75AFE074604F130023946304600F0D8
:10454000B5FA28B1204600F0D3FF0120BDE8F08184
:104550002146304600F02CF8054625B13946304654
:10456000226B01F077FB2846F0E72DE9F04704467F
:104570000D4616462F46B1463846FBF735FE8046B7
:10458000A078404502D00020BDE8F087607868B18F
:10459000207802280AD14246394604F11000FBF780
:1045A00038FE18B9012089F80000EDE70020EBE79C
:1045B00038B504460D4600200090044B6A4621465B
:1045C0002846FFF757FF9DF8000038BD6B450008EF
:1045D0002DE9F0418AB004460E462746E00AC002A3
:1045E00001A900F00DFB38B10198844204D14FF0CD
:1045F000FF300AB0BDE8F08126E0202202A9204663
:10460000FFF7DCFE002519E002A8415D02AA681C44
:10461000105C01EB0021A81C105C01EB0041E81CC0
:10462000105C01EB00680B48804506D16019143816
:10463000B84202D360191438DBE76D1C1C2D02D27E
:104640006019B042E0D31C34B442D6D34FF0FF30EF
:10465000CFE700004B56343000B50346012200BFBF
:1046600000F00CF802465B1E012A01D1002BF7D1A5
:10467000012A00D10422104600BD000000200A4992
:10468000C96801F0010109B101200CE00649C968BF
:1046900001F0100109B1032005E00349C96801F0E8
:1046A000040101B1022070470020024000B503461A
:1046B000012200BF00F00CF802465B1E012A01D166
:1046C000002BF7D1012A00D10422104600BD0000C2
:1046D00000200A49C96C01F0010109B101200CE078
:1046E0000649C96C01F0100109B1032005E0034936
:1046F000C96C01F0040101B10220704700200240A2
:10470000064A02EB9011096800F01F0301229A404B
:104710001143024B03EB90121160704700200240DE
:104720000848006940F08000064908610648008892
:10473000B0F5007F04D90846006D40F080000865A0
:104740007047000000200240E0F7FF1F30B505462B
:1047500033480088B0F5007F44D9324885421CD2E6
:104760003148FFF779FF0446002C56D12F480069E5
:1047700040F002002D49086108464561006940F09B
:10478000400008612848FFF767FF04462748006992
:1047900020F00200254908613FE02348FFF786FF2B
:1047A0000446002C39D12148006D40F002001F4919
:1047B000086508464565C06900F0020008B1084672
:1047C00045611A48006D40F04000184908651648D8
:1047D000FFF76CFF04461548006D20F002001349F6
:1047E00008651AE01048FFF737FF0446ACB90F48D8
:1047F000006940F002000D49086108464561006902
:1048000040F0400008610848FFF726FF04460748CB
:10481000006920F0020005490861204630BD000013
:10482000E0F7FF1FFFFF07080000FF0F0020024016
:104830000C48006900F0800020B10B48094948602D
:104840000A4848600A480088B0F5007F09D9054841
:10485000006D00F0800020B103480249486403481D
:10486000486470470020024023016745AB89EFCDC3
:10487000E0F7FF1F70B504460D4600262748008864
:10488000B0F5007F31D92648844217D22548FFF77A
:10489000E3FE0646002E3ED12348006940F00100A9
:1048A0002149086125601F48FFF7D6FE06461E48CD
:1048B000006920F001001C4908612CE01948FFF74D
:1048C000F5FE06463EBB1848006D40F00100164953
:1048D000086525601348FFF7E9FE06461248006D9B
:1048E00020F001001049086515E00E48FFF7B4FEFE
:1048F000064686B90C48006940F001000A49086183
:1049000025600848FFF7A8FE06460748006920F022
:10491000010005490861304670BD0000E0F7FF1F47
:10492000FFFF07080000FF0F0020024070B58AB0AB
:1049300004460D460026C4F30A0008B100BFFEE796
:104940004FF400612046FFF711FD0646FEB9FF2235
:10495000242101A8FBF72AFC0122042101A801F06F
:1049600015F90122042104A801F010F90948079063
:1049700008954FF0FF300990242201A92046FFF747
:104980002BFD064604F50061204601F015FA30467D
:104990000AB070BD4546343070B504460D46224617
:1049A00002A10020FBF7F8FF204670BD256400003F
:1049B00010B5002821D0114B0022001F196803E018
:1049C000814203D80A4649680029F9D152B11368D7
:1049D000841A9C4204D1006818441060104602E01A
:1049E000506000E0186039B102680B1A934203D19D
:1049F0000B681A4402604968416010BDC804002079
:104A000010B5034614460A46187810B11068401CC9
:104A10001060002010BD000000B589B00020029099
:104A20000D49034602AACDE90010012103A801F0B7
:104A30001BF80298012809D80020084903460246BD
:104A4000CDE90010014603A801F00EF8002004494A
:104A5000087009B000BD0000014A0008CD3A000806
:104A6000190000202DE9F0418EB080460E46154613
:104A70001C46002769464046FFF754FD78B10CB14B
:104A8000039820600398A84201D2039F00E02F46BC
:104A900046B13A4631460D98FFF790FC02E00CB162
:104AA0000020206038460EB0BDE8F0812DE9F041CD
:104AB00088B005460E461746324629460020FFF7C5
:104AC000E9FA4FEA104800243EE0214800EBC40018
:104AD0004068401CA8B31E4830F83400404532D12D
:104AE0001B4901EBC401496801F1280020226946F5
:104AF000FFF764FC324669462846FBF78AFB08BB91
:104B0000134800EBC40040683860114800EBC40053
:104B100040884FF6EF71884206DB4FF6FF700C4974
:104B200001EBC401488008E0094800EBC40040885C
:104B30001030074901EBC4014880012008B0BDE8EE
:104B4000F08100E000BF641C102CBED30020F5E70C
:104B50008809002070B505460C464FF0FF3668788E
:104B6000012801D1801E70BD206B401C18B96868F7
:104B700000F1240621E0216B686800F500608142A5
:104B800018D8607818B1A168206B461801E0206B36
:104B9000061D686800F2DC713046FFF719FD064615
:104BA000686800F50060B04201D3A06828B94FF0F2
:104BB000FF30D8E74FF0FF30D5E73046D3E70000AD
:104BC00001464868401C10B90C4800687047C86826
:104BD000401C18B9486800F5006203E04B68C868DB
:104BE00003EBC0220548006800F52050824201D244
:104BF0001046EBE74FF0FF30E8E700000C00002024
:104C000003460A4600210DE0084850F8310098425A
:104C100007D122B1054800EBC100406810600120B7
:104C20007047491C0429EFD30020F9E7080A002047
:104C300030B502460023481E0146044606E04801FE
:104C400002EBD000007800B904E05B1C081EA1F163
:104C50000101F4D100BFE01A30BDF0B5044616469C
:104C60000025002201F00F0501F0100747B1042EC6
:104C700005D145F00305E76B1F43E76300E03543CB
:104C800000201EE0012787401F40C7B122684FEA7D
:104C9000800C0F2707FA0CF7BA43870005FA07F7CD
:104CA0003A43282904D1012787401F40676105E066
:104CB000482903D1012787401F4027612260471CF4
:104CC000B8B20828DED3082022E0012787401F4021
:104CD000E7B16268A0F108074FEA870C0F2707FACF
:104CE0000CF7BA43A0F10807BF0005FA07F73A43EB
:104CF000282904D1012787401F40676105E0482922
:104D000003D1012787401F4027616260471CB8B26A
:104D10001028DAD3F0BD2DE9FE4F04468A46154629
:104D20001F46DDF8308000200290002601900090A0
:104D30008146D34654B1206840B1606830B1BBF1C0
:104D4000000F03D015B1B8F1000F02D10020BDE86B
:104D5000FE8F0020C8F80000204600F051F80290B5
:104D6000E9190298814201D90020F0E7A06801907A
:104D70000298401B0090384623E04FF0010901994A
:104D80000E186168B14201D86168761A00210FE0FF
:104D90002268925D1BF801309A4202D04FF0000960
:104DA00008E0721C164663689A4200D30026491C2C
:104DB000A942EDD300BFB9F1000F01D0C8F800003F
:104DC000401CB9F1000F02D100998842D5D948465C
:104DD000BDE730B5014600240022002319B1086860
:104DE00008B1486808B9002030BDCA688B689A428B
:104DF00003D3D51A4868441B00E09C1A601EF3E7F1
:104E000030B5014600240022002319B1086808B11A
:104E1000486808B9002030BDCA688B689A4201D33F
:104E2000D41A02E09D1A4868441B2046F3E7034663
:104E30000BB101B10AB900207047002018615A6017
:104E40001960D86098600120F6E77CB504460D46ED
:104E500016460020019001AB3246294600902046BC
:104E600000F005F808B101987CBD0020FCE72DE9B1
:104E7000F05F04468846154699460026B24600274C
:104E8000C3463CB1206828B1606818B1B8F1000F82
:104E900000D015B90020BDE8F09F2046FFF7B0FF15
:104EA0008246BAF1000F05D0AA4505D20A9800F053
:104EB000010008B10020EEE7AA4501D2504600E00B
:104EC00028460546A7686068C01BA84202D26068F1
:104ED000C01B00E0284606462068C11932465846E5
:104EE000FBF744F9B3443744AD1B2DB12A4658466D
:104EF0002168FBF73BF92F466068B84200D80027CD
:104F0000A76000BF206920B17219002120462369E3
:104F1000984700BFB9F1000F02D07019C9F800001E
:104F20000120B8E710B504467CB1206868B160681C
:104F300058B10020E060A06000BF206920B10022CD
:104F4000022120462369984700BF10BD7CB5044666
:104F50000D4616460020019001AB324629460090CE
:104F6000204600F005F808B101987CBD0020FCE760
:104F70002DE9F05F04468846154699460026B2465C
:104F80000027C3463CB1206828B1606818B1B8F169
:104F9000000F00D015B90020BDE8F09F2046FFF7B4
:104FA00018FF8246BAF1000F05D0AA4505D20A982B
:104FB00000F0010008B10020EEE7AA4501D25046FA
:104FC00000E028460546E7686068C01BA84202D298
:104FD0006068C01B00E0284606462168C8193246B2
:104FE0005946FBF7C3F8B3443744AD1B2DB12A46ED
:104FF00059462068FBF7BAF82F466068B84200D8D7
:105000000027E76000BF206920B172190121204606
:105010002369984700BFB9F1000F02D07019C9F891
:1050200000000120B8E7000001F0C6F901F080FCA3
:1050300001F026F9002001F013F91FE01048007874
:10504000012804D00F4800680078052802D100200C
:1050500001F0E0FB0A480078012804D1002008494B
:10506000087001F051FA0848007820B10020064984
:10507000087001F04FFD002001F086FBDEE7000024
:10508000200000203800002021000020F0B50B3067
:10509000154D20F007010024144A0FE003688B42ED
:1050A0000BD38B4205D95E1A43184768C3E90067E2
:1050B00000E04368136002C004E0021D106800288D
:1050C000ECD12046002802D1286808B10020F0BDAC
:1050D000064A07481060074A121A22F00702C0E980
:1050E000002401202860D7E7CC040020C804002059
:1050F000E4100020E03000202DE9F043A3B0044686
:105100004FF000092078022804D1002221461046E1
:10511000FEF782FC18A8A168FCF7ACFC0546401C11
:10512000A8B136480078B0B1242101A8FBF745F8B2
:10513000A27804F1100101A8FBF74AF80AA901A816
:10514000FFF736FA10B14FF000094FE003E00620F8
:1051500023B0BDE8F083A768002218A8A16800F07A
:10516000FBFD012306221EA9284602F0B3FB143FD3
:105170000026B0461BE006F12000B84202D24FF0F4
:10518000200801E0A7EB060808F1030121F0030263
:10519000216B1431881910A9FFF710F905F11401DA
:1051A0008819424610A9FFF717F981464644BE42C6
:1051B000E1D3022306221EA9284602F08BFBA27827
:1051C000D21C22F0030305F128021344E268D21C2A
:1051D00022F003029918E80AC00200F0EDFDA17860
:1051E0002A4604F1100000F035FD00BF01222146DF
:1051F0000020FEF711FC4846AAE700001A00002034
:105200002DE9F04104460D460026771E00BF2946D1
:105210002046FCF72FFC0746401C38B905480078AB
:1052200020B11EB9FFF7F8FB0126F0E73846BDE8CC
:10523000F0810000190000202DE9F04106460C46DF
:105240001546E01C20F003012831E81C20F0030083
:105250000F1839463046FFF7D3FFBDE8F081000054
:105260002DE9F04103460D46164600240027A046CE
:105270002A48006800F4E060B0F5E06F03D100BF99
:105280004FF0040830E02548006800F4E060B0F515
:10529000C06F03D101274FF0030825E01F480068C5
:1052A00000F4E060B0F5A06F02D10227B8461BE021
:1052B0001A48006800F4E060B0F5806F03D103275E
:1052C0004FF0010810E01548006800F4E060B0F508
:1052D000407F03D104274FF0000805E04FF4A060A1
:1052E00000F020F80227B846C7F1040005FA00F4E0
:1052F000C8F104010F20C84030400443240108488D
:10530000C45403F01F01012088405911890001F1A4
:10531000E021C1F80001BDE8F08100000CED00E0E3
:1053200000E400E002490143024A116070470000B6
:105330000000FA050CED00E02DE9F04F8CB00746B7
:1053400000200A904AA090E8004CC068CDE905BE54
:10535000CDF810A007900FF21C1ADAE9000ACDE987
:10536000020A0FF2101ADAE9000ACDE9000A4448ED
:105370004068C0F381000B900B9820B1012804D045
:1053800002283FD103E03F4A3EE03E4A3CE03C4831
:10539000406800F4803CBCF5803F12D13848C06AB8
:1053A00000F08048B8F1000F01D1364B00E0364BD9
:1053B0003348406800F40039B9F5003F02D15B087A
:1053C00000E0324B2E484068C0F383412C484068CF
:1053D00000F0006008B141F010012948406800F079
:1053E000804008B141F020010F2901D2891C06E05C
:1053F0000F2903D33E2901D8491C00E03F2103FBBC
:1054000001F201E01F4A00BF00BF1D484068C0F321
:10541000031504A8465D22FA06F419484068C0F353
:10542000022502A8465D24FA06F009901448406857
:10543000C0F3C2251DF8056024FA06F0089037B1C4
:10544000012F06D0022F06D0032F0AD106E00A92C0
:1054500008E00A9406E009980A9003E008980A9088
:1054600000E000BF00BF0A980CB0BDE8F08F00005C
:105470000000000000000000010203040607080904
:105480000010024000127A00006CDC0200093D00AE
:10549000064A02EB9011096800F01F0301229A40AE
:1054A0001143024B03EB9012116070470010024051
:1054B000064A02EB9011096800F01F0301229A408E
:1054C0009143024B03EB90121160704700100240B1
:1054D000064A02EB9011096800F01F0301229A406E
:1054E0001143024B03EB9012116070470010024011
:1054F0002DE9F04792B004464FF00009CA46282231
:1055000008A9206BFEF75AFF062108A8FFF790FBB9
:1055100020700E98A060A068401C30B1A068B0F563
:10552000205F02D8A068202812D22820A06020780E
:10553000052807D0052020700523062208A9206B26
:1055400002F0C8F900206070022012B0BDE8F087B8
:1055500040F2DC71A068884205D9A068B0F5205FF0
:1055600001D200BFFEE7A068A0F1200600250027B9
:1055700016E005F12000B04201D2202700E0771BA1
:10558000F91C21F00302216B203148196946FEF70E
:1055900015FF3A4669464846FEF77CFD81463D4484
:1055A000B542E6D30F98484504D0002060704FF014
:1055B000020A1BE001206070206B00F128089DF8B2
:1055C0004000C01C20F0030204F110014046FEF729
:1055D000F5FE9DF84000C01C20F0030000EB080120
:1055E00061631198E0609DF84000A0705046ACE700
:1055F0002DE9F04198B005460C4617464FF00008DB
:10560000C5F30A0008B100BFFEE70CB900BFFEE712
:1056100024220FA92846FEF7D1FE65601598A060E8
:105620003F49A068884207D000202070401EE060FB
:10563000072018B0BDE8F081012020701698E060C6
:1056400004210FA8FFF7F4FA6070042112A8FFF7F5
:10565000EFFAA070002F60D0002020616068243035
:1056600060616078012803D140F2DC70206154E071
:105670006078022851D104F114012846FFF7C0FADE
:1056800038B161686069401AC0F500602061404629
:10569000CFE740F2DC7020614FF0FF300D901EE04C
:1056A00001A8FFF725FF9DF8050080B99DF80400CB
:1056B00001280CD09DF80400052808D019A00D99E8
:1056C000FEF73AFE002020614FF002080FE060690B
:1056D00003990844606120690399401A206101A977
:1056E0002046FFF737FA0D90401C0028D8D100BFA4
:1056F000626802F500616069FEF75CF80646606961
:10570000B04205D066616068301AC0F50060206163
:105710006169606800F050FB00BF404689E7000007
:10572000454634304572726F723A205468652045A0
:105730004E5620284030782530385829204352438F
:10574000333220636865636B206661696C65642130
:105750000A00000070B506460C4615460CB900BF9D
:10576000FEE7681E072101EB4010C20821463046C3
:10577000FEF724FE29462046FFF75AFA70BD0000C6
:10578000024909688143014A1160704704280040BA
:10579000014604480068084008B101207047002015
:1057A000FCE70000042800400FB438B5002404983A
:1057B000FDF754FE0546002D03DC284638BC5DF895
:1057C00014FB05A8009000210846009B049AFBF7F3
:1057D00091FC0446002C03DA00200090001FEDE746
:1057E000B4F5807F03DD00200090401FE6E705A8A8
:1057F00000900848009A0499FBF796FC04460020A4
:105800000090224603490448FFF7A0FBFCF7B4FBD5
:105810002046D3E7B00E0020980C00200FB470B5DE
:1058200086B0002400250A98FDF718FE0646002ED3
:1058300004DC304606B070BC5DF814FB0BA8059084
:1058400000210846059B0A9AFBF754FC0446002CED
:1058500003DA00200590001FECE7B4F5807F03DD3C
:1058600000200590401FE5E717A003C8CDE903011C
:1058700003A8FAF7B9FC05462A4603A91448FFF71E
:1058800065FB0BA805901348059A0A99FBF74CFC99
:1058900004460020059022460E490D48FFF756FBAE
:1058A0002C440DA103C9CDE9010101A8FAF79CFC24
:1058B00005462A4601A90648FFF748FB2C44FCF799
:1058C0005BFB2046B6E700001B5B33313B0000006A
:1058D000980C0020B00E00201B5B306D200D0A00DC
:1058E0000FB470B586B0002400250A98FDF7B6FD08
:1058F0000646002E04DC304606B070BC5DF814FB92
:105900000BA8059000210846059B0A9AFBF7F2FBBD
:105910000446002C03DA00200590001FECE7B4F5E4
:10592000807F03DD00200590401FE5E717A003C836
:10593000CDE9030103A8FAF757FC05462A4603A957
:105940001448FFF703FB0BA805901348059A0A9922
:10595000FBF7EAFB04460020059022460E490D485D
:10596000FFF7F4FA2C440DA103C9CDE9010101A808
:10597000FAF73AFC05462A4601A90648FFF7E6FA77
:105980002C44FCF7F9FA2046B6E700001B5B3332E3
:105990003B000000980C0020B00E00201B5B306D17
:1059A000200D0A000FB470B586B0002400250A98B7
:1059B000FDF754FD0646002E04DC304606B070BCF0
:1059C0005DF814FB0BA8059000210846059B0A9A78
:1059D000FBF790FB0446002C03DA00200590001F23
:1059E000ECE7B4F5807F03DD00200590401FE5E77C
:1059F00017A003C8CDE9030103A8FAF7F5FB054694
:105A00002A4603A91448FFF7A1FA0BA805901348EA
:105A1000059A0A99FBF788FB044600200590224668
:105A20000E490D48FFF792FA2C440DA103C9CDE9A8
:105A3000010101A8FAF7D8FB05462A4601A9064844
:105A4000FFF784FA2C44FCF797FA2046B6E70000EB
:105A50001B5B33333B000000980C0020B00E00208D
:105A60001B5B306D200D0A002DE9F04704460D4602
:105A700016461F46DDE908894FF0FF3060601AE0E6
:105A8000002221465046FFF7B3FD15B16078A842C9
:105A900011D1B9F1000F04D04A4621465046FFF714
:105AA000A7FDB8F1000F06D03A4631462046C04760
:105AB00008B1BDE8F0872046FFF782F88246401C17
:105AC0000028DDD100BFF4E730B503460C4615468B
:105AD000187830B15878012803D12068401C206024
